{
  "contractName": "GeneFunction",
  "abi": [
    {
      "constant": true,
      "inputs": [
        {
          "name": "_maleGene",
          "type": "uint256"
        },
        {
          "name": "_femaleGene",
          "type": "uint256"
        },
        {
          "name": "_name",
          "type": "string"
        }
      ],
      "name": "generateGenes",
      "outputs": [
        {
          "name": "",
          "type": "uint256"
        }
      ],
      "payable": false,
      "stateMutability": "view",
      "type": "function"
    },
    {
      "constant": true,
      "inputs": [
        {
          "name": "_nonce",
          "type": "uint256"
        }
      ],
      "name": "generateReplaceGene",
      "outputs": [
        {
          "name": "",
          "type": "uint256"
        }
      ],
      "payable": false,
      "stateMutability": "view",
      "type": "function"
    }
  ],
  "bytecode": "0x60806040527a184f03e93ff9f4daa797ed6e38ed64bf6a1f01000000000000000060005534801561002f57600080fd5b506103178061003f6000396000f30060806040526004361061004b5763ffffffff7c01000000000000000000000000000000000000000000000000000000006000350416631ab53bcc81146100505780638c38e9e71461007a575b600080fd5b34801561005c57600080fd5b506100686004356100a2565b60408051918252519081900360200190f35b34801561008657600080fd5b5061006860048035906024803591604435918201910135610144565b604080516020808201849052600019430140828401528251808303840181526060909201928390528151600093849392909182918401908083835b602083106100fc5780518252601f1990920191602091820191016100dd565b6001836020036101000a03801982511681845116808217855250505050505090500191505060405180910390206001900490506000548181151561013c57fe5b069392505050565b600080600080600080600088886001430340604051602001808484808284379091019283525050604080518083038152602092830191829052805190945090925082918401908083835b602083106101ad5780518252601f19909201916020918201910161018e565b6001836020036101000a0380198251168184511680821785525050505050509050019150506040518091039020600190049550600054868115156101ed57fe5b069450891580156101fc57508a155b1561020c578493508396506102ca565b600192505b602083116102c657505060028102600a0a6064810460328102828681151561023557fe5b06111561026e57610267818c81151561024a57fe5b06838d81151561025657fe5b0603856102d890919063ffffffff16565b93506102bb565b600a8102828681151561027d57fe5b06111561029e57610267818b81151561029257fe5b06838c81151561025657fe5b6102b881868115156102ac57fe5b06838781151561025657fe5b93505b600190920191610211565b8396505b505050505050949350505050565b818101828110156102e557fe5b929150505600a165627a7a72305820843c1da98ee5e6a3d752a9f031a78644fc22762c6eaa7876440c9e74ea7ea3ae0029",
  "source": "pragma solidity ^0.4.23;\n\nlibrary SafeMath{\n\n    function mul(uint a, uint b) internal pure returns(uint c){\n        if (a == 0){\n            return 0;\n        }\n        c = a * b;\n        assert(c / a == b);\n        return c;\n    }\n\n    function div(uint a, uint b) internal pure returns(uint){\n        return a / b;\n    }\n\n    function sub(uint a, uint b) internal pure returns (uint) {\n        assert(b <= a);\n        return a - b;\n    }\n\n    function add(uint a, uint b) internal pure returns (uint c) {\n        c = a + b;\n        assert(c >= a);\n        return c;\n    }\n}\n\ncontract GeneFunction{\n    using SafeMath for uint;\n    uint geneModulus = 10 ** 64; // length of genes\n    function generateGenes\n    (\n        uint256 _maleGene,\n        uint256 _femaleGene,\n        string _name\n    )\n    external view returns (uint)\n    {\n        uint _seed = uint(keccak256(abi.encodePacked(_name,blockhash(block.number-1))));\n        uint fakeGene = _seed % geneModulus;\n        uint newGene;\n        if(_femaleGene == 0 && _maleGene == 0){\n            newGene = fakeGene;\n            return newGene;\n        }else{\n            for(uint i=1;i<=32;i++){\n                uint quot = 10 ** (i * 2);\n                uint con = quot / 100;\n                if(fakeGene % quot > 5 * con * 10){\n                    newGene = newGene.add(_maleGene % quot - _maleGene % con);\n                }else if(fakeGene % quot > 1 * con * 10){\n                    newGene = newGene.add(_femaleGene % quot - _femaleGene % con);\n                }else{\n                    newGene = newGene.add(fakeGene % quot - fakeGene % con);\n                }\n            }\n            return newGene;\n        }\n    }\n\n    function generateReplaceGene\n    (uint _nonce)\n    external view returns(uint)\n    {\n        uint _seed = uint(keccak256(abi.encodePacked(_nonce,blockhash(block.number-1))));\n        return  _seed % geneModulus;\n    }\n\n}\n",
  "sourcePath": "/Users/yamamotojirou/Desktop/horse-game-ver2/contracts/GeneFunction.sol",
  "compiler": {
    "name": "solc",
    "version": "0.4.24+commit.e67f0147.Emscripten.clang"
  },
  "schemaVersion": "2.0.1",
  "updatedAt": "2018-07-25T14:33:41.335Z"
}