{
  "contractName": "HorseGameBase",
  "abi": [
    {
      "constant": true,
      "inputs": [
        {
          "name": "",
          "type": "uint256"
        }
      ],
      "name": "raceIdToDeposit",
      "outputs": [
        {
          "name": "",
          "type": "uint256"
        }
      ],
      "payable": false,
      "stateMutability": "view",
      "type": "function"
    },
    {
      "constant": true,
      "inputs": [
        {
          "name": "",
          "type": "uint256"
        }
      ],
      "name": "tokenOwner",
      "outputs": [
        {
          "name": "",
          "type": "address"
        }
      ],
      "payable": false,
      "stateMutability": "view",
      "type": "function"
    },
    {
      "constant": true,
      "inputs": [
        {
          "name": "",
          "type": "uint256"
        }
      ],
      "name": "tokenIdToOnSireSaleIndex",
      "outputs": [
        {
          "name": "",
          "type": "uint256"
        }
      ],
      "payable": false,
      "stateMutability": "view",
      "type": "function"
    },
    {
      "constant": true,
      "inputs": [
        {
          "name": "",
          "type": "uint256"
        }
      ],
      "name": "tokenIdToOnSaleIndex",
      "outputs": [
        {
          "name": "",
          "type": "uint256"
        }
      ],
      "payable": false,
      "stateMutability": "view",
      "type": "function"
    },
    {
      "constant": true,
      "inputs": [
        {
          "name": "",
          "type": "uint256"
        }
      ],
      "name": "ownedTokensIndex",
      "outputs": [
        {
          "name": "",
          "type": "uint256"
        }
      ],
      "payable": false,
      "stateMutability": "view",
      "type": "function"
    },
    {
      "constant": true,
      "inputs": [
        {
          "name": "",
          "type": "uint256"
        }
      ],
      "name": "horses",
      "outputs": [
        {
          "name": "horseId",
          "type": "uint256"
        },
        {
          "name": "genes",
          "type": "uint256"
        },
        {
          "name": "name",
          "type": "string"
        },
        {
          "name": "winCount",
          "type": "uint256"
        },
        {
          "name": "papaId",
          "type": "uint256"
        },
        {
          "name": "momId",
          "type": "uint256"
        },
        {
          "name": "mateIndex",
          "type": "uint256"
        },
        {
          "name": "raceIndex",
          "type": "uint256"
        },
        {
          "name": "price",
          "type": "uint256"
        },
        {
          "name": "sirePrice",
          "type": "uint256"
        },
        {
          "name": "saleDuration",
          "type": "uint256"
        },
        {
          "name": "isOnSale",
          "type": "bool"
        },
        {
          "name": "isOnAuction",
          "type": "bool"
        },
        {
          "name": "isOnSireSale",
          "type": "bool"
        }
      ],
      "payable": false,
      "stateMutability": "view",
      "type": "function"
    },
    {
      "constant": true,
      "inputs": [
        {
          "name": "",
          "type": "address"
        },
        {
          "name": "",
          "type": "uint256"
        }
      ],
      "name": "ownedTokens",
      "outputs": [
        {
          "name": "",
          "type": "uint256"
        }
      ],
      "payable": false,
      "stateMutability": "view",
      "type": "function"
    },
    {
      "constant": true,
      "inputs": [
        {
          "name": "",
          "type": "uint256"
        },
        {
          "name": "",
          "type": "uint256"
        }
      ],
      "name": "raceIdToHorseIds",
      "outputs": [
        {
          "name": "",
          "type": "uint256"
        }
      ],
      "payable": false,
      "stateMutability": "view",
      "type": "function"
    },
    {
      "constant": false,
      "inputs": [
        {
          "name": "newOwner",
          "type": "address"
        }
      ],
      "name": "transferOwnership",
      "outputs": [],
      "payable": false,
      "stateMutability": "nonpayable",
      "type": "function"
    },
    {
      "payable": true,
      "stateMutability": "payable",
      "type": "fallback"
    },
    {
      "anonymous": false,
      "inputs": [
        {
          "indexed": true,
          "name": "_from",
          "type": "address"
        },
        {
          "indexed": false,
          "name": "_price",
          "type": "uint256"
        },
        {
          "indexed": false,
          "name": "_tokenId",
          "type": "uint256"
        },
        {
          "indexed": false,
          "name": "_type",
          "type": "string"
        },
        {
          "indexed": false,
          "name": "_now",
          "type": "uint256"
        }
      ],
      "name": "HorseOnSale",
      "type": "event"
    },
    {
      "anonymous": false,
      "inputs": [
        {
          "indexed": true,
          "name": "_from",
          "type": "address"
        },
        {
          "indexed": true,
          "name": "_to",
          "type": "address"
        },
        {
          "indexed": false,
          "name": "_tokenId",
          "type": "uint256"
        },
        {
          "indexed": false,
          "name": "_now",
          "type": "uint256"
        }
      ],
      "name": "Transfer",
      "type": "event"
    },
    {
      "anonymous": false,
      "inputs": [
        {
          "indexed": true,
          "name": "_owner",
          "type": "address"
        },
        {
          "indexed": false,
          "name": "_raceId",
          "type": "uint256"
        },
        {
          "indexed": false,
          "name": "_horseId",
          "type": "uint256"
        },
        {
          "indexed": false,
          "name": "_now",
          "type": "uint256"
        }
      ],
      "name": "ApplyRace",
      "type": "event"
    },
    {
      "anonymous": false,
      "inputs": [
        {
          "indexed": true,
          "name": "_voter",
          "type": "address"
        },
        {
          "indexed": false,
          "name": "_betValue",
          "type": "uint256"
        },
        {
          "indexed": false,
          "name": "_raceId",
          "type": "uint256"
        },
        {
          "indexed": false,
          "name": "_horseId",
          "type": "uint256"
        },
        {
          "indexed": false,
          "name": "_now",
          "type": "uint256"
        }
      ],
      "name": "BetRace",
      "type": "event"
    },
    {
      "anonymous": false,
      "inputs": [
        {
          "indexed": true,
          "name": "_host",
          "type": "address"
        },
        {
          "indexed": false,
          "name": "_deposit",
          "type": "uint256"
        },
        {
          "indexed": false,
          "name": "_minWinnerPrize",
          "type": "uint256"
        },
        {
          "indexed": false,
          "name": "_raceId",
          "type": "uint256"
        },
        {
          "indexed": false,
          "name": "_now",
          "type": "uint256"
        }
      ],
      "name": "HostRace",
      "type": "event"
    },
    {
      "anonymous": false,
      "inputs": [
        {
          "indexed": true,
          "name": "_from",
          "type": "address"
        },
        {
          "indexed": false,
          "name": "_tokenId",
          "type": "uint256"
        }
      ],
      "name": "GiftHorseLottery",
      "type": "event"
    },
    {
      "anonymous": false,
      "inputs": [
        {
          "indexed": true,
          "name": "previousOwner",
          "type": "address"
        },
        {
          "indexed": true,
          "name": "newOwner",
          "type": "address"
        }
      ],
      "name": "OwnershipTransferred",
      "type": "event"
    },
    {
      "constant": true,
      "inputs": [],
      "name": "getWinCountsArray",
      "outputs": [
        {
          "name": "",
          "type": "uint256[]"
        }
      ],
      "payable": false,
      "stateMutability": "view",
      "type": "function"
    },
    {
      "constant": true,
      "inputs": [],
      "name": "getTotalPrizeArray",
      "outputs": [
        {
          "name": "",
          "type": "uint256[]"
        }
      ],
      "payable": false,
      "stateMutability": "view",
      "type": "function"
    },
    {
      "constant": true,
      "inputs": [],
      "name": "getOnSalePricesArray",
      "outputs": [
        {
          "name": "",
          "type": "uint256[]"
        }
      ],
      "payable": false,
      "stateMutability": "view",
      "type": "function"
    },
    {
      "constant": true,
      "inputs": [],
      "name": "getOnSirePricesArray",
      "outputs": [
        {
          "name": "",
          "type": "uint256[]"
        }
      ],
      "payable": false,
      "stateMutability": "view",
      "type": "function"
    },
    {
      "constant": true,
      "inputs": [],
      "name": "getOnMinBidPricesArray",
      "outputs": [
        {
          "name": "",
          "type": "uint256[]"
        }
      ],
      "payable": false,
      "stateMutability": "view",
      "type": "function"
    },
    {
      "constant": true,
      "inputs": [],
      "name": "getHorseGenesArray",
      "outputs": [
        {
          "name": "",
          "type": "uint256[]"
        }
      ],
      "payable": false,
      "stateMutability": "view",
      "type": "function"
    },
    {
      "constant": true,
      "inputs": [
        {
          "name": "_owner",
          "type": "address"
        }
      ],
      "name": "balanceOf",
      "outputs": [
        {
          "name": "",
          "type": "uint256"
        }
      ],
      "payable": false,
      "stateMutability": "view",
      "type": "function"
    },
    {
      "constant": true,
      "inputs": [
        {
          "name": "_tokenId",
          "type": "uint256"
        }
      ],
      "name": "ownerOf",
      "outputs": [
        {
          "name": "",
          "type": "address"
        }
      ],
      "payable": false,
      "stateMutability": "view",
      "type": "function"
    },
    {
      "constant": true,
      "inputs": [],
      "name": "onSaleHorses",
      "outputs": [
        {
          "name": "",
          "type": "uint256[]"
        }
      ],
      "payable": false,
      "stateMutability": "view",
      "type": "function"
    },
    {
      "constant": true,
      "inputs": [],
      "name": "onSireSaleHorses",
      "outputs": [
        {
          "name": "",
          "type": "uint256[]"
        }
      ],
      "payable": false,
      "stateMutability": "view",
      "type": "function"
    },
    {
      "constant": true,
      "inputs": [
        {
          "name": "_owner",
          "type": "address"
        }
      ],
      "name": "ownedTokensIds",
      "outputs": [
        {
          "name": "",
          "type": "uint256[]"
        }
      ],
      "payable": false,
      "stateMutability": "view",
      "type": "function"
    },
    {
      "constant": false,
      "inputs": [
        {
          "name": "_papaId",
          "type": "uint256"
        },
        {
          "name": "_mamaId",
          "type": "uint256"
        },
        {
          "name": "_name",
          "type": "string"
        }
      ],
      "name": "mateHorses",
      "outputs": [],
      "payable": false,
      "stateMutability": "nonpayable",
      "type": "function"
    },
    {
      "constant": false,
      "inputs": [
        {
          "name": "_myTokenId",
          "type": "uint256"
        },
        {
          "name": "_saleTokenId",
          "type": "uint256"
        },
        {
          "name": "_name",
          "type": "string"
        }
      ],
      "name": "sireHorseWithOnSaleHorse",
      "outputs": [],
      "payable": true,
      "stateMutability": "payable",
      "type": "function"
    },
    {
      "constant": false,
      "inputs": [
        {
          "name": "_from",
          "type": "address"
        },
        {
          "name": "_to",
          "type": "address"
        },
        {
          "name": "_tokenId",
          "type": "uint256"
        }
      ],
      "name": "takeOwnership",
      "outputs": [],
      "payable": true,
      "stateMutability": "payable",
      "type": "function"
    },
    {
      "constant": false,
      "inputs": [
        {
          "name": "_tokenId",
          "type": "uint256"
        },
        {
          "name": "_price",
          "type": "uint256"
        }
      ],
      "name": "horseTokenToOnSale",
      "outputs": [],
      "payable": false,
      "stateMutability": "nonpayable",
      "type": "function"
    },
    {
      "constant": false,
      "inputs": [
        {
          "name": "_tokenId",
          "type": "uint256"
        }
      ],
      "name": "horseTokenToNotOnSale",
      "outputs": [],
      "payable": false,
      "stateMutability": "nonpayable",
      "type": "function"
    },
    {
      "constant": false,
      "inputs": [
        {
          "name": "_tokenId",
          "type": "uint256"
        }
      ],
      "name": "horseTokenToNotOnSireSale",
      "outputs": [],
      "payable": false,
      "stateMutability": "nonpayable",
      "type": "function"
    },
    {
      "constant": false,
      "inputs": [
        {
          "name": "_tokenId",
          "type": "uint256"
        },
        {
          "name": "_price",
          "type": "uint256"
        }
      ],
      "name": "horseTokenToOnSireSale",
      "outputs": [],
      "payable": false,
      "stateMutability": "nonpayable",
      "type": "function"
    },
    {
      "constant": false,
      "inputs": [
        {
          "name": "_name",
          "type": "string"
        }
      ],
      "name": "createHorseToken",
      "outputs": [],
      "payable": false,
      "stateMutability": "nonpayable",
      "type": "function"
    }
  ],
  "bytecode": "0x60806040527a184f03e93ff9f4daa797ed6e38ed64bf6a1f01000000000000000060015560008054600160a060020a03191633179055611dab806100446000396000f3006080604052600436106101695763ffffffff7c01000000000000000000000000000000000000000000000000000000006000350416630ba3aa34811461016b5780631144c24d146101d05780631caaa487146101fa5780631dd7dbc31461022e5780633400240f1461024957806349907d67146102615780634c85b5561461027957806355e5423214610291578063626f0a19146102ae5780636352211e146102c357806370a08231146102db57806374e24367146102fc57806376afd6fa14610314578063777477201461032f57806377c01d79146103445780638b8bd9f6146103645780638f8b5cde14610385578063948aa22e1461047c5780639942b33014610497578063a44227d1146104ac578063c7e5c90e146104d4578063e149f036146104e9578063e3eaae641461050d578063e7c3310214610528578063ebc631231461053d578063f184617514610552578063f2fde38b1461056a578063fc849ac21461058b575b005b34801561017757600080fd5b506101806105a0565b60408051602080825283518183015283519192839290830191858101910280838360005b838110156101bc5781810151838201526020016101a4565b505050509050019250505060405180910390f35b3480156101dc57600080fd5b506101e86004356105f9565b60408051918252519081900360200190f35b34801561020657600080fd5b5061021260043561060b565b60408051600160a060020a039092168252519081900360200190f35b34801561023a57600080fd5b50610169600435602435610626565b34801561025557600080fd5b506101e86004356107a8565b34801561026d57600080fd5b506101696004356107ba565b34801561028557600080fd5b506101e8600435610905565b610169600160a060020a0360043581169060243516604435610917565b3480156102ba57600080fd5b50610180610b0b565b3480156102cf57600080fd5b50610212600435610b61565b3480156102e757600080fd5b506101e8600160a060020a0360043516610b7c565b34801561030857600080fd5b506101e8600435610b97565b34801561032057600080fd5b50610169600435602435610ba9565b34801561033b57600080fd5b50610180610d27565b34801561035057600080fd5b506101696004803560248101910135610d7d565b34801561037057600080fd5b50610180600160a060020a0360043516610df1565b34801561039157600080fd5b5061039d600435610e5d565b604051808f81526020018e8152602001806020018d81526020018c81526020018b81526020018a815260200189815260200188815260200187815260200186815260200185151515158152602001841515151581526020018315151515815260200182810382528e818151815260200191508051906020019080838360005b8381101561043457818101518382015260200161041c565b50505050905090810190601f1680156104615780820380516001836020036101000a031916815260200191505b509f5050505050505050505050505050505060405180910390f35b61016960048035906024803591604435918201910135610f7e565b3480156104a357600080fd5b506101806110d6565b3480156104b857600080fd5b506101696004803590602480359160443591820191013561112c565b3480156104e057600080fd5b50610180611202565b3480156104f557600080fd5b506101e8600160a060020a0360043516602435611258565b34801561051957600080fd5b506101e8600435602435611288565b34801561053457600080fd5b506101806112a3565b34801561054957600080fd5b506101806112f9565b34801561055e57600080fd5b5061016960043561134f565b34801561057657600080fd5b50610169600160a060020a036004351661148d565b34801561059757600080fd5b506101806114e8565b6060600d8054806020026020016040519081016040528092919081815260200182805480156105ee57602002820191906000526020600020905b8154815260200190600101908083116105da575b505050505090505b90565b60146020526000908152604090205481565b600e60205260009081526040902054600160a060020a031681565b600033600e8261063d86600163ffffffff61153e16565b8152602081019190915260400160002054600160a060020a03161461066157600080fd5b600761067484600163ffffffff61153e16565b8154811061067e57fe5b60009182526020808320600c9283020160098101869055600b810180546201000062ff0000199091161790556003805460018181019092557fc2575a0e9e593c00f959f8c92f12db2869c3395a3b0502d05e2516446f71f85b81018990558886526012909352604090942091909155925083916106fc90869061153e565b8154811061070657fe5b6000918252602080832090910192909255848152600e825260409081902054815185815292830186905242606084015260808383018190526004908401527f736972650000000000000000000000000000000000000000000000000000000060a08401529051600160a060020a03909116917f32ff9bb61a22d1960c25c7cf2b477ca65904b653eb7efe7b931bdd181a9e0462919081900360c00190a2505050565b60126020526000908152604090205481565b6000818152600e6020526040812054819081908190600160a060020a031633146107e357600080fd5b60076107f686600163ffffffff61153e16565b8154811061080057fe5b600091825260208220600b600c90920201818101805460ff1916905560088101839055955061083687600163ffffffff61153e16565b8154811061084057fe5b6000918252602080832090910192909255600a86018190558681526011909152604090205460025490935061087c90600163ffffffff61153e16565b915060028281548110151561088d57fe5b906000526020600020015490506002828154811015156108a957fe5b90600052602060002001546002848154811015156108c357fe5b60009182526020808320909101929092558281526011909152604080822085905586825281205560028054906108fd906000198301611c4d565b505050505050565b60116020526000908152604090205481565b600080808080600160a060020a038716331461093257600080fd5b6000868152600e6020526040902054600160a060020a0389811691161461095857600080fd5b600761096b87600163ffffffff61153e16565b8154811061097557fe5b60009182526020909120600c90910201600b81015490955060ff1680156109a0575034856008015411155b15156109ab57600080fd5b600885018054600091829055600b8701805460ff19169055878252601160205260409091205460025491955093506109ea90600163ffffffff61153e16565b91506002828154811015156109fb57fe5b90600052602060002001549050600282815481101515610a1757fe5b9060005260206000200154600284815481101515610a3157fe5b6000918252602080832090910192909255828152601190915260408082208590558782528120556002805490610a6b906000198301611c4d565b50610a77888888611550565b86600160a060020a031688600160a060020a03167f9ed053bb818ff08b8353cd46f78db1f0799f31c9e4458fdb425c10eccd2efc448842604051808381526020018281526020019250505060405180910390a3604051600160a060020a0389169085156108fc029086906000818181858888f19350505050158015610b00573d6000803e3d6000fd5b505050505050505050565b606060038054806020026020016040519081016040528092919081815260200182805480156105ee57602002820191906000526020600020908154815260200190600101908083116105da575050505050905090565b6000908152600e6020526040902054600160a060020a031690565b600160a060020a03166000908152600f602052604090205490565b60106020526000908152604090205481565b6000828152600e6020526040812054600160a060020a03163314610bcc57600080fd5b6007610bdf84600163ffffffff61153e16565b81548110610be957fe5b60009182526020909120600c90910201600b81015490915060ff1615610c0e57600080fd5b60088101829055600b808201805460ff19166001908117909155600280548083019091557f405787fa12a823e0f2b7631cc41b3ba8828b3321ca811111fa75cd3aa3bb5ace8101869055600086815260116020526040902055839190610c7b90869063ffffffff61153e16565b81548110610c8557fe5b6000918252602080832090910192909255848152600e825260409081902054815185815292830186905242606084015260808383018190526004908401527f73616c650000000000000000000000000000000000000000000000000000000060a08401529051600160a060020a03909116917f32ff9bb61a22d1960c25c7cf2b477ca65904b653eb7efe7b931bdd181a9e0462919081900360c00190a2505050565b606060028054806020026020016040519081016040528092919081815260200182805480156105ee57602002820191906000526020600020908154815260200190600101908083116105da575050505050905090565b600054600160a060020a03163314610d9457600080fd5b610ded60008060008033610db7600160078054905061156990919063ffffffff16565b88888080601f0160208091040260200160405190810160405280939291908181526020018383808284375061157c945050505050565b5050565b600160a060020a0381166000908152600f6020908152604091829020805483518184028101840190945280845260609392830182828015610e5157602002820191906000526020600020905b815481526020019060010190808311610e3d575b50505050509050919050565b6007805482908110610e6b57fe5b90600052602060002090600c0201600091509050806000015490806001015490806002018054600181600116156101000203166002900480601f016020809104026020016040519081016040528092919081815260200182805460018160011615610100020316600290048015610f235780601f10610ef857610100808354040283529160200191610f23565b820191906000526020600020905b815481529060010190602001808311610f0657829003601f168201915b50505060038401546004850154600586015460068701546007880154600889015460098a0154600a8b0154600b909b0154999a96999598509396509194909391929160ff80821691610100810482169162010000909104168e565b60008085851415610f8e57600080fd5b6000868152600e6020526040902054600160a060020a03163314610fb157600080fd5b6007610fc487600163ffffffff61153e16565b81548110610fce57fe5b90600052602060002090600c020191506007610ff460018761153e90919063ffffffff16565b81548110610ffe57fe5b90600052602060002090600c02019050600182600601541015801561102857506001816006015410155b151561103357600080fd5b600b81015462010000900460ff168015611051575034816009015411155b151561105c57600080fd5b6006808301805460001990810190915590820180549091019055600182810154828201546007546108fd938a938a939092909133916110a09163ffffffff61156916565b8a8a8080601f0160208091040260200160405190810160405280939291908181526020018383808284375061157c945050505050565b606060088054806020026020016040519081016040528092919081815260200182805480156105ee57602002820191906000526020600020908154815260200190600101908083116105da575050505050905090565b6000808585141561113c57600080fd5b6000868152600e6020526040902054600160a060020a03163314801561117857506000858152600e6020526040902054600160a060020a031633145b151561118357600080fd5b600761119687600163ffffffff61153e16565b815481106111a057fe5b90600052602060002090600c0201915060076111c660018761153e90919063ffffffff16565b815481106111d057fe5b90600052602060002090600c020190506001826006015410158015611051575060068101546001111561105c57600080fd5b6060600c8054806020026020016040519081016040528092919081815260200182805480156105ee57602002820191906000526020600020908154815260200190600101908083116105da575050505050905090565b600f6020528160005260406000208181548110151561127357fe5b90600052602060002001600091509150505481565b60136020528160005260406000208181548110151561127357fe5b6060600b8054806020026020016040519081016040528092919081815260200182805480156105ee57602002820191906000526020600020908154815260200190600101908083116105da575050505050905090565b6060600a8054806020026020016040519081016040528092919081815260200182805480156105ee57602002820191906000526020600020908154815260200190600101908083116105da575050505050905090565b6000818152600e6020526040812054819081908190600160a060020a0316331461137857600080fd5b600761138b86600163ffffffff61153e16565b8154811061139557fe5b60009182526020808320600b600c90930201918201805462ff000019169055600982018390558783526012905260409091205460035491955093506113e190600163ffffffff61153e16565b91506003828154811015156113f257fe5b9060005260206000200154905060038281548110151561140e57fe5b906000526020600020015460038481548110151561142857fe5b6000918252602082200191909155600c61144987600163ffffffff61153e16565b8154811061145357fe5b60009182526020808320909101929092558281526012909152604080822085905586825281205560038054906108fd906000198301611c4d565b600054600160a060020a031633146114a457600080fd5b600160a060020a03811615156114b957600080fd5b6000805473ffffffffffffffffffffffffffffffffffffffff1916600160a060020a0392909216919091179055565b606060098054806020026020016040519081016040528092919081815260200182805480156105ee57602002820191906000526020600020908154815260200190600101908083116105da575050505050905090565b60008282111561154a57fe5b50900390565b61155a8382611a76565b6115648282611bc5565b505050565b8181018281101561157657fe5b92915050565b6000611586611c71565b600160a060020a038516151561159b57600080fd5b87891415806115b15750881580156115b1575087155b15156115bc57600080fd5b6115c68585611bc5565b600480546040517f8c38e9e700000000000000000000000000000000000000000000000000000000815291820189815260248301899052606060448401908152865160648501528651600160a060020a0390931693638c38e9e7938c938c938a939192909160840190602085019080838360005b8381101561165257818101518382015260200161163a565b50505050905090810190601f16801561167f5780820380516001836020036101000a031916815260200191505b50945050505050602060405180830381600087803b1580156116a057600080fd5b505af11580156116b4573d6000803e3d6000fd5b505050506040513d60208110156116ca57600080fd5b5051604080516101c0810182528681526020810183905290810185905260006060820152608081018b905260a081018a905290925060c081016b204fce5e3e250261100000006c01431e0fae6d7217caa00000008506046c01431e0fae6d7217caa00000006c0c9f2c9cd04674edea400000008606040181526020016c0c9f2c9cd04674edea400000006c7e37be2022c0914b26800000008506046c7e37be2022c0914b26800000006d04ee2d6d415b85acef8100000000860604018152600060208083018290526040808401839052606084018390526080840183905260a0840183905260c09093018290526007805460018101808355919093528451600c9093027fa66cc928b5edb82af9bd49922954155ab7b0942694bea4ce44661d9a8736c6888101938455858301517fa66cc928b5edb82af9bd49922954155ab7b0942694bea4ce44661d9a8736c68982015593850151805195965090948694611858937fa66cc928b5edb82af9bd49922954155ab7b0942694bea4ce44661d9a8736c68a909101920190611ce7565b50606082015160038201556080820151600482015560a0820151600582015560c0820151600682015560e0820151600782015561010080830151600880840191909155610120840151600980850191909155610140850151600a80860191909155610160860151600b95860180546101808901516101a09099015160ff199091169215159290921761ff0019169715159095029690961762ff00001916620100009615159690960295909517909255815460018181019093557f6e1540171b6c0c960b71a7020d9f60077f6af931a8bbf590da0223dacf75c7af01879055805480830190915560007ff3f7a9fe364faab93b216da50a3214154f22a0a2b415b23a84c8169e8b636ee390910181905582548083019093557f0175b7a638427703f0dbe7bb9bbf987a2551717b34e79f33b5b1008d1fa01db9909201829055600c80548083019091557fdf6966c971051c3d54ec59162606531493a51404a002842f56009d7e5cf4a8c701829055600d80548083019091557fd7b6990105719101dabeb77144f2a3385c8033acd3af97e9423a695e81ad1eb501829055825490810183559181527fc65a7bb8d6351c1cf70c95a316cc6a92839c986682d98bc35f958f4883f9d2a8909101819055604080518781524260208201528151600160a060020a038a1694507f9ed053bb818ff08b8353cd46f78db1f0799f31c9e4458fdb425c10eccd2efc44929181900390910190a3505050505050505050565b6000818152600e6020526040812054819081908190600160a060020a03878116911614611aa257600080fd5b600085815260106020908152604080832054600160a060020a038a168452600f90925290912080549195509093506000198401925082848110611ae157fe5b6000918252602080832090910154878352600e82526040808420805473ffffffffffffffffffffffffffffffffffffffff19169055600160a060020a038a168452600f90925291208054919250829186908110611b3a57fe5b6000918252602080832090910192909255600160a060020a0388168152600f90915260408120805484908110611b6c57fe5b6000918252602080832090910192909255600160a060020a0388168152600f90915260409020805490611ba3906000198301611c4d565b5060009485526010602052604080862086905590855290932091909155505050565b6000818152600e6020526040902054600160a060020a031615611be757600080fd5b6000818152600e602090815260408083208054600160a060020a0390961673ffffffffffffffffffffffffffffffffffffffff1990961686179055938252600f815283822080546001810182559083528183208101849055928252601090529190912055565b81548183558181111561156457600083815260209020611564918101908301611d65565b6101c06040519081016040528060008152602001600081526020016060815260200160008152602001600081526020016000815260200160008152602001600081526020016000815260200160008152602001600081526020016000151581526020016000151581526020016000151581525090565b828054600181600116156101000203166002900490600052602060002090601f016020900481019282601f10611d2857805160ff1916838001178555611d55565b82800160010185558215611d55579182015b82811115611d55578251825591602001919060010190611d3a565b50611d61929150611d65565b5090565b6105f691905b80821115611d615760008155600101611d6b5600a165627a7a7230582087f78c6ab71203a20cf5348a21a832fd1e02c62a09921fd25ab5aaf7bdad3ea20029",
  "source": "pragma solidity ^0.4.23;\n\nlibrary SafeMath{\n\n    function mul(uint a, uint b) internal pure returns(uint c){\n        if (a == 0){\n            return 0;\n        }\n        c = a * b;\n        assert(c / a == b);\n        return c;\n    }\n\n    function div(uint a, uint b) internal pure returns(uint){\n        return a / b;\n    }\n\n    function sub(uint a, uint b) internal pure returns (uint) {\n        assert(b <= a);\n        return a - b;\n    }\n\n    function add(uint a, uint b) internal pure returns (uint c) {\n        c = a + b;\n        assert(c >= a);\n        return c;\n    }\n}\n\ncontract Ownable{\n    address owner;\n    event OwnershipTransferred(address indexed previousOwner,address indexed newOwner);\n\n    constructor() public {\n        owner = msg.sender;\n    }\n\n    modifier onlyOwner(){\n        require(msg.sender == owner);\n        _;\n    }\n\n    function transferOwnership(address newOwner) external onlyOwner{\n        require(newOwner != address(0));\n        owner = newOwner;\n    }\n}\n\n//\n//contract ERC721{\n//    event Transfer(address indexed _from,address indexed _to,uint _tokenId);\n//    event Approval(address indexed _owner,address indexed _approved,uint _tokenId);\n//\n//    function balanceOf(address _owner) external view returns (uint _balance);\n//    function ownerOf(uint _tokenId) external view returns (address);\n//    function transfer(address _to,uint _tokenId) internal;\n//    //    function approve(address _to,uint _tokenId) external;\n//    function takeOwnership(address _from,address _to,uint _tokenId) external payable;\n//    //    function name() external view returns (string name);\n//    //    function symbol() external view returns (string symbol);\n//}\n\n\ncontract RaceFunctionInterface{\n    function generateWinnerIndex(bytes32 _nonce, uint _gene1, uint _gene2) external view returns(uint);\n    function horseStrengthBalance(uint _gene1,uint _gene2) external view returns(uint,uint);\n}\n\ncontract GeneFunctionInterface{\n    function generateGenes(uint,uint,string) external view returns(uint);\n    function generateReplaceGene(uint) external view returns(uint);\n}\n\n\ncontract LotteryInterface{\n    function trainTicketNum(address _user) external view returns(uint);\n    function dressUpTicketNum(address _user) external view returns(uint);\n    function shuffleDressUpTicketNum(address _user) external view returns(uint);\n    function trainLottery(address _user) external view returns(uint);\n    function dressUpLottery(address _user) external view returns(uint);\n    function shuffleDressUpLottery(address _user) external view returns(uint);\n    function giftHorseLottery(address _user) external view returns(uint);\n    function setTrainTicketPrice(uint) external;\n    function setDressUpTicketPrice(uint) external;\n    function setShuffleDressUpTicketPrice(uint) external;\n    function trainTicketPrice() external view returns(uint);\n    function dressUpTicketPrice() external view returns(uint);\n    function shuffleDressUpTicketPrice() external view returns(uint);\n    function buyTrainTicket(uint,address) external;\n    function buyShuffleDressUpTicket(uint, address) external;\n    function buyDressUpTicket(uint, address) external;\n    function doTrainLottery(address) external;\n    function doDressUpLottery(address) external;\n    function doShuffleDressUpLottery(address) external;\n    function doGiftHorseLottery(address) external;\n    function presentTrainTicket(address) external;\n    function presentDressUpTicket(address) external;\n    function presentShuffleDressUpTicket(address) external;\n    function trainHorse(address) external;\n    function dressUpHorse(address) external;\n    function shuffleDressUp(address) external;\n}\n\n\ncontract HorseGameBase is Ownable{\n    using SafeMath for uint256;\n\n\n    uint geneModulus = 10 ** 64; // length of genes\n    uint[] horsesOnSale; //horsesOnSale\n    uint[] horsesOnSireSale; //horsesOnSireSale\n\n    GeneFunctionInterface geneFunction;\n    RaceFunctionInterface raceFunction;\n    LotteryInterface lotteryFunction;\n    struct Horse{\n        uint horseId;\n        uint genes;\n        string name;\n        uint winCount;\n        uint papaId;\n        uint momId;\n        uint mateIndex;\n        uint raceIndex;\n        uint price;\n        uint sirePrice;\n        uint saleDuration;\n        bool isOnSale;\n        bool isOnAuction;\n        bool isOnSireSale;\n    }\n\n\n    Horse[] public horses;\n    uint[] horseWinCounts; //win count of a horse\n    uint[] horseGenes;\n    uint[] horseTotalPrize; //won total prize of a horse\n    uint[] horseOnSalePrices; // sale price of a horse\n    uint[] horseOnSirePrices; // sire price of a horse\n    uint[] horseOnMinBidPrices; // minimum win price of a horse\n\n\n    mapping(uint => address) public tokenOwner; // owner of a horse\n    mapping(address => uint[]) public ownedTokens; // ids of tokens that an address has\n    mapping(uint => uint) public ownedTokensIndex;//token index which\n    mapping(uint => uint) public tokenIdToOnSaleIndex; //token Id to onSaleIndex\n    mapping(uint => uint) public tokenIdToOnSireSaleIndex;\n    mapping(uint => uint[]) public raceIdToHorseIds;//raceIdId\n    mapping(uint => uint) public raceIdToDeposit; //ETH\n\n    event HorseOnSale(address indexed _from,uint _price, uint _tokenId, string _type, uint _now);\n    event Transfer(address indexed _from,address indexed _to,uint256 _tokenId, uint _now);\n    event ApplyRace(address indexed _owner,uint _raceId,uint _horseId,uint _now);\n    event BetRace(address indexed _voter,uint _betValue, uint _raceId, uint _horseId, uint _now);\n    event HostRace(address indexed _host, uint _deposit, uint _minWinnerPrize, uint _raceId, uint _now);\n    event GiftHorseLottery(address indexed _from, uint _tokenId);\n\n    function getWinCountsArray() external view returns(uint[]){\n        return horseWinCounts;\n    }\n\n    function getTotalPrizeArray() external view returns(uint[]){\n        return horseTotalPrize;\n    }\n\n    function getOnSalePricesArray() external view returns(uint[]){\n        return horseOnSalePrices;\n    }\n\n    function getOnSirePricesArray() external view returns(uint[]){\n        return horseOnSirePrices;\n    }\n\n    function getOnMinBidPricesArray() external view returns(uint[]){\n        return horseOnMinBidPrices;\n    }\n\n    function getHorseGenesArray() external view returns(uint[]){\n        return horseGenes;\n    }\n\n    //balance of owner\n    function balanceOf(address _owner) external view returns (uint){\n        return ownedTokens[_owner].length;\n    }\n    //owner of a token\n    function ownerOf(uint256 _tokenId) external view returns (address){\n        return tokenOwner[_tokenId];\n    }\n\n    function onSaleHorses() external view returns(uint[]){\n        return horsesOnSale;\n    }\n\n\n    function onSireSaleHorses() external view returns(uint[]){\n        return horsesOnSireSale;\n    }\n\n    function ownedTokensIds(address _owner) external view returns(uint[]){\n        return ownedTokens[_owner];\n    }\n\n    function transfer(address _from,address _to,uint256 _tokenId) internal {\n        //remove and add\n        _removeToken(_from,_tokenId);\n        _addToken(_to,_tokenId);\n    }\n\n    function _removeToken(address _from,uint256 _tokenId) private {\n        require(tokenOwner[_tokenId] == _from);\n\n        uint tokenIndex = ownedTokensIndex[_tokenId];\n        uint ownedTokenNum = ownedTokens[_from].length;\n        uint lastTokenIndex = ownedTokenNum - 1;\n        uint lastToken = ownedTokens[_from][lastTokenIndex];\n\n        tokenOwner[_tokenId] = 0;\n        ownedTokens[_from][tokenIndex] = lastToken;\n        ownedTokens[_from][lastTokenIndex] = 0;\n\n        ownedTokens[_from].length--;\n        ownedTokensIndex[_tokenId] = 0;\n        ownedTokensIndex[lastToken] = tokenIndex;\n    }\n\n    function _addToken(address _to,uint256 _tokenId) private{\n        require(tokenOwner[_tokenId] == address(0));\n        tokenOwner[_tokenId] = _to;\n        ownedTokensIndex[_tokenId] = ownedTokens[_to].push(_tokenId) - 1;\n    }\n\n    function mateHorses(uint _papaId, uint _mamaId, string _name) external {\n        require(_papaId != _mamaId);\n        require(tokenOwner[_papaId] == msg.sender && tokenOwner[_mamaId] == msg.sender);\n        Horse storage papa = horses[_papaId.sub(1)];\n        Horse storage mama = horses[_mamaId.sub(1)];\n        require(papa.mateIndex >= 1 && mama.mateIndex >= 1);\n        papa.mateIndex -= 1;\n        mama.mateIndex -= 1;\n        _mint(_papaId,_mamaId,papa.genes,mama.genes,msg.sender, horses.length.add(1),_name);\n    }\n\n    function sireHorseWithOnSaleHorse(uint _myTokenId,uint _saleTokenId,string _name) external payable{\n        require(_myTokenId != _saleTokenId);\n        require(tokenOwner[_myTokenId] == msg.sender);\n        Horse storage myHorse = horses[_myTokenId.sub(1)];\n        Horse storage saleHorse = horses[_saleTokenId.sub(1)];\n        require(myHorse.mateIndex >= 1 && saleHorse.mateIndex >= 1);\n        require(saleHorse.isOnSireSale && saleHorse.sirePrice <= msg.value);\n        myHorse.mateIndex -= 1;\n        saleHorse.mateIndex -= 1;\n        _mint(_myTokenId,_saleTokenId,myHorse.genes,saleHorse.genes,msg.sender,horses.length.add(1),_name);\n    }\n\n    function takeOwnership(address _from,address _to,uint256 _tokenId) external payable{\n        require(_to == msg.sender);\n        require(_from == tokenOwner[_tokenId]);\n        Horse storage horse = horses[_tokenId.sub(1)];\n        require(horse.isOnSale && horse.price <= msg.value);\n        uint price = horse.price;\n        horse.price = 0;\n        horse.isOnSale = false;\n        uint onSaleIndex = tokenIdToOnSaleIndex[_tokenId];\n        uint lastIndex = horsesOnSale.length.sub(1);\n        uint lastToken = horsesOnSale[lastIndex];\n\n        horsesOnSale[onSaleIndex] = horsesOnSale[lastIndex];\n        tokenIdToOnSaleIndex[lastToken] = onSaleIndex;\n        delete tokenIdToOnSaleIndex[_tokenId];\n        horsesOnSale.length--;\n        transfer(_from,_to,_tokenId);\n        emit Transfer(_from,_to,_tokenId, now);\n        _from.transfer(price);\n    }\n\n    function horseTokenToOnSale(uint _tokenId,uint _price) external{\n        require(tokenOwner[_tokenId] == msg.sender);\n        Horse storage horse = horses[_tokenId.sub(1)];\n        require(!horse.isOnSale);\n        horse.price = _price;\n        horse.isOnSale = true;\n        tokenIdToOnSaleIndex[_tokenId] = horsesOnSale.push(_tokenId) - 1;\n        horseOnSalePrices[_tokenId.sub(1)] = _price;\n        emit HorseOnSale(tokenOwner[_tokenId], _price,_tokenId, \"sale\", now);\n    }\n\n    function horseTokenToNotOnSale(uint _tokenId) external{\n        require(tokenOwner[_tokenId] == msg.sender);\n        Horse storage horse = horses[_tokenId.sub(1)];\n        horse.isOnSale = false;\n        horse.price = 0;\n        horseOnSalePrices[_tokenId.sub(1)] = 0;\n        horse.saleDuration = 0;\n\n        uint onSaleIndex = tokenIdToOnSaleIndex[_tokenId];\n        uint lastIndex = horsesOnSale.length.sub(1);\n        uint lastToken = horsesOnSale[lastIndex];\n\n        horsesOnSale[onSaleIndex] = horsesOnSale[lastIndex];\n        tokenIdToOnSaleIndex[lastToken] = onSaleIndex;\n        delete tokenIdToOnSaleIndex[_tokenId];\n        horsesOnSale.length--;\n    }\n\n    function horseTokenToNotOnSireSale(uint _tokenId) external{\n        require(tokenOwner[_tokenId] == msg.sender);\n        Horse storage horse = horses[_tokenId.sub(1)];\n        horse.isOnSireSale = false;\n        horse.sirePrice = 0;\n\n        uint onSireIndex = tokenIdToOnSireSaleIndex[_tokenId];\n        uint lastIndex = horsesOnSireSale.length.sub(1);\n        uint lastToken = horsesOnSireSale[lastIndex];\n\n        horsesOnSireSale[onSireIndex] = horsesOnSireSale[lastIndex];\n        horseOnSirePrices[_tokenId.sub(1)] = 0;\n        tokenIdToOnSireSaleIndex[lastToken] = onSireIndex;\n        delete tokenIdToOnSireSaleIndex[_tokenId];\n        horsesOnSireSale.length--;\n    }\n\n    function horseTokenToOnSireSale(uint _tokenId, uint _price) external{\n        require(tokenOwner[_tokenId.sub(1)] == msg.sender);\n        Horse storage horse = horses[_tokenId.sub(1)];\n        horse.sirePrice = _price;\n        horse.isOnSireSale = true;\n        tokenIdToOnSireSaleIndex[_tokenId] = horsesOnSireSale.push(_tokenId) - 1;\n        horseOnSirePrices[_tokenId.sub(1)] = _price;\n        emit HorseOnSale(tokenOwner[_tokenId],_price, _tokenId, \"sire\", now);\n    }\n\n\n    function _mint(\n        uint256 _papaId,\n        uint256 _momId,\n        uint256 _maleGenes,\n        uint256 _femaleGenes,\n        address _to,\n        uint256 _tokenId,\n        string _name\n    )\n    private\n    {\n        require(_to != address(0));\n        require(_papaId != _momId || (_papaId == 0 && _momId == 0));\n        _addToken(_to,_tokenId);\n        uint newGene = geneFunction.generateGenes(_maleGenes,_femaleGenes,_name);\n        Horse memory newHorse = Horse({\n            horseId:_tokenId,\n            genes:newGene,\n            name:_name,\n            winCount: 0,\n            papaId:_papaId,\n            momId:_momId,\n            mateIndex:(newGene % (10 ** 30) / (10 ** 29)) + (newGene % (10 ** 29) / (10 ** 28)),\n            raceIndex:(newGene % (10 ** 32) / (10 ** 31)) + (newGene % (10 ** 31) / (10 ** 30)),\n            price: 0,\n            saleDuration: 0,\n            sirePrice: 0,\n            isOnSale: false,\n            isOnSireSale: false,\n            isOnAuction: false\n            });\n        horses.push(newHorse);\n        horseGenes.push(newGene);\n        horseWinCounts.push(0);\n        horseOnSalePrices.push(0);\n        horseOnSirePrices.push(0);\n        horseOnMinBidPrices.push(0);\n        horseTotalPrize.push(0);\n        //from  0x0\n        emit Transfer(0x0,_to,_tokenId, now);\n    }\n\n    function createHorseToken(string _name) external onlyOwner{\n        _mint(0,0,0,0,msg.sender,horses.length.add(1),_name);\n    }\n\n    function() public payable{}\n}\n\n\ncontract HorseBet is HorseGameBase{\n    struct RaceParticipant{\n        uint betHorseId;\n        uint betPrice;\n        uint expectedReturn;\n    }\n\n    struct Race{\n        uint raceId;\n        address host;\n        uint horseOne;\n        uint horseTwo;\n        bytes32 nonce;\n        string raceName;\n        uint minWinnerPrize;\n        uint winnerPrizeFromBet;\n        mapping(address => RaceParticipant) participantInfo;\n        mapping(uint => uint) horseIdToBetRate;\n        mapping(uint => uint) horseIdToBetAmount;\n        uint winnerHorseId;\n        uint deposit;\n        uint totalBet;\n        bool isWanted;\n        bool isChecked;\n        bool isBetting;\n    }\n\n    Race[] public races;\n    bool[] public wantedRaces;\n    bool[] public bettingRaces;\n    bool[] public checkedRaces;\n    mapping (address => uint[]) public mapUserToRaceIds;\n    mapping (uint => uint) public raceStartTime;\n\n\n    modifier hostOnly(uint _raceId,address _sender){\n        Race storage race = races[_raceId.sub(1)];\n        require(race.host == _sender);\n        _;\n    }\n\n\n    function checkRaceResult(uint _raceId) external {\n        Race storage race = races[_raceId.sub(1)];\n        require(!race.isChecked && raceStartTime[_raceId] < now);\n        Horse storage horse1 = horses[race.horseOne.sub(1)];\n        Horse storage horse2 = horses[race.horseTwo.sub(1)];\n        uint winnerIndex = raceFunction.generateWinnerIndex(\n            race.nonce,horse1.genes,horse2.genes\n        );\n        uint winnerId;\n        if(winnerIndex == 0){\n            race.winnerHorseId = race.horseOne;\n            winnerId = race.horseOne;\n        }else if(winnerIndex == 1){\n            race.winnerHorseId = race.horseTwo;\n            winnerId = race.horseTwo;\n        }\n        race.isChecked = true;\n        checkedRaces[_raceId.sub(1)] = true;\n        bettingRaces[_raceId.sub(1)] = false;\n        uint hostPayback =\n        race.deposit + race.totalBet - race.minWinnerPrize - race.totalBet * race.winnerPrizeFromBet / 100 - race.horseIdToBetAmount[winnerId] * race.horseIdToBetRate[winnerId] / 100;\n        race.host.transfer(hostPayback);\n    }\n\n    function decideBetRate(uint _raceId,uint _rate1,uint _rate2) external hostOnly(_raceId,msg.sender){\n        Race storage race = races[_raceId.sub(1)];\n        require(!race.isBetting && race.horseOne != 0 && race.horseTwo != 0);\n        race.horseIdToBetRate[race.horseOne] = _rate1;\n        race.horseIdToBetRate[race.horseTwo] = _rate2;\n        race.isBetting = true;\n        bettingRaces[_raceId.sub(1)] = true;\n        raceStartTime[_raceId] = now + 5 minutes;\n    }\n\n    function withdrawPayback(uint _raceId) external{\n        Race storage race = races[_raceId.sub(1)];\n        require(race.participantInfo[msg.sender].betHorseId == race.winnerHorseId);\n        require(race.isChecked == true);\n        uint payback = race.participantInfo[msg.sender].expectedReturn;\n        race.participantInfo[msg.sender].expectedReturn = 0;\n        msg.sender.transfer(payback);\n    }\n\n    function withdrawPrize(uint _raceId) external{\n        Race storage race = races[_raceId.sub(1)];\n        require(race.isChecked);\n        require(msg.sender == tokenOwner[race.winnerHorseId]);\n        Horse storage horse = horses[race.winnerHorseId.sub(1)];\n        uint prize = race.minWinnerPrize + race.totalBet * race.winnerPrizeFromBet / 100;\n        race.minWinnerPrize = 0;\n        race.winnerPrizeFromBet = 0;\n        horseTotalPrize[race.winnerHorseId.sub(1)] = horseTotalPrize[race.winnerHorseId.sub(1)].add(prize);\n        horseWinCounts[race.winnerHorseId.sub(1)] = horseWinCounts[race.winnerHorseId.sub(1)].add(1);\n        horse.winCount = horse.winCount.add(1);\n        msg.sender.transfer(prize);\n    }\n\n    function myBetInfo(uint _raceId) external view returns(uint,uint,uint){\n        Race storage race = races[_raceId.sub(1)];\n        RaceParticipant memory person = race.participantInfo[msg.sender];\n        return(person.betHorseId,person.betPrice,person.expectedReturn);\n    }\n\n    function getRaceStrengthInfo(uint _raceId) external view hostOnly(_raceId,msg.sender) returns(uint,uint){\n        Race storage race = races[_raceId.sub(1)];\n        require(race.horseOne != 0 && race.horseTwo != 0);\n        return raceFunction.horseStrengthBalance(horses[race.horseOne.sub(1)].genes,horses[race.horseTwo.sub(1)].genes);\n    }\n\n    function bettingInfo(uint _raceId) external view returns(uint,uint,uint,uint,uint,uint){\n        Race storage race = races[_raceId.sub(1)];\n        require(race.horseOne != 0 && race.horseTwo != 0);\n        uint paybackMax = race.totalBet * (100 - race.winnerPrizeFromBet) / 100 + (race.deposit - race.minWinnerPrize);\n        uint max1 = ((paybackMax - (race.horseIdToBetAmount[race.horseOne] * race.horseIdToBetRate[race.horseOne] / 100)) / race.horseIdToBetRate[race.horseOne]) * 100;\n        uint max2 = ((paybackMax - (race.horseIdToBetAmount[race.horseTwo] * race.horseIdToBetRate[race.horseTwo] / 100)) / race.horseIdToBetRate[race.horseTwo]) * 100;\n        return (max1,race.horseIdToBetAmount[race.horseOne],race.horseIdToBetRate[race.horseOne],max2,race.horseIdToBetAmount[race.horseTwo],race.horseIdToBetRate[race.horseTwo]);\n    }\n\n    function betRace(uint _raceId, uint _horseId, uint _secret) external payable{\n        require(race.participantInfo[msg.sender].betPrice == 0);\n        Race storage race = races[_raceId.sub(1)];\n        require(race.isBetting && !race.isChecked);\n        RaceParticipant memory person = RaceParticipant({\n            betHorseId: _horseId,\n            betPrice: msg.value,\n            expectedReturn: (race.horseIdToBetRate[_horseId] * msg.value) / 100\n            });\n\n        race.participantInfo[msg.sender] = person;\n        uint _nonce = uint(race.nonce)^_secret;\n        race.nonce = keccak256(abi.encodePacked(_nonce));\n        race.horseIdToBetAmount[_horseId] += msg.value;\n        emit BetRace(msg.sender,msg.value,_raceId,_horseId,now);\n    }\n\n    function getOdds(uint _raceId) external view returns(uint,uint){\n        Race storage race = races[_raceId.sub(1)];\n        return(race.horseIdToBetRate[race.horseOne],race.horseIdToBetRate[race.horseTwo]);\n    }\n\n    function showParticipantInfo(uint _raceId) external view returns(uint,uint,uint) {\n        Race storage race = races[_raceId.sub(1)];\n        RaceParticipant storage participantInfo = race.participantInfo[msg.sender];\n        return(\n        participantInfo.betHorseId,\n        participantInfo.betPrice,\n        participantInfo.expectedReturn\n        );\n    }\n\n    function hostRace(string _raceName,uint _minWinnerPrize, uint _winnerPrizeFromBet) external payable{\n        require(msg.value > _minWinnerPrize);\n        Race memory race =  Race({\n            raceId: races.length.add(1),\n            host: msg.sender,\n            horseOne: 0,\n            horseTwo: 0,\n            nonce: bytes32(0),\n            raceName: _raceName,\n            minWinnerPrize: _minWinnerPrize,\n            winnerHorseId: 0,\n            winnerPrizeFromBet: _winnerPrizeFromBet,\n            deposit: msg.value,\n            totalBet: 0,\n            isWanted: true,\n            isChecked: false,\n            isBetting: false\n            });\n        mapUserToRaceIds[msg.sender].push(races.length.add(1));\n        races.push(race);\n        wantedRaces.push(true);\n        bettingRaces.push(false);\n        checkedRaces.push(false);\n        emit HostRace(msg.sender, msg.value, _minWinnerPrize, races.length, now);\n    }\n\n    function applyRace(uint _raceId, uint _horseId) external{\n        require(tokenOwner[_horseId] == msg.sender);\n        Race storage race = races[_raceId.sub(1)];\n        require(race.horseOne == 0 || race.horseTwo == 0);\n        require(race.horseOne != _horseId && race.horseTwo != _horseId);\n        Horse storage horse = horses[_horseId.sub(1)];\n        horse.raceIndex = horse.raceIndex.sub(1);\n        if(race.horseOne == 0){\n            race.horseOne = _horseId;\n        }else{\n            race.horseTwo = _horseId;\n            wantedRaces[_raceId.sub(1)] = false;\n        }\n        emit ApplyRace(tokenOwner[_horseId], _raceId, _horseId, now);\n    }\n\n    function getRaceIds() external view returns(uint){\n        return races.length;\n    }\n\n    function getWantedRaces() external view returns(bool[]){\n        return wantedRaces;\n    }\n\n    function getBettingRaces() external view returns(bool[]){\n        return bettingRaces;\n    }\n\n    function getCheckedRaces() external view returns(bool[]){\n        return checkedRaces;\n    }\n\n    function getMyRaces() external view returns(uint[]){\n        return mapUserToRaceIds[msg.sender];\n    }\n\n}\n\n\n//contract HorseBid is HorseBet{\n//\n//    struct Bid{\n//        uint horseId;\n//        uint closeTime;\n//        uint minPrice;\n//        uint currentMax;\n//        address currentMaxUser;\n//        address host;\n//        mapping(address => uint) participantsToBidPrice;\n//        bool isClosed;\n//    }\n//    uint[] horsesOnBid; //horsesOnSale\n//    mapping(uint => uint) public tokenIdToBidIndex; //token Id to BidIndex\n//\n//    mapping(uint => Bid) tokenIdToAuction;\n//    mapping(uint => address[]) tokenIdToAuctionParticipants;\n//\n//    function horseTokenNotToAuction(uint _tokenId) public{\n//        Horse storage horse = horses[_tokenId.sub(1)];\n//        require(horse.isOnAuction);\n//        require(tokenOwner[_tokenId] == msg.sender);\n//        delete tokenIdToAuction[_tokenId];\n//        uint onBidIndex = tokenIdToBidIndex[_tokenId];\n//        uint lastIndex = horsesOnBid.length.sub(1);\n//        uint lastToken = horsesOnBid[lastIndex];\n//\n//        horsesOnBid[onBidIndex] = horsesOnBid[lastIndex];\n//        horseOnMinBidPrices[_tokenId.sub(1)] = 0;\n//        tokenIdToBidIndex[lastToken] = onBidIndex;\n//        delete tokenIdToBidIndex[_tokenId];\n//        horsesOnBid.length--;\n//        horse.isOnAuction = false;\n//    }\n//\n//    function horseTokenToAuction(uint _tokenId, uint _minPrice, uint _duration) external{\n//        Horse storage horse = horses[_tokenId.sub(1)];\n//        Bid memory bid = Bid({\n//            horseId: _tokenId,\n//            closeTime: now + _duration,\n//            minPrice: _minPrice,\n//            currentMax: 0,\n//            currentMaxUser: msg.sender,\n//            host: msg.sender,\n//            isClosed: false\n//            });\n//        if(horse.isOnSale){\n//            horseTokenNotToAuction(_tokenId);\n//            horseOnSalePrices[_tokenId.sub(1)] = 0;\n//        }\n//        horse.isOnAuction = true;\n//        horseOnMinBidPrices[_tokenId.sub(1)] = _minPrice;\n//        tokenIdToAuction[_tokenId] = bid;\n//        tokenIdToBidIndex[_tokenId] = horsesOnBid.push(_tokenId).sub(1);\n//        emit HorseOnSale(msg.sender,_minPrice,_tokenId,\"auction\", now);\n//    }\n//\n//    function changeAuctionStatus(uint _addTime,uint _price, uint _tokenId) external{\n//        Horse storage horse = horses[_tokenId.sub(1)];\n//        require(horse.isOnAuction);\n//        Bid storage bid = tokenIdToAuction[_tokenId];\n//        require(!bid.isClosed);\n//        require(bid.horseId == _tokenId);\n//        require(tokenIdToAuctionParticipants[_tokenId].length == 0);\n//        bid.minPrice = _price;\n//        bid.closeTime += _addTime;\n//    }\n//\n//\n//    function applyBid(uint _tokenId) external payable{\n//        Horse storage horse = horses[_tokenId.sub(1)];\n//        require(horse.isOnAuction);\n//        Bid storage bid = tokenIdToAuction[_tokenId];\n//        require(!bid.isClosed);\n//        require(bid.minPrice <= msg.value);\n//        require(bid.host != msg.sender);\n//        tokenIdToAuctionParticipants[_tokenId].push(msg.sender);\n//        bid.participantsToBidPrice[msg.sender] += msg.value;\n//        if(bid.currentMax < bid.participantsToBidPrice[msg.sender]){\n//            bid.currentMax = bid.participantsToBidPrice[msg.sender];\n//            bid.currentMaxUser = msg.sender;\n//        }\n//    }\n//\n//    function withdrawBid(uint _tokenId) external {\n//        Horse storage horse = horses[_tokenId.sub(1)];\n//        horse.isOnAuction = false;\n//        Bid storage bid = tokenIdToAuction[_tokenId];\n//        require(bid.isClosed);\n//        address sender;\n//        uint payback;\n//        if(msg.sender == bid.currentMaxUser){\n//            transfer(bid.host,msg.sender,_tokenId);\n//            emit Transfer(bid.host,msg.sender,_tokenId, now);\n//        }else if(msg.sender == bid.host){\n//            payback = bid.currentMax;\n//            bid.currentMax = 0;\n//            bid.host.transfer(payback);\n//        }else{\n//            for(uint i=0;i<tokenIdToAuctionParticipants[_tokenId].length;i++){\n//                if(msg.sender == tokenIdToAuctionParticipants[_tokenId][i]){\n//                    sender = msg.sender;\n//                    payback = bid.participantsToBidPrice[sender];\n//                    bid.participantsToBidPrice[sender] = 0;\n//                }\n//            }\n//            sender.transfer(payback);\n//        }\n//    }\n//}\n\ncontract HorseGame is HorseBet{\n    function setLotteryFunction(address _lotteryAddress) external onlyOwner{\n      lotteryFunction = LotteryInterface(_lotteryAddress);\n    }\n\n    function setGeneFunction(address _geneAddress) external onlyOwner{\n      geneFunction = GeneFunctionInterface(_geneAddress);\n    }\n\n    function setRaceFunction(address _raceAddress) external onlyOwner{ \n      raceFunction = RaceFunctionInterface(_raceAddress);\n    }\n\n    function setTrainTicketPrice(uint _price) external onlyOwner{\n        lotteryFunction.setTrainTicketPrice(_price);\n    }\n\n    function setDressUpTicketPrice(uint _price) external onlyOwner{\n        lotteryFunction.setDressUpTicketPrice(_price);\n    }\n\n    function setShuffleDressUpTicketPrice(uint _price) external onlyOwner{\n        lotteryFunction.setShuffleDressUpTicketPrice(_price);\n    }\n\n    function buyTrainTicket() external payable{\n        require(msg.value >= lotteryFunction.trainTicketPrice());\n        lotteryFunction.buyTrainTicket(msg.value,msg.sender);\n    }\n\n    function buyShuffleDressUpTicket() external payable{\n        require(msg.value >= lotteryFunction.shuffleDressUpTicketPrice());\n        lotteryFunction.buyShuffleDressUpTicket(msg.value,msg.sender);\n    }\n\n    function buyDressUpTicket() external payable{\n        require(msg.value >= lotteryFunction.dressUpTicketPrice());\n        lotteryFunction.buyDressUpTicket(msg.value,msg.sender);\n    }\n\n    function trainTicketNum() external view returns(uint){\n        return lotteryFunction.trainTicketNum(msg.sender);\n    }\n\n    function dressUpTicketNum() external view returns(uint){\n      return lotteryFunction.dressUpTicketNum(msg.sender);\n    }\n\n    function shuffleDressUpTicketNum() external view returns(uint){\n      return lotteryFunction.shuffleDressUpTicketNum(msg.sender);\n    }\n\n    function shuffleDressUpTexture(uint _horseId, uint _nonce) external{\n        require(tokenOwner[_horseId] == msg.sender);\n        require(lotteryFunction.shuffleDressUpTicketNum(msg.sender) > 0);\n        lotteryFunction.shuffleDressUp(msg.sender);\n        Horse storage horse = horses[_horseId.sub(1)];\n        uint gene = horse.genes;\n        uint geneEnd = gene % (10 ** 20);\n        uint geneMiddle = gene % (10 ** 38);\n        uint fakeGene = geneFunction.generateReplaceGene(_nonce);\n        uint replaceGeneEnd = replaceGene % (10 ** 20);\n        uint replaceGene = fakeGene % (10 ** 38) - replaceGeneEnd;\n        horse.genes = gene - geneMiddle + replaceGene + geneEnd;\n    }\n\n    function dressUpTexture(uint _horseId, uint _index, uint _num) external{\n        require(tokenOwner[_horseId] == msg.sender);\n        require(lotteryFunction.dressUpTicketNum(msg.sender) > 0);\n        lotteryFunction.dressUpHorse(msg.sender);\n        Horse storage horse = horses[_horseId.sub(1)];\n        uint gene = horse.genes;\n        uint geneEnd = gene % (10 ** _index);\n        uint geneMiddle = gene % (10 ** (_index + 3));\n        uint replaceGene = _num ** _index;\n        horse.genes = gene - geneMiddle + replaceGene + geneEnd;\n    }\n\n    function trainHorse(uint _horseId) external {\n        require(tokenOwner[_horseId] == msg.sender);\n        require(lotteryFunction.trainTicketNum(msg.sender) > 0);\n        lotteryFunction.trainHorse(msg.sender);\n        Horse storage horse = horses[_horseId.sub(1)];\n        uint gene = horse.genes;\n        uint up = 0;\n        for(uint i=1; i<=5; i++){\n            uint info = gene % ((1000 ** i));\n            if(info < 9 * (1000 ** i / 10)){ up = up.add((1000 ** i / 100) * 5);}\n        }\n        horse.genes = horse.genes.add(up);\n        horseGenes[_horseId.sub(1)] = horse.genes;\n    }\n\n    function doTrainLottery() external{\n        lotteryFunction.doTrainLottery(msg.sender);\n    }\n\n    function doDressUpLottery() external{\n        lotteryFunction.doDressUpLottery(msg.sender);\n    }\n\n    function doShuffleDressUpLottery() external{\n        lotteryFunction.doShuffleDressUpLottery(msg.sender);\n    }\n\n    function doGiftHorseLottery() external{\n        lotteryFunction.doGiftHorseLottery(msg.sender);\n    }\n\n    function presentTrainTicket(address _user) external onlyOwner{\n        lotteryFunction.presentTrainTicket(_user);\n    }\n\n    function presentDressUpTicket(address _user) external onlyOwner{\n        lotteryFunction.presentDressUpTicket(_user);\n    }\n\n    function presentShuffleDressUpTicket(address _user) external onlyOwner{\n        lotteryFunction.presentShuffleDressUpTicket(_user);\n    }\n\n    function presentHorse(uint _tokenId, address _to) external onlyOwner{\n        transfer(msg.sender,_to,_tokenId);\n        emit GiftHorseLottery(msg.sender,_tokenId);\n    }\n\n    function trainTicketPrice() external view returns(uint){\n      return lotteryFunction.trainTicketPrice();\n    }\n\n    function dressUpTicketPrice() external view returns(uint){\n      return lotteryFunction.dressUpTicketPrice();\n    }\n\n    function shuffleDressUpTicketPrice() external view returns(uint){\n      return lotteryFunction.shuffleDressUpTicketPrice();\n    }\n\n    function dressUpLottery() external view returns(uint){\n      return lotteryFunction.dressUpLottery(msg.sender);\n    }\n\n    function trainLottery() external view returns(uint){\n        return lotteryFunction.trainLottery(msg.sender);\n    }\n\n    function shuffleDressUpLottery() external view returns(uint){\n        return lotteryFunction.shuffleDressUpLottery(msg.sender);\n    }\n\n    function giftHorseLottery() external view returns(uint){\n        return lotteryFunction.giftHorseLottery(msg.sender);\n    }\n}\n\n",
  "sourcePath": "/Users/yamamotojirou/Desktop/EthHorse/horseGame-ver2/contracts/HorseGame.sol",
  "compiler": {
    "name": "solc",
    "version": "0.4.24+commit.e67f0147.Emscripten.clang"
  },
  "schemaVersion": "2.0.1",
  "updatedAt": "2018-07-14T13:22:54.668Z"
}