{
  "contractName": "HorseGame",
  "abi": [
    {
      "constant": true,
      "inputs": [],
      "name": "getOnMinBidPricesArray",
      "outputs": [
        {
          "name": "",
          "type": "uint256[]"
        }
      ],
      "payable": false,
      "stateMutability": "view",
      "type": "function"
    },
    {
      "constant": true,
      "inputs": [],
      "name": "getRaceIds",
      "outputs": [
        {
          "name": "",
          "type": "uint256"
        }
      ],
      "payable": false,
      "stateMutability": "view",
      "type": "function"
    },
    {
      "constant": true,
      "inputs": [
        {
          "name": "",
          "type": "address"
        },
        {
          "name": "",
          "type": "uint256"
        }
      ],
      "name": "mapUserToRaceIds",
      "outputs": [
        {
          "name": "",
          "type": "uint256"
        }
      ],
      "payable": false,
      "stateMutability": "view",
      "type": "function"
    },
    {
      "constant": true,
      "inputs": [
        {
          "name": "",
          "type": "uint256"
        }
      ],
      "name": "raceIdToDeposit",
      "outputs": [
        {
          "name": "",
          "type": "uint256"
        }
      ],
      "payable": false,
      "stateMutability": "view",
      "type": "function"
    },
    {
      "constant": true,
      "inputs": [
        {
          "name": "_raceId",
          "type": "uint256"
        }
      ],
      "name": "getOdds",
      "outputs": [
        {
          "name": "",
          "type": "uint256"
        },
        {
          "name": "",
          "type": "uint256"
        }
      ],
      "payable": false,
      "stateMutability": "view",
      "type": "function"
    },
    {
      "constant": true,
      "inputs": [
        {
          "name": "",
          "type": "uint256"
        }
      ],
      "name": "tokenOwner",
      "outputs": [
        {
          "name": "",
          "type": "address"
        }
      ],
      "payable": false,
      "stateMutability": "view",
      "type": "function"
    },
    {
      "constant": false,
      "inputs": [
        {
          "name": "_tokenId",
          "type": "uint256"
        },
        {
          "name": "_price",
          "type": "uint256"
        }
      ],
      "name": "horseTokenToOnSireSale",
      "outputs": [],
      "payable": false,
      "stateMutability": "nonpayable",
      "type": "function"
    },
    {
      "constant": true,
      "inputs": [
        {
          "name": "_raceId",
          "type": "uint256"
        }
      ],
      "name": "bettingInfo",
      "outputs": [
        {
          "name": "",
          "type": "uint256"
        },
        {
          "name": "",
          "type": "uint256"
        },
        {
          "name": "",
          "type": "uint256"
        },
        {
          "name": "",
          "type": "uint256"
        },
        {
          "name": "",
          "type": "uint256"
        },
        {
          "name": "",
          "type": "uint256"
        }
      ],
      "payable": false,
      "stateMutability": "view",
      "type": "function"
    },
    {
      "constant": true,
      "inputs": [
        {
          "name": "",
          "type": "uint256"
        }
      ],
      "name": "tokenIdToOnSireSaleIndex",
      "outputs": [
        {
          "name": "",
          "type": "uint256"
        }
      ],
      "payable": false,
      "stateMutability": "view",
      "type": "function"
    },
    {
      "constant": true,
      "inputs": [],
      "name": "getBettingRaces",
      "outputs": [
        {
          "name": "",
          "type": "bool[]"
        }
      ],
      "payable": false,
      "stateMutability": "view",
      "type": "function"
    },
    {
      "constant": false,
      "inputs": [
        {
          "name": "_tokenId",
          "type": "uint256"
        }
      ],
      "name": "horseTokenToNotOnSale",
      "outputs": [],
      "payable": false,
      "stateMutability": "nonpayable",
      "type": "function"
    },
    {
      "constant": true,
      "inputs": [
        {
          "name": "",
          "type": "uint256"
        }
      ],
      "name": "tokenIdToOnSaleIndex",
      "outputs": [
        {
          "name": "",
          "type": "uint256"
        }
      ],
      "payable": false,
      "stateMutability": "view",
      "type": "function"
    },
    {
      "constant": false,
      "inputs": [
        {
          "name": "_from",
          "type": "address"
        },
        {
          "name": "_to",
          "type": "address"
        },
        {
          "name": "_tokenId",
          "type": "uint256"
        }
      ],
      "name": "takeOwnership",
      "outputs": [],
      "payable": true,
      "stateMutability": "payable",
      "type": "function"
    },
    {
      "constant": true,
      "inputs": [],
      "name": "onSireSaleHorses",
      "outputs": [
        {
          "name": "",
          "type": "uint256[]"
        }
      ],
      "payable": false,
      "stateMutability": "view",
      "type": "function"
    },
    {
      "constant": true,
      "inputs": [
        {
          "name": "_tokenId",
          "type": "uint256"
        }
      ],
      "name": "ownerOf",
      "outputs": [
        {
          "name": "",
          "type": "address"
        }
      ],
      "payable": false,
      "stateMutability": "view",
      "type": "function"
    },
    {
      "constant": true,
      "inputs": [
        {
          "name": "_raceId",
          "type": "uint256"
        }
      ],
      "name": "getRaceStrengthInfo",
      "outputs": [
        {
          "name": "",
          "type": "uint256"
        },
        {
          "name": "",
          "type": "uint256"
        }
      ],
      "payable": false,
      "stateMutability": "view",
      "type": "function"
    },
    {
      "constant": true,
      "inputs": [
        {
          "name": "_owner",
          "type": "address"
        }
      ],
      "name": "balanceOf",
      "outputs": [
        {
          "name": "",
          "type": "uint256"
        }
      ],
      "payable": false,
      "stateMutability": "view",
      "type": "function"
    },
    {
      "constant": false,
      "inputs": [
        {
          "name": "_raceId",
          "type": "uint256"
        }
      ],
      "name": "withdrawPayback",
      "outputs": [],
      "payable": false,
      "stateMutability": "nonpayable",
      "type": "function"
    },
    {
      "constant": true,
      "inputs": [
        {
          "name": "",
          "type": "uint256"
        }
      ],
      "name": "ownedTokensIndex",
      "outputs": [
        {
          "name": "",
          "type": "uint256"
        }
      ],
      "payable": false,
      "stateMutability": "view",
      "type": "function"
    },
    {
      "constant": false,
      "inputs": [
        {
          "name": "_tokenId",
          "type": "uint256"
        },
        {
          "name": "_price",
          "type": "uint256"
        }
      ],
      "name": "horseTokenToOnSale",
      "outputs": [],
      "payable": false,
      "stateMutability": "nonpayable",
      "type": "function"
    },
    {
      "constant": true,
      "inputs": [],
      "name": "onSaleHorses",
      "outputs": [
        {
          "name": "",
          "type": "uint256[]"
        }
      ],
      "payable": false,
      "stateMutability": "view",
      "type": "function"
    },
    {
      "constant": false,
      "inputs": [
        {
          "name": "_name",
          "type": "string"
        }
      ],
      "name": "createHorseToken",
      "outputs": [],
      "payable": false,
      "stateMutability": "nonpayable",
      "type": "function"
    },
    {
      "constant": true,
      "inputs": [
        {
          "name": "",
          "type": "uint256"
        }
      ],
      "name": "races",
      "outputs": [
        {
          "name": "raceId",
          "type": "uint256"
        },
        {
          "name": "host",
          "type": "address"
        },
        {
          "name": "horseOne",
          "type": "uint256"
        },
        {
          "name": "horseTwo",
          "type": "uint256"
        },
        {
          "name": "nonce",
          "type": "bytes32"
        },
        {
          "name": "raceName",
          "type": "string"
        },
        {
          "name": "minWinnerPrize",
          "type": "uint256"
        },
        {
          "name": "winnerPrizeFromBet",
          "type": "uint256"
        },
        {
          "name": "winnerHorseId",
          "type": "uint256"
        },
        {
          "name": "deposit",
          "type": "uint256"
        },
        {
          "name": "totalBet",
          "type": "uint256"
        },
        {
          "name": "isWanted",
          "type": "bool"
        },
        {
          "name": "isChecked",
          "type": "bool"
        },
        {
          "name": "isBetting",
          "type": "bool"
        }
      ],
      "payable": false,
      "stateMutability": "view",
      "type": "function"
    },
    {
      "constant": false,
      "inputs": [
        {
          "name": "_raceId",
          "type": "uint256"
        },
        {
          "name": "_rate1",
          "type": "uint256"
        },
        {
          "name": "_rate2",
          "type": "uint256"
        }
      ],
      "name": "decideBetRate",
      "outputs": [],
      "payable": false,
      "stateMutability": "nonpayable",
      "type": "function"
    },
    {
      "constant": true,
      "inputs": [
        {
          "name": "_owner",
          "type": "address"
        }
      ],
      "name": "ownedTokensIds",
      "outputs": [
        {
          "name": "",
          "type": "uint256[]"
        }
      ],
      "payable": false,
      "stateMutability": "view",
      "type": "function"
    },
    {
      "constant": true,
      "inputs": [
        {
          "name": "",
          "type": "uint256"
        }
      ],
      "name": "horses",
      "outputs": [
        {
          "name": "horseId",
          "type": "uint256"
        },
        {
          "name": "genes",
          "type": "uint256"
        },
        {
          "name": "name",
          "type": "string"
        },
        {
          "name": "winCount",
          "type": "uint256"
        },
        {
          "name": "papaId",
          "type": "uint256"
        },
        {
          "name": "momId",
          "type": "uint256"
        },
        {
          "name": "mateIndex",
          "type": "uint256"
        },
        {
          "name": "raceIndex",
          "type": "uint256"
        },
        {
          "name": "price",
          "type": "uint256"
        },
        {
          "name": "sirePrice",
          "type": "uint256"
        },
        {
          "name": "saleDuration",
          "type": "uint256"
        },
        {
          "name": "isOnSale",
          "type": "bool"
        },
        {
          "name": "isOnAuction",
          "type": "bool"
        },
        {
          "name": "isOnSireSale",
          "type": "bool"
        }
      ],
      "payable": false,
      "stateMutability": "view",
      "type": "function"
    },
    {
      "constant": false,
      "inputs": [
        {
          "name": "_myTokenId",
          "type": "uint256"
        },
        {
          "name": "_saleTokenId",
          "type": "uint256"
        },
        {
          "name": "_name",
          "type": "string"
        }
      ],
      "name": "sireHorseWithOnSaleHorse",
      "outputs": [],
      "payable": true,
      "stateMutability": "payable",
      "type": "function"
    },
    {
      "constant": true,
      "inputs": [],
      "name": "getWinCountsArray",
      "outputs": [
        {
          "name": "",
          "type": "uint256[]"
        }
      ],
      "payable": false,
      "stateMutability": "view",
      "type": "function"
    },
    {
      "constant": true,
      "inputs": [],
      "name": "getCheckedRaces",
      "outputs": [
        {
          "name": "",
          "type": "bool[]"
        }
      ],
      "payable": false,
      "stateMutability": "view",
      "type": "function"
    },
    {
      "constant": false,
      "inputs": [
        {
          "name": "_raceId",
          "type": "uint256"
        }
      ],
      "name": "checkRaceResult",
      "outputs": [],
      "payable": false,
      "stateMutability": "nonpayable",
      "type": "function"
    },
    {
      "constant": true,
      "inputs": [
        {
          "name": "",
          "type": "uint256"
        }
      ],
      "name": "raceStartTime",
      "outputs": [
        {
          "name": "",
          "type": "uint256"
        }
      ],
      "payable": false,
      "stateMutability": "view",
      "type": "function"
    },
    {
      "constant": false,
      "inputs": [
        {
          "name": "_papaId",
          "type": "uint256"
        },
        {
          "name": "_mamaId",
          "type": "uint256"
        },
        {
          "name": "_name",
          "type": "string"
        }
      ],
      "name": "mateHorses",
      "outputs": [],
      "payable": false,
      "stateMutability": "nonpayable",
      "type": "function"
    },
    {
      "constant": true,
      "inputs": [
        {
          "name": "_raceId",
          "type": "uint256"
        }
      ],
      "name": "showParticipantInfo",
      "outputs": [
        {
          "name": "",
          "type": "uint256"
        },
        {
          "name": "",
          "type": "uint256"
        },
        {
          "name": "",
          "type": "uint256"
        }
      ],
      "payable": false,
      "stateMutability": "view",
      "type": "function"
    },
    {
      "constant": false,
      "inputs": [
        {
          "name": "_raceId",
          "type": "uint256"
        },
        {
          "name": "_horseId",
          "type": "uint256"
        },
        {
          "name": "_secret",
          "type": "uint256"
        }
      ],
      "name": "betRace",
      "outputs": [],
      "payable": true,
      "stateMutability": "payable",
      "type": "function"
    },
    {
      "constant": true,
      "inputs": [
        {
          "name": "",
          "type": "uint256"
        }
      ],
      "name": "wantedRaces",
      "outputs": [
        {
          "name": "",
          "type": "bool"
        }
      ],
      "payable": false,
      "stateMutability": "view",
      "type": "function"
    },
    {
      "constant": false,
      "inputs": [
        {
          "name": "_raceId",
          "type": "uint256"
        },
        {
          "name": "_horseId",
          "type": "uint256"
        }
      ],
      "name": "applyRace",
      "outputs": [],
      "payable": false,
      "stateMutability": "nonpayable",
      "type": "function"
    },
    {
      "constant": false,
      "inputs": [
        {
          "name": "_raceId",
          "type": "uint256"
        }
      ],
      "name": "withdrawPrize",
      "outputs": [],
      "payable": false,
      "stateMutability": "nonpayable",
      "type": "function"
    },
    {
      "constant": true,
      "inputs": [],
      "name": "getOnSirePricesArray",
      "outputs": [
        {
          "name": "",
          "type": "uint256[]"
        }
      ],
      "payable": false,
      "stateMutability": "view",
      "type": "function"
    },
    {
      "constant": true,
      "inputs": [
        {
          "name": "",
          "type": "address"
        },
        {
          "name": "",
          "type": "uint256"
        }
      ],
      "name": "ownedTokens",
      "outputs": [
        {
          "name": "",
          "type": "uint256"
        }
      ],
      "payable": false,
      "stateMutability": "view",
      "type": "function"
    },
    {
      "constant": true,
      "inputs": [
        {
          "name": "",
          "type": "uint256"
        },
        {
          "name": "",
          "type": "uint256"
        }
      ],
      "name": "raceIdToHorseIds",
      "outputs": [
        {
          "name": "",
          "type": "uint256"
        }
      ],
      "payable": false,
      "stateMutability": "view",
      "type": "function"
    },
    {
      "constant": true,
      "inputs": [
        {
          "name": "",
          "type": "uint256"
        }
      ],
      "name": "bettingRaces",
      "outputs": [
        {
          "name": "",
          "type": "bool"
        }
      ],
      "payable": false,
      "stateMutability": "view",
      "type": "function"
    },
    {
      "constant": true,
      "inputs": [],
      "name": "getOnSalePricesArray",
      "outputs": [
        {
          "name": "",
          "type": "uint256[]"
        }
      ],
      "payable": false,
      "stateMutability": "view",
      "type": "function"
    },
    {
      "constant": false,
      "inputs": [
        {
          "name": "_raceName",
          "type": "string"
        },
        {
          "name": "_minWinnerPrize",
          "type": "uint256"
        },
        {
          "name": "_winnerPrizeFromBet",
          "type": "uint256"
        }
      ],
      "name": "hostRace",
      "outputs": [],
      "payable": true,
      "stateMutability": "payable",
      "type": "function"
    },
    {
      "constant": true,
      "inputs": [],
      "name": "getMyRaces",
      "outputs": [
        {
          "name": "",
          "type": "uint256[]"
        }
      ],
      "payable": false,
      "stateMutability": "view",
      "type": "function"
    },
    {
      "constant": true,
      "inputs": [],
      "name": "getTotalPrizeArray",
      "outputs": [
        {
          "name": "",
          "type": "uint256[]"
        }
      ],
      "payable": false,
      "stateMutability": "view",
      "type": "function"
    },
    {
      "constant": true,
      "inputs": [
        {
          "name": "",
          "type": "uint256"
        }
      ],
      "name": "checkedRaces",
      "outputs": [
        {
          "name": "",
          "type": "bool"
        }
      ],
      "payable": false,
      "stateMutability": "view",
      "type": "function"
    },
    {
      "constant": false,
      "inputs": [
        {
          "name": "_tokenId",
          "type": "uint256"
        }
      ],
      "name": "horseTokenToNotOnSireSale",
      "outputs": [],
      "payable": false,
      "stateMutability": "nonpayable",
      "type": "function"
    },
    {
      "constant": false,
      "inputs": [
        {
          "name": "newOwner",
          "type": "address"
        }
      ],
      "name": "transferOwnership",
      "outputs": [],
      "payable": false,
      "stateMutability": "nonpayable",
      "type": "function"
    },
    {
      "constant": true,
      "inputs": [
        {
          "name": "_raceId",
          "type": "uint256"
        }
      ],
      "name": "myBetInfo",
      "outputs": [
        {
          "name": "",
          "type": "uint256"
        },
        {
          "name": "",
          "type": "uint256"
        },
        {
          "name": "",
          "type": "uint256"
        }
      ],
      "payable": false,
      "stateMutability": "view",
      "type": "function"
    },
    {
      "constant": true,
      "inputs": [],
      "name": "getHorseGenesArray",
      "outputs": [
        {
          "name": "",
          "type": "uint256[]"
        }
      ],
      "payable": false,
      "stateMutability": "view",
      "type": "function"
    },
    {
      "constant": true,
      "inputs": [],
      "name": "getWantedRaces",
      "outputs": [
        {
          "name": "",
          "type": "bool[]"
        }
      ],
      "payable": false,
      "stateMutability": "view",
      "type": "function"
    },
    {
      "inputs": [
        {
          "name": "_geneInterface",
          "type": "address"
        },
        {
          "name": "_raceFunctionInterface",
          "type": "address"
        },
        {
          "name": "_lotteryFunctionInterface",
          "type": "address"
        }
      ],
      "payable": false,
      "stateMutability": "nonpayable",
      "type": "constructor"
    },
    {
      "payable": true,
      "stateMutability": "payable",
      "type": "fallback"
    },
    {
      "anonymous": false,
      "inputs": [
        {
          "indexed": true,
          "name": "_from",
          "type": "address"
        },
        {
          "indexed": false,
          "name": "_price",
          "type": "uint256"
        },
        {
          "indexed": false,
          "name": "_tokenId",
          "type": "uint256"
        },
        {
          "indexed": false,
          "name": "_type",
          "type": "string"
        },
        {
          "indexed": false,
          "name": "_now",
          "type": "uint256"
        }
      ],
      "name": "HorseOnSale",
      "type": "event"
    },
    {
      "anonymous": false,
      "inputs": [
        {
          "indexed": true,
          "name": "_from",
          "type": "address"
        },
        {
          "indexed": true,
          "name": "_to",
          "type": "address"
        },
        {
          "indexed": false,
          "name": "_tokenId",
          "type": "uint256"
        },
        {
          "indexed": false,
          "name": "_now",
          "type": "uint256"
        }
      ],
      "name": "Transfer",
      "type": "event"
    },
    {
      "anonymous": false,
      "inputs": [
        {
          "indexed": true,
          "name": "_owner",
          "type": "address"
        },
        {
          "indexed": false,
          "name": "_raceId",
          "type": "uint256"
        },
        {
          "indexed": false,
          "name": "_horseId",
          "type": "uint256"
        },
        {
          "indexed": false,
          "name": "_now",
          "type": "uint256"
        }
      ],
      "name": "ApplyRace",
      "type": "event"
    },
    {
      "anonymous": false,
      "inputs": [
        {
          "indexed": true,
          "name": "_voter",
          "type": "address"
        },
        {
          "indexed": false,
          "name": "_betValue",
          "type": "uint256"
        },
        {
          "indexed": false,
          "name": "_raceId",
          "type": "uint256"
        },
        {
          "indexed": false,
          "name": "_horseId",
          "type": "uint256"
        },
        {
          "indexed": false,
          "name": "_now",
          "type": "uint256"
        }
      ],
      "name": "BetRace",
      "type": "event"
    },
    {
      "anonymous": false,
      "inputs": [
        {
          "indexed": true,
          "name": "_host",
          "type": "address"
        },
        {
          "indexed": false,
          "name": "_deposit",
          "type": "uint256"
        },
        {
          "indexed": false,
          "name": "_minWinnerPrize",
          "type": "uint256"
        },
        {
          "indexed": false,
          "name": "_raceId",
          "type": "uint256"
        },
        {
          "indexed": false,
          "name": "_now",
          "type": "uint256"
        }
      ],
      "name": "HostRace",
      "type": "event"
    },
    {
      "anonymous": false,
      "inputs": [
        {
          "indexed": true,
          "name": "_from",
          "type": "address"
        },
        {
          "indexed": false,
          "name": "_tokenId",
          "type": "uint256"
        }
      ],
      "name": "GiftHorseLottery",
      "type": "event"
    },
    {
      "anonymous": false,
      "inputs": [
        {
          "indexed": true,
          "name": "previousOwner",
          "type": "address"
        },
        {
          "indexed": true,
          "name": "newOwner",
          "type": "address"
        }
      ],
      "name": "OwnershipTransferred",
      "type": "event"
    },
    {
      "constant": false,
      "inputs": [
        {
          "name": "_price",
          "type": "uint256"
        }
      ],
      "name": "setTrainTicketPrice",
      "outputs": [],
      "payable": false,
      "stateMutability": "nonpayable",
      "type": "function"
    },
    {
      "constant": false,
      "inputs": [
        {
          "name": "_price",
          "type": "uint256"
        }
      ],
      "name": "setDressUpTicketPrice",
      "outputs": [],
      "payable": false,
      "stateMutability": "nonpayable",
      "type": "function"
    },
    {
      "constant": false,
      "inputs": [
        {
          "name": "_price",
          "type": "uint256"
        }
      ],
      "name": "setShuffleDressUpTicketPrice",
      "outputs": [],
      "payable": false,
      "stateMutability": "nonpayable",
      "type": "function"
    },
    {
      "constant": false,
      "inputs": [],
      "name": "buyTrainTicket",
      "outputs": [],
      "payable": true,
      "stateMutability": "payable",
      "type": "function"
    },
    {
      "constant": false,
      "inputs": [],
      "name": "buyShuffleDressUpTicket",
      "outputs": [],
      "payable": true,
      "stateMutability": "payable",
      "type": "function"
    },
    {
      "constant": false,
      "inputs": [],
      "name": "buyDressUpTicket",
      "outputs": [],
      "payable": true,
      "stateMutability": "payable",
      "type": "function"
    },
    {
      "constant": true,
      "inputs": [],
      "name": "trainTicketNum",
      "outputs": [
        {
          "name": "",
          "type": "uint256"
        }
      ],
      "payable": false,
      "stateMutability": "view",
      "type": "function"
    },
    {
      "constant": true,
      "inputs": [],
      "name": "dressUpTicketNum",
      "outputs": [
        {
          "name": "",
          "type": "uint256"
        }
      ],
      "payable": false,
      "stateMutability": "view",
      "type": "function"
    },
    {
      "constant": true,
      "inputs": [],
      "name": "shuffleDressUpTicketNum",
      "outputs": [
        {
          "name": "",
          "type": "uint256"
        }
      ],
      "payable": false,
      "stateMutability": "view",
      "type": "function"
    },
    {
      "constant": false,
      "inputs": [
        {
          "name": "_horseId",
          "type": "uint256"
        },
        {
          "name": "_nonce",
          "type": "uint256"
        }
      ],
      "name": "shuffleDressUpTexture",
      "outputs": [],
      "payable": false,
      "stateMutability": "nonpayable",
      "type": "function"
    },
    {
      "constant": false,
      "inputs": [
        {
          "name": "_horseId",
          "type": "uint256"
        },
        {
          "name": "_index",
          "type": "uint256"
        },
        {
          "name": "_num",
          "type": "uint256"
        }
      ],
      "name": "dressUpTexture",
      "outputs": [],
      "payable": false,
      "stateMutability": "nonpayable",
      "type": "function"
    },
    {
      "constant": false,
      "inputs": [
        {
          "name": "_horseId",
          "type": "uint256"
        }
      ],
      "name": "trainHorse",
      "outputs": [],
      "payable": false,
      "stateMutability": "nonpayable",
      "type": "function"
    },
    {
      "constant": false,
      "inputs": [],
      "name": "doTrainLottery",
      "outputs": [],
      "payable": false,
      "stateMutability": "nonpayable",
      "type": "function"
    },
    {
      "constant": false,
      "inputs": [],
      "name": "doDressUpLottery",
      "outputs": [],
      "payable": false,
      "stateMutability": "nonpayable",
      "type": "function"
    },
    {
      "constant": false,
      "inputs": [],
      "name": "doShuffleDressUpLottery",
      "outputs": [],
      "payable": false,
      "stateMutability": "nonpayable",
      "type": "function"
    },
    {
      "constant": false,
      "inputs": [],
      "name": "doGiftHorseLottery",
      "outputs": [],
      "payable": false,
      "stateMutability": "nonpayable",
      "type": "function"
    },
    {
      "constant": false,
      "inputs": [
        {
          "name": "_user",
          "type": "address"
        }
      ],
      "name": "presentTrainTicket",
      "outputs": [],
      "payable": false,
      "stateMutability": "nonpayable",
      "type": "function"
    },
    {
      "constant": false,
      "inputs": [
        {
          "name": "_user",
          "type": "address"
        }
      ],
      "name": "presentDressUpTicket",
      "outputs": [],
      "payable": false,
      "stateMutability": "nonpayable",
      "type": "function"
    },
    {
      "constant": false,
      "inputs": [
        {
          "name": "_user",
          "type": "address"
        }
      ],
      "name": "presentShuffleDressUpTicket",
      "outputs": [],
      "payable": false,
      "stateMutability": "nonpayable",
      "type": "function"
    },
    {
      "constant": false,
      "inputs": [
        {
          "name": "_tokenId",
          "type": "uint256"
        },
        {
          "name": "_to",
          "type": "address"
        }
      ],
      "name": "presentHorse",
      "outputs": [],
      "payable": false,
      "stateMutability": "nonpayable",
      "type": "function"
    },
    {
      "constant": true,
      "inputs": [],
      "name": "trainTicketPrice",
      "outputs": [
        {
          "name": "",
          "type": "uint256"
        }
      ],
      "payable": false,
      "stateMutability": "view",
      "type": "function"
    },
    {
      "constant": true,
      "inputs": [],
      "name": "dressUpTicketPrice",
      "outputs": [
        {
          "name": "",
          "type": "uint256"
        }
      ],
      "payable": false,
      "stateMutability": "view",
      "type": "function"
    },
    {
      "constant": true,
      "inputs": [],
      "name": "shuffleDressUpTicketPrice",
      "outputs": [
        {
          "name": "",
          "type": "uint256"
        }
      ],
      "payable": false,
      "stateMutability": "view",
      "type": "function"
    }
  ],
  "bytecode": "0x60806040527a184f03e93ff9f4daa797ed6e38ed64bf6a1f01000000000000000060015534801561002f57600080fd5b50604051606080614ca78339810160409081528151602083015191909201516000805433600160a060020a0319918216178255600480548216600160a060020a03968716179055600580548216948616949094179093556006805490931693909116929092179055614c009081906100a790396000f30060806040526004361061034a5763ffffffff60e060020a60003504166309b412ca811461034c5780630ba3aa341461036a5780630c2cd078146103cf5780630da7dd17146103f65780630e3681b51461040e5780630e69804a146104325780630fccf96c1461043a5780631144c24d1461045e578063126c416614610476578063166501d0146104a75780631caaa487146104af5780631dd7dbc3146104e35780631ec46217146104fe57806330e20ca9146105495780633400240f1461055e5780633de1a9181461057657806349907d671461058b5780634c85b556146105a357806355e54232146105bb578063587e21e5146105d85780635aa03b7e146105ed5780635ab78aa914610602578063622f6b7d14610617578063626f0a191461062f5780636352211e146106445780636843bff91461065c5780636fe3d0491461067457806370a082311461068c578063731c80f1146106ad57806374e24367146106c557806376afd6fa146106dd57806377747720146106f857806377c01d791461070d5780637bbc469e1461072d578063815e76351461083e5780638610218a1461085357806388fe307a1461086b5780638b8bd9f6146108895780638f04a697146108aa5780638f8b5cde146108c55780639405e61814610973578063943fb70414610988578063948aa22e1461099d578063959ca12d146109b85780639942b330146109d95780639a00ab3a146109ee5780639ae2d9b2146109f6578063a0e4560114610a0b578063a107e40314610a23578063a44227d114610a3b578063a531f23c14610a63578063aa483e1214610a99578063b0e2229814610aaa578063b347819314610ad6578063c20eec7b14610af1578063c7e5c90e14610b09578063c874cf5d14610b1e578063d23ac19914610b3f578063e149f03614610b54578063e3eaae6414610b78578063e4dc80cd14610b93578063e516295714610bab578063e7c3310214610bc0578063eafca42c14610bd5578063eba91ec814610bef578063ebc6312314610c04578063ee16324414610c19578063efea4cad14610c3a578063f0c9c51914610c52578063f184617514610c67578063f2fde38b14610c7f578063f6b067e314610ca0578063fc849ac214610cb8578063fde8524514610ccd575b005b34801561035857600080fd5b5061034a600435602435604435610ce2565b34801561037657600080fd5b5061037f610e98565b60408051602080825283518183015283519192839290830191858101910280838360005b838110156103bb5781810151838201526020016103a3565b505050509050019250505060405180910390f35b3480156103db57600080fd5b506103e4610ef1565b60408051918252519081900360200190f35b34801561040257600080fd5b5061034a600435610ef7565b34801561041a57600080fd5b5061034a600435600160a060020a0360243516610f8f565b61034a610feb565b34801561044657600080fd5b506103e4600160a060020a03600435166024356110fb565b34801561046a57600080fd5b506103e460043561112b565b34801561048257600080fd5b5061048e60043561113d565b6040805192835260208301919091528051918290030190f35b61034a61119a565b3480156104bb57600080fd5b506104c760043561128a565b60408051600160a060020a039092168252519081900360200190f35b3480156104ef57600080fd5b5061034a6004356024356112a5565b34801561050a57600080fd5b50610516600435611427565b604080519687526020870195909552858501939093526060850191909152608084015260a0830152519081900360c00190f35b34801561055557600080fd5b506103e461157c565b34801561056a57600080fd5b506103e4600435611612565b34801561058257600080fd5b5061037f611624565b34801561059757600080fd5b5061034a60043561169b565b3480156105af57600080fd5b506103e46004356117e6565b61034a600160a060020a03600435811690602435166044356117f8565b3480156105e457600080fd5b5061034a6119ec565b3480156105f957600080fd5b5061034a611a51565b34801561060e57600080fd5b506103e4611ab6565b34801561062357600080fd5b5061034a600435611b1b565b34801561063b57600080fd5b5061037f611b98565b34801561065057600080fd5b506104c7600435611bee565b34801561066857600080fd5b5061048e600435611c09565b34801561068057600080fd5b5061034a600435611dac565b34801561069857600080fd5b506103e4600160a060020a0360043516611e29565b3480156106b957600080fd5b5061034a600435611e44565b3480156106d157600080fd5b506103e4600435611efa565b3480156106e957600080fd5b5061034a600435602435611f0c565b34801561070457600080fd5b5061037f61208a565b34801561071957600080fd5b5061034a60048035602481019101356120e0565b34801561073957600080fd5b50610745600435612154565b604051808f81526020018e600160a060020a0316600160a060020a031681526020018d81526020018c81526020018b60001916600019168152602001806020018a815260200189815260200188815260200187815260200186815260200185151515158152602001841515151581526020018315151515815260200182810382528b818151815260200191508051906020019080838360005b838110156107f65781810151838201526020016107de565b50505050905090810190601f1680156108235780820380516001836020036101000a031916815260200191505b509f5050505050505050505050505050505060405180910390f35b34801561084a57600080fd5b506103e461226f565b34801561085f57600080fd5b5061034a6004356122ce565b34801561087757600080fd5b5061034a6004356024356044356124f0565b34801561089557600080fd5b5061037f600160a060020a036004351661264e565b3480156108b657600080fd5b5061034a6004356024356126ba565b3480156108d157600080fd5b506108dd600435612937565b604051808f81526020018e8152602001806020018d81526020018c81526020018b81526020018a815260200189815260200188815260200187815260200186815260200185151515158152602001841515151581526020018315151515815260200182810382528e81815181526020019150805190602001908083836000838110156107f65781810151838201526020016107de565b34801561097f57600080fd5b506103e4612a58565b34801561099457600080fd5b506103e4612abd565b61034a60048035906024803591604435918201910135612b1c565b3480156109c457600080fd5b5061034a600160a060020a0360043516612c74565b3480156109e557600080fd5b5061037f612cf2565b61034a612d48565b348015610a0257600080fd5b5061037f612e38565b348015610a1757600080fd5b5061034a600435612e94565b348015610a2f57600080fd5b506103e4600435613198565b348015610a4757600080fd5b5061034a600480359060248035916044359182019101356131aa565b348015610a6f57600080fd5b50610a7b600435613280565b60408051938452602084019290925282820152519081900360600190f35b61034a6004356024356044356132dd565b348015610ab657600080fd5b50610ac26004356134a2565b604080519115158252519081900360200190f35b348015610ae257600080fd5b5061034a6004356024356134d4565b348015610afd57600080fd5b5061034a60043561367b565b348015610b1557600080fd5b5061037f61385f565b348015610b2a57600080fd5b5061034a600160a060020a03600435166138b5565b348015610b4b57600080fd5b506103e4613933565b348015610b6057600080fd5b506103e4600160a060020a0360043516602435613992565b348015610b8457600080fd5b506103e46004356024356139ad565b348015610b9f57600080fd5b50610ac26004356139c8565b348015610bb757600080fd5b5061034a6139d6565b348015610bcc57600080fd5b5061037f613a3b565b61034a602460048035828101929101359035604435613a91565b348015610bfb57600080fd5b5061037f613e81565b348015610c1057600080fd5b5061037f613ee0565b348015610c2557600080fd5b5061034a600160a060020a0360043516613f36565b348015610c4657600080fd5b50610ac2600435613fb4565b348015610c5e57600080fd5b5061034a613fc2565b348015610c7357600080fd5b5061034a600435614027565b348015610c8b57600080fd5b5061034a600160a060020a0360043516614165565b348015610cac57600080fd5b50610a7b6004356141c0565b348015610cc457600080fd5b5061037f61423d565b348015610cd957600080fd5b5061037f614293565b6000838152600e60205260408120548190819081908190600160a060020a03163314610d0d57600080fd5b600654604080517f478a78a50000000000000000000000000000000000000000000000000000000081523360048201529051600092600160a060020a03169163478a78a591602480830192602092919082900301818787803b158015610d7257600080fd5b505af1158015610d86573d6000803e3d6000fd5b505050506040513d6020811015610d9c57600080fd5b505111610da857600080fd5b600654604080517f135280220000000000000000000000000000000000000000000000000000000081523360048201529051600160a060020a039092169163135280229160248082019260009290919082900301818387803b158015610e0d57600080fd5b505af1158015610e21573d6000803e3d6000fd5b505050506007610e3b60018a6142ef90919063ffffffff16565b81548110610e4557fe5b90600052602060002090600c020194508460010154935086600a0a84811515610e6a57fe5b06925086600301600a0a84811515610e7e57fe5b069093039590940a94909401909301600190910155505050565b6060600d805480602002602001604051908101604052809291908181526020018280548015610ee657602002820191906000526020600020905b815481526020019060010190808311610ed2575b505050505090505b90565b60155490565b600054600160a060020a03163314610f0e57600080fd5b600654604080517f0da7dd17000000000000000000000000000000000000000000000000000000008152600481018490529051600160a060020a0390921691630da7dd179160248082019260009290919082900301818387803b158015610f7457600080fd5b505af1158015610f88573d6000803e3d6000fd5b5050505050565b600054600160a060020a03163314610fa657600080fd5b610fb1338284614301565b60408051838152905133917f336489adf502898b71807b76c6e11e2b7fed29cfea79af88178d5228b7d79eed919081900360200190a25050565b600660009054906101000a9004600160a060020a0316600160a060020a031663943fb7046040518163ffffffff1660e060020a028152600401602060405180830381600087803b15801561103e57600080fd5b505af1158015611052573d6000803e3d6000fd5b505050506040513d602081101561106857600080fd5b505134101561107657600080fd5b600654604080517fc311ae000000000000000000000000000000000000000000000000000000000081523460048201523360248201529051600160a060020a039092169163c311ae009160448082019260009290919082900301818387803b1580156110e157600080fd5b505af11580156110f5573d6000803e3d6000fd5b50505050565b60196020528160005260406000208181548110151561111657fe5b90600052602060002001600091509150505481565b60146020526000908152604090205481565b60008080601561115485600163ffffffff6142ef16565b8154811061115e57fe5b600091825260208083206002600f9093020191820154835260098201905260408083205460038301548452922054919450909250905050915091565b600660009054906101000a9004600160a060020a0316600160a060020a031663815e76356040518163ffffffff1660e060020a028152600401602060405180830381600087803b1580156111ed57600080fd5b505af1158015611201573d6000803e3d6000fd5b505050506040513d602081101561121757600080fd5b505134101561122557600080fd5b600654604080517f9f4ec8f50000000000000000000000000000000000000000000000000000000081523460048201529051600160a060020a0390921691639f4ec8f59160248082019260009290919082900301818387803b1580156110e157600080fd5b600e60205260009081526040902054600160a060020a031681565b600033600e826112bc86600163ffffffff6142ef16565b8152602081019190915260400160002054600160a060020a0316146112e057600080fd5b60076112f384600163ffffffff6142ef16565b815481106112fd57fe5b60009182526020808320600c9283020160098101869055600b810180546201000062ff0000199091161790556003805460018181019092557fc2575a0e9e593c00f959f8c92f12db2869c3395a3b0502d05e2516446f71f85b810189905588865260129093526040909420919091559250839161137b9086906142ef565b8154811061138557fe5b6000918252602080832090910192909255848152600e825260409081902054815185815292830186905242606084015260808383018190526004908401527f736972650000000000000000000000000000000000000000000000000000000060a08401529051600160a060020a03909116917f32ff9bb61a22d1960c25c7cf2b477ca65904b653eb7efe7b931bdd181a9e0462919081900360c00190a2505050565b600080808080808080808060156114458c600163ffffffff6142ef16565b8154811061144f57fe5b90600052602060002090600f0201935083600201546000141580156114775750600384015415155b151561148257600080fd5b836006015484600c0154036064856007015460640386600d0154028115156114a657fe5b60028701546000908152600988016020908152604080832054600a8b01909252909120549290910492909201945060649082020484038115156114e557fe5b60038601546000908152600987016020908152604080832054600a8a0190925290912054606493909204830294509190820204840381151561152357fe5b60028601546000908152600a8701602081815260408084205460098b01808452828620546003909c01548652938352818520549390925290922054959f919e50969c509190046064029950939750909550919350505050565b600654604080517f478a78a50000000000000000000000000000000000000000000000000000000081523360048201529051600092600160a060020a03169163478a78a591602480830192602092919082900301818787803b1580156115e157600080fd5b505af11580156115f5573d6000803e3d6000fd5b505050506040513d602081101561160b57600080fd5b5051905090565b60126020526000908152604090205481565b60606017805480602002602001604051908101604052809291908181526020018280548015610ee657602002820191906000526020600020906000905b825461010083900a900460ff1615158152602060019283018181049485019490930390920291018084116116615790505050505050905090565b6000818152600e6020526040812054819081908190600160a060020a031633146116c457600080fd5b60076116d786600163ffffffff6142ef16565b815481106116e157fe5b600091825260208220600b600c90920201818101805460ff1916905560088101839055955061171787600163ffffffff6142ef16565b8154811061172157fe5b6000918252602080832090910192909255600a86018190558681526011909152604090205460025490935061175d90600163ffffffff6142ef16565b915060028281548110151561176e57fe5b9060005260206000200154905060028281548110151561178a57fe5b90600052602060002001546002848154811015156117a457fe5b60009182526020808320909101929092558281526011909152604080822085905586825281205560028054906117de9060001983016149fe565b505050505050565b60116020526000908152604090205481565b600080808080600160a060020a038716331461181357600080fd5b6000868152600e6020526040902054600160a060020a0389811691161461183957600080fd5b600761184c87600163ffffffff6142ef16565b8154811061185657fe5b60009182526020909120600c90910201600b81015490955060ff168015611881575034856008015411155b151561188c57600080fd5b600885018054600091829055600b8701805460ff19169055878252601160205260409091205460025491955093506118cb90600163ffffffff6142ef16565b91506002828154811015156118dc57fe5b906000526020600020015490506002828154811015156118f857fe5b906000526020600020015460028481548110151561191257fe5b600091825260208083209091019290925582815260119091526040808220859055878252812055600280549061194c9060001983016149fe565b50611958888888614301565b86600160a060020a031688600160a060020a03167f9ed053bb818ff08b8353cd46f78db1f0799f31c9e4458fdb425c10eccd2efc448842604051808381526020018281526020019250505060405180910390a3604051600160a060020a0389169085156108fc029086906000818181858888f193505050501580156119e1573d6000803e3d6000fd5b505050505050505050565b600654604080517feb812a050000000000000000000000000000000000000000000000000000000081523360048201529051600160a060020a039092169163eb812a059160248082019260009290919082900301818387803b1580156110e157600080fd5b600654604080517fb5ebb7ec0000000000000000000000000000000000000000000000000000000081523360048201529051600160a060020a039092169163b5ebb7ec9160248082019260009290919082900301818387803b1580156110e157600080fd5b600654604080517f68dd62450000000000000000000000000000000000000000000000000000000081523360048201529051600092600160a060020a0316916368dd624591602480830192602092919082900301818787803b1580156115e157600080fd5b600054600160a060020a03163314611b3257600080fd5b600654604080517f622f6b7d000000000000000000000000000000000000000000000000000000008152600481018490529051600160a060020a039092169163622f6b7d9160248082019260009290919082900301818387803b158015610f7457600080fd5b60606003805480602002602001604051908101604052809291908181526020018280548015610ee65760200282019190600052602060002090815481526020019060010190808311610ed2575050505050905090565b6000908152600e6020526040902054600160a060020a031690565b600080808333826015611c2384600163ffffffff6142ef16565b81548110611c2d57fe5b60009182526020909120600f909102016001810154909150600160a060020a03838116911614611c5c57600080fd5b6015611c6f88600163ffffffff6142ef16565b81548110611c7957fe5b90600052602060002090600f020193508360020154600014158015611ca15750600384015415155b1515611cac57600080fd5b6005546002850154600160a060020a0390911690634f248def90600790611cda90600163ffffffff6142ef16565b81548110611ce457fe5b90600052602060002090600c0201600101546007611d10600189600301546142ef90919063ffffffff16565b81548110611d1a57fe5b90600052602060002090600c0201600101546040518363ffffffff1660e060020a02815260040180838152602001828152602001925050506040805180830381600087803b158015611d6b57600080fd5b505af1158015611d7f573d6000803e3d6000fd5b505050506040513d6040811015611d9557600080fd5b508051602090910151909650945050505050915091565b600054600160a060020a03163314611dc357600080fd5b600654604080517f6fe3d049000000000000000000000000000000000000000000000000000000008152600481018490529051600160a060020a0390921691636fe3d0499160248082019260009290919082900301818387803b158015610f7457600080fd5b600160a060020a03166000908152600f602052604090205490565b6000806015611e5a84600163ffffffff6142ef16565b81548110611e6457fe5b60009182526020808320600b600f90930201918201543384526008830190915260409092205490935014611e9757600080fd5b600e82015460ff610100909104161515600114611eb357600080fd5b50336000818152600883016020526040808220600201805490839055905190929183156108fc02918491818181858888f193505050501580156110f5573d6000803e3d6000fd5b60106020526000908152604090205481565b6000828152600e6020526040812054600160a060020a03163314611f2f57600080fd5b6007611f4284600163ffffffff6142ef16565b81548110611f4c57fe5b60009182526020909120600c90910201600b81015490915060ff1615611f7157600080fd5b60088101829055600b808201805460ff19166001908117909155600280548083019091557f405787fa12a823e0f2b7631cc41b3ba8828b3321ca811111fa75cd3aa3bb5ace8101869055600086815260116020526040902055839190611fde90869063ffffffff6142ef16565b81548110611fe857fe5b6000918252602080832090910192909255848152600e825260409081902054815185815292830186905242606084015260808383018190526004908401527f73616c650000000000000000000000000000000000000000000000000000000060a08401529051600160a060020a03909116917f32ff9bb61a22d1960c25c7cf2b477ca65904b653eb7efe7b931bdd181a9e0462919081900360c00190a2505050565b60606002805480602002602001604051908101604052809291908181526020018280548015610ee65760200282019190600052602060002090815481526020019060010190808311610ed2575050505050905090565b600054600160a060020a031633146120f757600080fd5b6121506000806000803361211a600160078054905061431a90919063ffffffff16565b88888080601f0160208091040260200160405190810160405280939291908181526020018383808284375061432d945050505050565b5050565b601580548290811061216257fe5b6000918252602091829020600f9091020180546001808301546002808501546003860154600487015460058801805460408051601f6000199a841615610100029a909a01909216969096049788018b90048b0281018b01909552868552969950600160a060020a03909416979196909593949093918301828280156122285780601f106121fd57610100808354040283529160200191612228565b820191906000526020600020905b81548152906001019060200180831161220b57829003601f168201915b50505060068401546007850154600b860154600c870154600d880154600e9098015496979396929550909350919060ff80821691610100810482169162010000909104168e565b600654604080517f815e76350000000000000000000000000000000000000000000000000000000081529051600092600160a060020a03169163815e763591600480830192602092919082900301818787803b1580156115e157600080fd5b6000818152600e60205260408120548190819081908190600160a060020a031633146122f957600080fd5b600654604080517fd593bf7b0000000000000000000000000000000000000000000000000000000081523360048201529051600092600160a060020a03169163d593bf7b91602480830192602092919082900301818787803b15801561235e57600080fd5b505af1158015612372573d6000803e3d6000fd5b505050506040513d602081101561238857600080fd5b50511161239457600080fd5b600654604080517f42ecd8f50000000000000000000000000000000000000000000000000000000081523360048201529051600160a060020a03909216916342ecd8f59160248082019260009290919082900301818387803b1580156123f957600080fd5b505af115801561240d573d6000803e3d6000fd5b5050505060076124276001886142ef90919063ffffffff16565b8154811061243157fe5b90600052602060002090600c020194508460010154935060009250600191505b600582116124a157816103e80a8481151561246857fe5b069050600a6103e883900a04600902811015612496576124938360646103e885900a0460050261431a565b92505b600190910190612451565b60018501546124b6908463ffffffff61431a16565b60018087018290556009906124d290899063ffffffff6142ef16565b815481106124dc57fe5b600091825260209091200155505050505050565b6000833382601561250884600163ffffffff6142ef16565b8154811061251257fe5b60009182526020909120600f909102016001810154909150600160a060020a0383811691161461254157600080fd5b601561255488600163ffffffff6142ef16565b8154811061255e57fe5b90600052602060002090600f0201935083600e0160029054906101000a900460ff161580156125905750600284015415155b801561259f5750600384015415155b15156125aa57600080fd5b60028401546000908152600985016020526040808220889055600386015482529020859055600e8401805462ff0000191662010000179055600160176125f6898363ffffffff6142ef16565b8154811061260057fe5b90600052602060002090602091828204019190066101000a81548160ff0219169083151502179055504261012c01601a60008981526020019081526020016000208190555050505050505050565b600160a060020a0381166000908152600f60209081526040918290208054835181840281018401909452808452606093928301828280156126ae57602002820191906000526020600020905b81548152602001906001019080831161269a575b50505050509050919050565b6000828152600e6020526040812054819081908190819081908190600160a060020a031633146126e957600080fd5b600654604080517f68dd62450000000000000000000000000000000000000000000000000000000081523360048201529051600092600160a060020a0316916368dd624591602480830192602092919082900301818787803b15801561274e57600080fd5b505af1158015612762573d6000803e3d6000fd5b505050506040513d602081101561277857600080fd5b50511161278457600080fd5b600654604080517fbf3521020000000000000000000000000000000000000000000000000000000081523360048201529051600160a060020a039092169163bf3521029160248082019260009290919082900301818387803b1580156127e957600080fd5b505af11580156127fd573d6000803e3d6000fd5b50505050600761281760018b6142ef90919063ffffffff16565b8154811061282157fe5b90600052602060002090600c020196508660010154955068056bc75e2d631000008681151561284c57fe5b0694506f4b3b4ca85a86c47a098a2240000000008660048054604080517f1ab53bcc0000000000000000000000000000000000000000000000000000000081529283018d905251939092069650600160a060020a0390911691631ab53bcc916024808201926020929091908290030181600087803b1580156128cd57600080fd5b505af11580156128e1573d6000803e3d6000fd5b505050506040513d60208110156128f757600080fd5b505168056bc75e2d631000009091066f4b3b4ca85a86c47a098a224000000000909106039290940391909101919091016001939093019290925550505050565b600780548290811061294557fe5b90600052602060002090600c0201600091509050806000015490806001015490806002018054600181600116156101000203166002900480601f0160208091040260200160405190810160405280929190818152602001828054600181600116156101000203166002900480156129fd5780601f106129d2576101008083540402835291602001916129fd565b820191906000526020600020905b8154815290600101906020018083116129e057829003601f168201915b50505060038401546004850154600586015460068701546007880154600889015460098a0154600a8b0154600b909b0154999a96999598509396509194909391929160ff80821691610100810482169162010000909104168e565b600654604080517fd593bf7b0000000000000000000000000000000000000000000000000000000081523360048201529051600092600160a060020a03169163d593bf7b91602480830192602092919082900301818787803b1580156115e157600080fd5b600654604080517f943fb7040000000000000000000000000000000000000000000000000000000081529051600092600160a060020a03169163943fb70491600480830192602092919082900301818787803b1580156115e157600080fd5b60008085851415612b2c57600080fd5b6000868152600e6020526040902054600160a060020a03163314612b4f57600080fd5b6007612b6287600163ffffffff6142ef16565b81548110612b6c57fe5b90600052602060002090600c020191506007612b926001876142ef90919063ffffffff16565b81548110612b9c57fe5b90600052602060002090600c020190506001826006015410158015612bc657506001816006015410155b1515612bd157600080fd5b600b81015462010000900460ff168015612bef575034816009015411155b1515612bfa57600080fd5b6006808301805460001990810190915590820180549091019055600182810154828201546007546117de938a938a93909290913391612c3e9163ffffffff61431a16565b8a8a8080601f0160208091040260200160405190810160405280939291908181526020018383808284375061432d945050505050565b600054600160a060020a03163314612c8b57600080fd5b600654604080517f959ca12d000000000000000000000000000000000000000000000000000000008152600160a060020a0384811660048301529151919092169163959ca12d91602480830192600092919082900301818387803b158015610f7457600080fd5b60606008805480602002602001604051908101604052809291908181526020018280548015610ee65760200282019190600052602060002090815481526020019060010190808311610ed2575050505050905090565b600660009054906101000a9004600160a060020a0316600160a060020a031663d23ac1996040518163ffffffff1660e060020a028152600401602060405180830381600087803b158015612d9b57600080fd5b505af1158015612daf573d6000803e3d6000fd5b505050506040513d6020811015612dc557600080fd5b5051341015612dd357600080fd5b600654604080517fba523dce0000000000000000000000000000000000000000000000000000000081523460048201529051600160a060020a039092169163ba523dce9160248082019260009290919082900301818387803b1580156110e157600080fd5b60606018805480602002602001604051908101604052809291908181526020018280548015610ee6576000918252602091829020805460ff16151584529082028301929091600191018084116116615790505050505050905090565b600080808080806015612eae88600163ffffffff6142ef16565b81548110612eb857fe5b90600052602060002090600f0201955085600e0160019054906101000a900460ff16158015612ef457506000878152601a602052604090205442115b1515612eff57600080fd5b6002860154600790612f1890600163ffffffff6142ef16565b81548110612f2257fe5b90600052602060002090600c020194506007612f4c600188600301546142ef90919063ffffffff16565b81548110612f5657fe5b600091825260208083206005546004808c015460018c810154600c90970290940193840154604080517f58f4e25f00000000000000000000000000000000000000000000000000000000815293840192909252602483019690965260448201959095529351919850600160a060020a0316936358f4e25f936064808201949392918390030190829087803b158015612fed57600080fd5b505af1158015613001573d6000803e3d6000fd5b505050506040513d602081101561301757600080fd5b50519250821515613035576002860154600b8701819055915061304d565b826001141561304d576003860154600b870181905591505b600e8601805461ff00191661010017905560016018613072898363ffffffff6142ef16565b8154811061307c57fe5b90600052602060002090602091828204019190066101000a81548160ff021916908315150217905550600060176130bd60018a6142ef90919063ffffffff16565b815481106130c757fe5b6000918252602080832081830401805460ff601f9094166101000a938402191694151592909202939093179055838152600988018252604080822054600a8a0190935290205460649102046064876007015488600d01540281151561312857fe5b04876006015488600d015489600c01540103030390508560010160009054906101000a9004600160a060020a0316600160a060020a03166108fc829081150290604051600060405180830381858888f1935050505015801561318e573d6000803e3d6000fd5b5050505050505050565b601a6020526000908152604090205481565b600080858514156131ba57600080fd5b6000868152600e6020526040902054600160a060020a0316331480156131f657506000858152600e6020526040902054600160a060020a031633145b151561320157600080fd5b600761321487600163ffffffff6142ef16565b8154811061321e57fe5b90600052602060002090600c0201915060076132446001876142ef90919063ffffffff16565b8154811061324e57fe5b90600052602060002090600c020190506001826006015410158015612bef5750600681015460011115612bfa57600080fd5b600080808080601561329987600163ffffffff6142ef16565b815481106132a357fe5b60009182526020808320338452600f9290920290910160080190526040902080546001820154600290920154909891975095509350505050565b60006132e7614a22565b3360009081526008830160205260408120600101541561330657600080fd5b601561331987600163ffffffff6142ef16565b8154811061332357fe5b90600052602060002090600f0201925082600e0160029054906101000a900460ff16801561335b5750600e830154610100900460ff16155b151561336657600080fd5b5050604080516060810182528481523460208083018281526000888152600987018352858120546064940293909304848601908152338452600887018352928590208451815590516001820155915160029092019190915560048401548351908618818301819052845180830384018152918501948590528151939490939192909182918401908083835b602083106134105780518252601f1990920191602091820191016133f1565b51815160001960209485036101000a019081169019919091161790526040805194909201849003842060048a015560008b8152600a8a018252829020805434908101909155845283018b90528281018a9052426060840152513394507fa49b07237c94f6e8fd0209d9d2ac908c82848fb43d881ab897d32b88dfbee3bd935091829003608001919050a2505050505050565b60168054829081106134b057fe5b9060005260206000209060209182820401919006915054906101000a900460ff1681565b6000818152600e60205260408120548190600160a060020a031633146134f957600080fd5b601561350c85600163ffffffff6142ef16565b8154811061351657fe5b90600052602060002090600f0201915081600201546000148061353b57506003820154155b151561354657600080fd5b8282600201541415801561355e575082826003015414155b151561356957600080fd5b600761357c84600163ffffffff6142ef16565b8154811061358657fe5b90600052602060002090600c020190506135ae600182600701546142ef90919063ffffffff16565b6007820155600282015415156135ca576002820183905561361a565b60038201839055600060166135e686600163ffffffff6142ef16565b815481106135f057fe5b90600052602060002090602091828204019190066101000a81548160ff0219169083151502179055505b6000838152600e602090815260409182902054825187815291820186905242828401529151600160a060020a03909216917f56e13b5f3f58c5841048cab6a06095a4e5ce74a7f024db22007823044358d0099181900360600190a250505050565b60008080601561369285600163ffffffff6142ef16565b8154811061369c57fe5b90600052602060002090600f0201925082600e0160019054906101000a900460ff1615156136c957600080fd5b600b8301546000908152600e6020526040902054600160a060020a031633146136f157600080fd5b600b83015460079061370a90600163ffffffff6142ef16565b8154811061371457fe5b90600052602060002090600c020191506064836007015484600d01540281151561373a57fe5b048360060154019050600083600601819055506000836007018190555061379881600a613775600187600b01546142ef90919063ffffffff16565b8154811061377f57fe5b906000526020600020015461431a90919063ffffffff16565b600b840154600a906137b190600163ffffffff6142ef16565b815481106137bb57fe5b90600052602060002001819055506137e860016008613775600187600b01546142ef90919063ffffffff16565b600b84015460089061380190600163ffffffff6142ef16565b8154811061380b57fe5b600091825260209091200155600382015461382d90600163ffffffff61431a16565b6003830155604051339082156108fc029083906000818181858888f19350505050158015610f88573d6000803e3d6000fd5b6060600c805480602002602001604051908101604052809291908181526020018280548015610ee65760200282019190600052602060002090815481526020019060010190808311610ed2575050505050905090565b600054600160a060020a031633146138cc57600080fd5b600654604080517fc874cf5d000000000000000000000000000000000000000000000000000000008152600160a060020a0384811660048301529151919092169163c874cf5d91602480830192600092919082900301818387803b158015610f7457600080fd5b600654604080517fd23ac1990000000000000000000000000000000000000000000000000000000081529051600092600160a060020a03169163d23ac19991600480830192602092919082900301818787803b1580156115e157600080fd5b600f6020528160005260406000208181548110151561111657fe5b60136020528160005260406000208181548110151561111657fe5b60178054829081106134b057fe5b600654604080517fd3652f5a0000000000000000000000000000000000000000000000000000000081523360048201529051600160a060020a039092169163d3652f5a9160248082019260009290919082900301818387803b1580156110e157600080fd5b6060600b805480602002602001604051908101604052809291908181526020018280548015610ee65760200282019190600052602060002090815481526020019060010190808311610ed2575050505050905090565b613a99614a44565b348310613aa557600080fd5b604080516101c081019091526015548190613ac790600163ffffffff61431a16565b815260200133600160a060020a031681526020016000815260200160008152602001600060010260001916815260200186868080601f0160208091040260200160405190810160405280939291908181526020018383808284375050509284525050506020808201869052604080830186905260006060840181905234608085015260a08401819052600160c0850181905260e085018290526101009094018190523381526019909252902060155492935091613b899163ffffffff61431a16565b81546001818101845560009384526020808520909201929092556015805492830180825593528351600f9092027f55f448fdea98c4d29eb340757ef0a66cd03dbb9538908a6a81d96026b71ec4758101928355848201517f55f448fdea98c4d29eb340757ef0a66cd03dbb9538908a6a81d96026b71ec47682018054600160a060020a0390921673ffffffffffffffffffffffffffffffffffffffff1990921691909117905560408501517f55f448fdea98c4d29eb340757ef0a66cd03dbb9538908a6a81d96026b71ec47782015560608501517f55f448fdea98c4d29eb340757ef0a66cd03dbb9538908a6a81d96026b71ec47882015560808501517f55f448fdea98c4d29eb340757ef0a66cd03dbb9538908a6a81d96026b71ec47982015560a08501518051869493613ce2937f55f448fdea98c4d29eb340757ef0a66cd03dbb9538908a6a81d96026b71ec47a01920190614ac6565b5060c0820151600682015560e0820151600782015561010080830151600b830155610120830151600c830155610140830151600d830155610160830151600e90920180546101808501516101a0909501511515620100000262ff000019951515840261ff001995151560ff19909316929092179490941617939093169190911790915560168054600181810190925560208082047fd833147d7dc355ba459fc788f669e58cfaf9dc25ddcd0702e87d69c7b5124289018054601f938416860a60ff8181021990921617909155601780548086019091558281047fc624b66cc0138b8fabc209247f72d758e1cf3343756d543badbf24212bed8c15018054918516870a83021990911690556018805494850181556000528184047fb13d2d76d1f4b7be834882e410b3e3a8afaf69f83600ae24db354391d2378d2e0180549490931690940a9093021990911690556015546040805134815292830187905282810191909152426060830152513392507fca85e6f132ec5fd5d50167ea817e67d3068e4c72ebf1c1b4c6793ad80d7500479181900360800190a25050505050565b33600090815260196020908152604091829020805483518184028101840190945280845260609392830182828015610ee65760200282019190600052602060002090815481526020019060010190808311610ed2575050505050905090565b6060600a805480602002602001604051908101604052809291908181526020018280548015610ee65760200282019190600052602060002090815481526020019060010190808311610ed2575050505050905090565b600054600160a060020a03163314613f4d57600080fd5b600654604080517fee163244000000000000000000000000000000000000000000000000000000008152600160a060020a0384811660048301529151919092169163ee16324491602480830192600092919082900301818387803b158015610f7457600080fd5b60188054829081106134b057fe5b600654604080517fb46724230000000000000000000000000000000000000000000000000000000081523360048201529051600160a060020a039092169163b46724239160248082019260009290919082900301818387803b1580156110e157600080fd5b6000818152600e6020526040812054819081908190600160a060020a0316331461405057600080fd5b600761406386600163ffffffff6142ef16565b8154811061406d57fe5b60009182526020808320600b600c90930201918201805462ff000019169055600982018390558783526012905260409091205460035491955093506140b990600163ffffffff6142ef16565b91506003828154811015156140ca57fe5b906000526020600020015490506003828154811015156140e657fe5b906000526020600020015460038481548110151561410057fe5b6000918252602082200191909155600c61412187600163ffffffff6142ef16565b8154811061412b57fe5b60009182526020808320909101929092558281526012909152604080822085905586825281205560038054906117de9060001983016149fe565b600054600160a060020a0316331461417c57600080fd5b600160a060020a038116151561419157600080fd5b6000805473ffffffffffffffffffffffffffffffffffffffff1916600160a060020a0392909216919091179055565b6000806000806141ce614a22565b60156141e187600163ffffffff6142ef16565b815481106141eb57fe5b60009182526020808320338452600f9290920290910160080181526040918290208251606081018452815480825260018301549382018490526002909201549301839052989097509095509350505050565b60606009805480602002602001604051908101604052809291908181526020018280548015610ee65760200282019190600052602060002090815481526020019060010190808311610ed2575050505050905090565b60606016805480602002602001604051908101604052809291908181526020018280548015610ee6576000918252602091829020805460ff16151584529082028301929091600191018084116116615790505050505050905090565b6000828211156142fb57fe5b50900390565b61430b8382614827565b6143158282614976565b505050565b8181018281101561432757fe5b92915050565b6000614337614b44565b600160a060020a038516151561434c57600080fd5b8789141580614362575088158015614362575087155b151561436d57600080fd5b6143778585614976565b600480546040517f8c38e9e700000000000000000000000000000000000000000000000000000000815291820189815260248301899052606060448401908152865160648501528651600160a060020a0390931693638c38e9e7938c938c938a939192909160840190602085019080838360005b838110156144035781810151838201526020016143eb565b50505050905090810190601f1680156144305780820380516001836020036101000a031916815260200191505b50945050505050602060405180830381600087803b15801561445157600080fd5b505af1158015614465573d6000803e3d6000fd5b505050506040513d602081101561447b57600080fd5b5051604080516101c0810182528681526020810183905290810185905260006060820152608081018b905260a081018a905290925060c081016b204fce5e3e250261100000006c01431e0fae6d7217caa00000008506046c01431e0fae6d7217caa00000006c0c9f2c9cd04674edea400000008606040181526020016c0c9f2c9cd04674edea400000006c7e37be2022c0914b26800000008506046c7e37be2022c0914b26800000006d04ee2d6d415b85acef8100000000860604018152600060208083018290526040808401839052606084018390526080840183905260a0840183905260c09093018290526007805460018101808355919093528451600c9093027fa66cc928b5edb82af9bd49922954155ab7b0942694bea4ce44661d9a8736c6888101938455858301517fa66cc928b5edb82af9bd49922954155ab7b0942694bea4ce44661d9a8736c68982015593850151805195965090948694614609937fa66cc928b5edb82af9bd49922954155ab7b0942694bea4ce44661d9a8736c68a909101920190614ac6565b50606082015160038201556080820151600482015560a0820151600582015560c0820151600682015560e0820151600782015561010080830151600880840191909155610120840151600980850191909155610140850151600a80860191909155610160860151600b95860180546101808901516101a09099015160ff199091169215159290921761ff0019169715159095029690961762ff00001916620100009615159690960295909517909255815460018181019093557f6e1540171b6c0c960b71a7020d9f60077f6af931a8bbf590da0223dacf75c7af01879055805480830190915560007ff3f7a9fe364faab93b216da50a3214154f22a0a2b415b23a84c8169e8b636ee390910181905582548083019093557f0175b7a638427703f0dbe7bb9bbf987a2551717b34e79f33b5b1008d1fa01db9909201829055600c80548083019091557fdf6966c971051c3d54ec59162606531493a51404a002842f56009d7e5cf4a8c701829055600d80548083019091557fd7b6990105719101dabeb77144f2a3385c8033acd3af97e9423a695e81ad1eb501829055825490810183559181527fc65a7bb8d6351c1cf70c95a316cc6a92839c986682d98bc35f958f4883f9d2a8909101819055604080518781524260208201528151600160a060020a038a1694507f9ed053bb818ff08b8353cd46f78db1f0799f31c9e4458fdb425c10eccd2efc44929181900390910190a3505050505050505050565b6000818152600e6020526040812054819081908190600160a060020a0387811691161461485357600080fd5b600085815260106020908152604080832054600160a060020a038a168452600f9092529091208054919550909350600019840192508284811061489257fe5b6000918252602080832090910154878352600e82526040808420805473ffffffffffffffffffffffffffffffffffffffff19169055600160a060020a038a168452600f909252912080549192508291869081106148eb57fe5b6000918252602080832090910192909255600160a060020a0388168152600f9091526040812080548490811061491d57fe5b6000918252602080832090910192909255600160a060020a0388168152600f909152604090208054906149549060001983016149fe565b5060009485526010602052604080862086905590855290932091909155505050565b6000818152600e6020526040902054600160a060020a03161561499857600080fd5b6000818152600e602090815260408083208054600160a060020a0390961673ffffffffffffffffffffffffffffffffffffffff1990961686179055938252600f815283822080546001810182559083528183208101849055928252601090529190912055565b81548183558181111561431557600083815260209020614315918101908301614bba565b6060604051908101604052806000815260200160008152602001600081525090565b6101c060405190810160405280600081526020016000600160a060020a031681526020016000815260200160008152602001600080191681526020016060815260200160008152602001600081526020016000815260200160008152602001600081526020016000151581526020016000151581526020016000151581525090565b828054600181600116156101000203166002900490600052602060002090601f016020900481019282601f10614b0757805160ff1916838001178555614b34565b82800160010185558215614b34579182015b82811115614b34578251825591602001919060010190614b19565b50614b40929150614bba565b5090565b6101c06040519081016040528060008152602001600081526020016060815260200160008152602001600081526020016000815260200160008152602001600081526020016000815260200160008152602001600081526020016000151581526020016000151581526020016000151581525090565b610eee91905b80821115614b405760008155600101614bc05600a165627a7a7230582071eaa90140678309996832903cf3b69862cf7225bd7de135df87ea1a70ad66c80029",
  "source": "pragma solidity ^0.4.23;\n\nlibrary SafeMath{\n\n    function mul(uint a, uint b) internal pure returns(uint c){\n        if (a == 0){\n            return 0;\n        }\n        c = a * b;\n        assert(c / a == b);\n        return c;\n    }\n\n    function div(uint a, uint b) internal pure returns(uint){\n        return a / b;\n    }\n\n    function sub(uint a, uint b) internal pure returns (uint) {\n        assert(b <= a);\n        return a - b;\n    }\n\n    function add(uint a, uint b) internal pure returns (uint c) {\n        c = a + b;\n        assert(c >= a);\n        return c;\n    }\n}\n\ncontract Ownable{\n    address owner;\n    event OwnershipTransferred(address indexed previousOwner,address indexed newOwner);\n\n    constructor() public {\n        owner = msg.sender;\n    }\n\n    modifier onlyOwner(){\n        require(msg.sender == owner);\n        _;\n    }\n\n    function transferOwnership(address newOwner) external onlyOwner{\n        require(newOwner != address(0));\n        owner = newOwner;\n    }\n}\n\n//\n//contract ERC721{\n//    event Transfer(address indexed _from,address indexed _to,uint _tokenId);\n//    event Approval(address indexed _owner,address indexed _approved,uint _tokenId);\n//\n//    function balanceOf(address _owner) external view returns (uint _balance);\n//    function ownerOf(uint _tokenId) external view returns (address);\n//    function transfer(address _to,uint _tokenId) internal;\n//    //    function approve(address _to,uint _tokenId) external;\n//    function takeOwnership(address _from,address _to,uint _tokenId) external payable;\n//    //    function name() external view returns (string name);\n//    //    function symbol() external view returns (string symbol);\n//}\n\n\ncontract RaceFunctionInterface{\n    function generateWinnerIndex(bytes32 _nonce, uint _gene1, uint _gene2) external view returns(uint);\n    function horseStrengthBalance(uint _gene1,uint _gene2) external pure returns(uint,uint);\n}\n\ncontract GeneFunctionInterface{\n    function generateGenes(uint,uint,string) external view returns(uint);\n    function generateReplaceGene(uint) external view returns(uint);\n}\n\n\ncontract LotteryInterface{\n    function trainTicketNum(address _user) public view returns(uint);\n    function dressUpTicketNum(address _user) public view returns(uint);\n    function shuffleDressUpTicketNum(address _user) public view returns(uint);\n    function trainLottery(address _user) public view returns(uint);\n    function dressUpLottery(address _user) public view returns(uint);\n    function shuffleDressUpLottery(address _user) public view returns(uint);\n    function giftHorseLottery(address _user) public view returns(uint);\n    function lotteryNum() public returns (uint);\n    function setTrainTicketPrice(uint) external;\n    function setDressUpTicketPrice(uint) external;\n    function trainTicketPrice() external view returns(uint);\n    function dressUpTicketPrice() public view returns(uint);\n    function shuffleDressUpTicketPrice() public view returns(uint);\n    function setShuffleDressUpTicketPrice(uint) external;\n    function buyTrainTicket(uint,address) external;\n    function buyShuffleDressUpTicket(uint) external;\n    function buyDressUpTicket(uint) external;\n    function doTrainLottery(address) external;\n    function doDressUpLottery(address) external;\n    function doShuffleDressUpLottery(address) external;\n    function doGiftHorseLottery(address) external;\n    function presentTrainTicket(address) external;\n    function presentDressUpTicket(address) external;\n    function presentShuffleDressUpTicket(address) external;\n    function trainHorse(address) external;\n    function dressUpHorse(address) external;\n    function shuffleDressUp(address) external;\n}\n\n\ncontract HorseGameBase is Ownable{\n    using SafeMath for uint256;\n\n\n    uint geneModulus = 10 ** 64; // length of genes\n    uint[] horsesOnSale; //horsesOnSale\n    uint[] horsesOnSireSale; //horsesOnSireSale\n\n    GeneFunctionInterface geneFunction;\n    RaceFunctionInterface raceFunction;\n    LotteryInterface lotteryFunction;\n    struct Horse{\n        uint horseId;\n        uint genes;\n        string name;\n        uint winCount;\n        uint papaId;\n        uint momId;\n        uint mateIndex;\n        uint raceIndex;\n        uint price;\n        uint sirePrice;\n        uint saleDuration;\n        bool isOnSale;\n        bool isOnAuction;\n        bool isOnSireSale;\n    }\n\n\n    Horse[] public horses;\n    uint[] horseWinCounts; //win count of a horse\n    uint[] horseGenes;\n    uint[] horseTotalPrize; //won total prize of a horse\n    uint[] horseOnSalePrices; // sale price of a horse\n    uint[] horseOnSirePrices; // sire price of a horse\n    uint[] horseOnMinBidPrices; // minimum win price of a horse\n\n\n    mapping(uint => address) public tokenOwner; // owner of a horse\n    mapping(address => uint[]) public ownedTokens; // ids of tokens that an address has\n    mapping(uint => uint) public ownedTokensIndex;//token index which\n    mapping(uint => uint) public tokenIdToOnSaleIndex; //token Id to onSaleIndex\n    mapping(uint => uint) public tokenIdToOnSireSaleIndex;\n    mapping(uint => uint[]) public raceIdToHorseIds;//raceIdId\n    mapping(uint => uint) public raceIdToDeposit; //ETH\n\n    event HorseOnSale(address indexed _from,uint _price, uint _tokenId, string _type, uint _now);\n    event Transfer(address indexed _from,address indexed _to,uint256 _tokenId, uint _now);\n    event ApplyRace(address indexed _owner,uint _raceId,uint _horseId,uint _now);\n    event BetRace(address indexed _voter,uint _betValue, uint _raceId, uint _horseId, uint _now);\n    event HostRace(address indexed _host, uint _deposit, uint _minWinnerPrize, uint _raceId, uint _now);\n    event GiftHorseLottery(address indexed _from, uint _tokenId);\n\n    function getWinCountsArray() external view returns(uint[]){\n        return horseWinCounts;\n    }\n\n    function getTotalPrizeArray() external view returns(uint[]){\n        return horseTotalPrize;\n    }\n\n    function getOnSalePricesArray() external view returns(uint[]){\n        return horseOnSalePrices;\n    }\n\n    function getOnSirePricesArray() external view returns(uint[]){\n        return horseOnSirePrices;\n    }\n\n    function getOnMinBidPricesArray() external view returns(uint[]){\n        return horseOnMinBidPrices;\n    }\n\n    function getHorseGenesArray() external view returns(uint[]){\n        return horseGenes;\n    }\n\n    //balance of owner\n    function balanceOf(address _owner) external view returns (uint){\n        return ownedTokens[_owner].length;\n    }\n    //owner of a token\n    function ownerOf(uint256 _tokenId) external view returns (address){\n        return tokenOwner[_tokenId];\n    }\n\n    function onSaleHorses() external view returns(uint[]){\n        return horsesOnSale;\n    }\n\n\n    function onSireSaleHorses() external view returns(uint[]){\n        return horsesOnSireSale;\n    }\n\n    function ownedTokensIds(address _owner) external view returns(uint[]){\n        return ownedTokens[_owner];\n    }\n\n    function transfer(address _from,address _to,uint256 _tokenId) internal {\n        //remove and add\n        _removeToken(_from,_tokenId);\n        _addToken(_to,_tokenId);\n    }\n\n    function _removeToken(address _from,uint256 _tokenId) private {\n        require(tokenOwner[_tokenId] == _from);\n\n        uint tokenIndex = ownedTokensIndex[_tokenId];\n        uint ownedTokenNum = ownedTokens[_from].length;\n        uint lastTokenIndex = ownedTokenNum - 1;\n        uint lastToken = ownedTokens[_from][lastTokenIndex];\n\n        tokenOwner[_tokenId] = 0;\n        ownedTokens[_from][tokenIndex] = lastToken;\n        ownedTokens[_from][lastTokenIndex] = 0;\n\n        ownedTokens[_from].length--;\n        ownedTokensIndex[_tokenId] = 0;\n        ownedTokensIndex[lastToken] = tokenIndex;\n    }\n\n    function _addToken(address _to,uint256 _tokenId) private{\n        require(tokenOwner[_tokenId] == address(0));\n        tokenOwner[_tokenId] = _to;\n        ownedTokensIndex[_tokenId] = ownedTokens[_to].push(_tokenId) - 1;\n    }\n\n    function mateHorses(uint _papaId, uint _mamaId, string _name) external {\n        require(_papaId != _mamaId);\n        require(tokenOwner[_papaId] == msg.sender && tokenOwner[_mamaId] == msg.sender);\n        Horse storage papa = horses[_papaId.sub(1)];\n        Horse storage mama = horses[_mamaId.sub(1)];\n        require(papa.mateIndex >= 1 && mama.mateIndex >= 1);\n        papa.mateIndex -= 1;\n        mama.mateIndex -= 1;\n        _mint(_papaId,_mamaId,papa.genes,mama.genes,msg.sender, horses.length.add(1),_name);\n    }\n\n    function sireHorseWithOnSaleHorse(uint _myTokenId,uint _saleTokenId,string _name) external payable{\n        require(_myTokenId != _saleTokenId);\n        require(tokenOwner[_myTokenId] == msg.sender);\n        Horse storage myHorse = horses[_myTokenId.sub(1)];\n        Horse storage saleHorse = horses[_saleTokenId.sub(1)];\n        require(myHorse.mateIndex >= 1 && saleHorse.mateIndex >= 1);\n        require(saleHorse.isOnSireSale && saleHorse.sirePrice <= msg.value);\n        myHorse.mateIndex -= 1;\n        saleHorse.mateIndex -= 1;\n        _mint(_myTokenId,_saleTokenId,myHorse.genes,saleHorse.genes,msg.sender,horses.length.add(1),_name);\n    }\n\n    function takeOwnership(address _from,address _to,uint256 _tokenId) external payable{\n        require(_to == msg.sender);\n        require(_from == tokenOwner[_tokenId]);\n        Horse storage horse = horses[_tokenId.sub(1)];\n        require(horse.isOnSale && horse.price <= msg.value);\n        uint price = horse.price;\n        horse.price = 0;\n        horse.isOnSale = false;\n        uint onSaleIndex = tokenIdToOnSaleIndex[_tokenId];\n        uint lastIndex = horsesOnSale.length.sub(1);\n        uint lastToken = horsesOnSale[lastIndex];\n\n        horsesOnSale[onSaleIndex] = horsesOnSale[lastIndex];\n        tokenIdToOnSaleIndex[lastToken] = onSaleIndex;\n        delete tokenIdToOnSaleIndex[_tokenId];\n        horsesOnSale.length--;\n        transfer(_from,_to,_tokenId);\n        emit Transfer(_from,_to,_tokenId, now);\n        _from.transfer(price);\n    }\n\n    function horseTokenToOnSale(uint _tokenId,uint _price) external{\n        require(tokenOwner[_tokenId] == msg.sender);\n        Horse storage horse = horses[_tokenId.sub(1)];\n        require(!horse.isOnSale);\n        horse.price = _price;\n        horse.isOnSale = true;\n        tokenIdToOnSaleIndex[_tokenId] = horsesOnSale.push(_tokenId) - 1;\n        horseOnSalePrices[_tokenId.sub(1)] = _price;\n        emit HorseOnSale(tokenOwner[_tokenId], _price,_tokenId, \"sale\", now);\n    }\n\n    function horseTokenToNotOnSale(uint _tokenId) external{\n        require(tokenOwner[_tokenId] == msg.sender);\n        Horse storage horse = horses[_tokenId.sub(1)];\n        horse.isOnSale = false;\n        horse.price = 0;\n        horseOnSalePrices[_tokenId.sub(1)] = 0;\n        horse.saleDuration = 0;\n\n        uint onSaleIndex = tokenIdToOnSaleIndex[_tokenId];\n        uint lastIndex = horsesOnSale.length.sub(1);\n        uint lastToken = horsesOnSale[lastIndex];\n\n        horsesOnSale[onSaleIndex] = horsesOnSale[lastIndex];\n        tokenIdToOnSaleIndex[lastToken] = onSaleIndex;\n        delete tokenIdToOnSaleIndex[_tokenId];\n        horsesOnSale.length--;\n    }\n\n    function horseTokenToNotOnSireSale(uint _tokenId) external{\n        require(tokenOwner[_tokenId] == msg.sender);\n        Horse storage horse = horses[_tokenId.sub(1)];\n        horse.isOnSireSale = false;\n        horse.sirePrice = 0;\n\n        uint onSireIndex = tokenIdToOnSireSaleIndex[_tokenId];\n        uint lastIndex = horsesOnSireSale.length.sub(1);\n        uint lastToken = horsesOnSireSale[lastIndex];\n\n        horsesOnSireSale[onSireIndex] = horsesOnSireSale[lastIndex];\n        horseOnSirePrices[_tokenId.sub(1)] = 0;\n        tokenIdToOnSireSaleIndex[lastToken] = onSireIndex;\n        delete tokenIdToOnSireSaleIndex[_tokenId];\n        horsesOnSireSale.length--;\n    }\n\n    function horseTokenToOnSireSale(uint _tokenId, uint _price) external{\n        require(tokenOwner[_tokenId.sub(1)] == msg.sender);\n        Horse storage horse = horses[_tokenId.sub(1)];\n        horse.sirePrice = _price;\n        horse.isOnSireSale = true;\n        tokenIdToOnSireSaleIndex[_tokenId] = horsesOnSireSale.push(_tokenId) - 1;\n        horseOnSirePrices[_tokenId.sub(1)] = _price;\n        emit HorseOnSale(tokenOwner[_tokenId],_price, _tokenId, \"sire\", now);\n    }\n\n\n    function _mint(\n        uint256 _papaId,\n        uint256 _momId,\n        uint256 _maleGenes,\n        uint256 _femaleGenes,\n        address _to,\n        uint256 _tokenId,\n        string _name\n    )\n    private\n    {\n        require(_to != address(0));\n        require(_papaId != _momId || (_papaId == 0 && _momId == 0));\n        _addToken(_to,_tokenId);\n        uint newGene = geneFunction.generateGenes(_maleGenes,_femaleGenes,_name);\n        Horse memory newHorse = Horse({\n            horseId:_tokenId,\n            genes:newGene,\n            name:_name,\n            winCount: 0,\n            papaId:_papaId,\n            momId:_momId,\n            mateIndex:(newGene % (10 ** 30) / (10 ** 29)) + (newGene % (10 ** 29) / (10 ** 28)),\n            raceIndex:(newGene % (10 ** 32) / (10 ** 31)) + (newGene % (10 ** 31) / (10 ** 30)),\n            price: 0,\n            saleDuration: 0,\n            sirePrice: 0,\n            isOnSale: false,\n            isOnSireSale: false,\n            isOnAuction: false\n            });\n        horses.push(newHorse);\n        horseGenes.push(newGene);\n        horseWinCounts.push(0);\n        horseOnSalePrices.push(0);\n        horseOnSirePrices.push(0);\n        horseOnMinBidPrices.push(0);\n        horseTotalPrize.push(0);\n        //from  0x0\n        emit Transfer(0x0,_to,_tokenId, now);\n    }\n\n    function createHorseToken(string _name) external onlyOwner{\n        _mint(0,0,0,0,msg.sender,horses.length.add(1),_name);\n    }\n\n    function() public payable{}\n}\n\n\ncontract HorseBet is HorseGameBase{\n    struct RaceParticipant{\n        uint betHorseId;\n        uint betPrice;\n        uint expectedReturn;\n    }\n\n    struct Race{\n        uint raceId;\n        address host;\n        uint horseOne;\n        uint horseTwo;\n        bytes32 nonce;\n        string raceName;\n        uint minWinnerPrize;\n        uint winnerPrizeFromBet;\n        mapping(address => RaceParticipant) participantInfo;\n        mapping(uint => uint) horseIdToBetRate;\n        mapping(uint => uint) horseIdToBetAmount;\n        uint winnerHorseId;\n        uint deposit;\n        uint totalBet;\n        bool isWanted;\n        bool isChecked;\n        bool isBetting;\n    }\n\n    Race[] public races;\n    bool[] public wantedRaces;\n    bool[] public bettingRaces;\n    bool[] public checkedRaces;\n    mapping (address => uint[]) public mapUserToRaceIds;\n    mapping (uint => uint) public raceStartTime;\n\n\n    modifier hostOnly(uint _raceId,address _sender){\n        Race storage race = races[_raceId.sub(1)];\n        require(race.host == _sender);\n        _;\n    }\n\n\n    function checkRaceResult(uint _raceId) external {\n        Race storage race = races[_raceId.sub(1)];\n        require(!race.isChecked && raceStartTime[_raceId] < now);\n        Horse storage horse1 = horses[race.horseOne.sub(1)];\n        Horse storage horse2 = horses[race.horseTwo.sub(1)];\n        uint winnerIndex = raceFunction.generateWinnerIndex(\n            race.nonce,horse1.genes,horse2.genes\n        );\n        uint winnerId;\n        if(winnerIndex == 0){\n            race.winnerHorseId = race.horseOne;\n            winnerId = race.horseOne;\n        }else if(winnerIndex == 1){\n            race.winnerHorseId = race.horseTwo;\n            winnerId = race.horseTwo;\n        }\n        race.isChecked = true;\n        checkedRaces[_raceId.sub(1)] = true;\n        bettingRaces[_raceId.sub(1)] = false;\n        uint hostPayback =\n        race.deposit + race.totalBet - race.minWinnerPrize - race.totalBet * race.winnerPrizeFromBet / 100 - race.horseIdToBetAmount[winnerId] * race.horseIdToBetRate[winnerId] / 100;\n        race.host.transfer(hostPayback);\n    }\n\n    function decideBetRate(uint _raceId,uint _rate1,uint _rate2) external hostOnly(_raceId,msg.sender){\n        Race storage race = races[_raceId.sub(1)];\n        require(!race.isBetting && race.horseOne != 0 && race.horseTwo != 0);\n        race.horseIdToBetRate[race.horseOne] = _rate1;\n        race.horseIdToBetRate[race.horseTwo] = _rate2;\n        race.isBetting = true;\n        bettingRaces[_raceId.sub(1)] = true;\n        raceStartTime[_raceId] = now + 5 minutes;\n    }\n\n    function withdrawPayback(uint _raceId) external{\n        Race storage race = races[_raceId.sub(1)];\n        require(race.participantInfo[msg.sender].betHorseId == race.winnerHorseId);\n        require(race.isChecked == true);\n        uint payback = race.participantInfo[msg.sender].expectedReturn;\n        race.participantInfo[msg.sender].expectedReturn = 0;\n        msg.sender.transfer(payback);\n    }\n\n    function withdrawPrize(uint _raceId) external{\n        Race storage race = races[_raceId.sub(1)];\n        require(race.isChecked);\n        require(msg.sender == tokenOwner[race.winnerHorseId]);\n        Horse horse = horses[race.winnerHorseId.sub(1)];\n        uint prize = race.minWinnerPrize + race.totalBet * race.winnerPrizeFromBet / 100;\n        race.minWinnerPrize = 0;\n        race.winnerPrizeFromBet = 0;\n        horseTotalPrize[race.winnerHorseId.sub(1)] = horseTotalPrize[race.winnerHorseId.sub(1)].add(prize);\n        horseWinCounts[race.winnerHorseId.sub(1)] = horseWinCounts[race.winnerHorseId.sub(1)].add(1);\n        horse.winCount = horse.winCount.add(1);\n        msg.sender.transfer(prize);\n    }\n\n    function myBetInfo(uint _raceId) external view returns(uint,uint,uint){\n        Race storage race = races[_raceId.sub(1)];\n        RaceParticipant memory person = race.participantInfo[msg.sender];\n        return(person.betHorseId,person.betPrice,person.expectedReturn);\n    }\n\n    function getRaceStrengthInfo(uint _raceId) external view hostOnly(_raceId,msg.sender) returns(uint,uint){\n        Race storage race = races[_raceId.sub(1)];\n        require(race.horseOne != 0 && race.horseTwo != 0);\n        return raceFunction.horseStrengthBalance(horses[race.horseOne.sub(1)].genes,horses[race.horseTwo.sub(1)].genes);\n    }\n\n    function bettingInfo(uint _raceId) external view returns(uint,uint,uint,uint,uint,uint){\n        Race storage race = races[_raceId.sub(1)];\n        require(race.horseOne != 0 && race.horseTwo != 0);\n        uint paybackMax = race.totalBet * (100 - race.winnerPrizeFromBet) / 100 + (race.deposit - race.minWinnerPrize);\n        uint max1 = ((paybackMax - (race.horseIdToBetAmount[race.horseOne] * race.horseIdToBetRate[race.horseOne] / 100)) / race.horseIdToBetRate[race.horseOne]) * 100;\n        uint max2 = ((paybackMax - (race.horseIdToBetAmount[race.horseTwo] * race.horseIdToBetRate[race.horseTwo] / 100)) / race.horseIdToBetRate[race.horseTwo]) * 100;\n        return (max1,race.horseIdToBetAmount[race.horseOne],race.horseIdToBetRate[race.horseOne],max2,race.horseIdToBetAmount[race.horseTwo],race.horseIdToBetRate[race.horseTwo]);\n    }\n\n    function betRace(uint _raceId, uint _horseId, uint _secret) external payable{\n        require(race.participantInfo[msg.sender].betPrice == 0);\n        Race storage race = races[_raceId.sub(1)];\n        require(race.isBetting && !race.isChecked);\n        RaceParticipant memory person = RaceParticipant({\n            betHorseId: _horseId,\n            betPrice: msg.value,\n            expectedReturn: (race.horseIdToBetRate[_horseId] * msg.value) / 100\n            });\n\n        race.participantInfo[msg.sender] = person;\n        uint _nonce = uint(race.nonce)^_secret;\n        race.nonce = keccak256(abi.encodePacked(_nonce));\n        race.horseIdToBetAmount[_horseId] += msg.value;\n        emit BetRace(msg.sender,msg.value,_raceId,_horseId,now);\n    }\n\n    function getOdds(uint _raceId) external view returns(uint,uint){\n        Race storage race = races[_raceId.sub(1)];\n        return(race.horseIdToBetRate[race.horseOne],race.horseIdToBetRate[race.horseTwo]);\n    }\n\n    function showParticipantInfo(uint _raceId) external view returns(uint,uint,uint) {\n        Race storage race = races[_raceId.sub(1)];\n        RaceParticipant storage participantInfo = race.participantInfo[msg.sender];\n        return(\n        participantInfo.betHorseId,\n        participantInfo.betPrice,\n        participantInfo.expectedReturn\n        );\n    }\n\n    function hostRace(string _raceName,uint _minWinnerPrize, uint _winnerPrizeFromBet) external payable{\n        require(msg.value > _minWinnerPrize);\n        Race memory race =  Race({\n            raceId: races.length.add(1),\n            host: msg.sender,\n            horseOne: 0,\n            horseTwo: 0,\n            nonce: bytes32(0),\n            raceName: _raceName,\n            minWinnerPrize: _minWinnerPrize,\n            winnerHorseId: 0,\n            winnerPrizeFromBet: _winnerPrizeFromBet,\n            deposit: msg.value,\n            totalBet: 0,\n            isWanted: true,\n            isChecked: false,\n            isBetting: false\n            });\n        mapUserToRaceIds[msg.sender].push(races.length.add(1));\n        races.push(race);\n        wantedRaces.push(true);\n        bettingRaces.push(false);\n        checkedRaces.push(false);\n        emit HostRace(msg.sender, msg.value, _minWinnerPrize, races.length, now);\n    }\n\n    function applyRace(uint _raceId, uint _horseId) external{\n        require(tokenOwner[_horseId] == msg.sender);\n        Race storage race = races[_raceId.sub(1)];\n        require(race.horseOne == 0 || race.horseTwo == 0);\n        require(race.horseOne != _horseId && race.horseTwo != _horseId);\n        Horse storage horse = horses[_horseId.sub(1)];\n        horse.raceIndex = horse.raceIndex.sub(1);\n        if(race.horseOne == 0){\n            race.horseOne = _horseId;\n        }else{\n            race.horseTwo = _horseId;\n            wantedRaces[_raceId.sub(1)] = false;\n        }\n        emit ApplyRace(tokenOwner[_horseId], _raceId, _horseId, now);\n    }\n\n    function getRaceIds() external view returns(uint){\n        return races.length;\n    }\n\n    function getWantedRaces() external view returns(bool[]){\n        return wantedRaces;\n    }\n\n    function getBettingRaces() external view returns(bool[]){\n        return bettingRaces;\n    }\n\n    function getCheckedRaces() external view returns(bool[]){\n        return checkedRaces;\n    }\n\n    function getMyRaces() external view returns(uint[]){\n        return mapUserToRaceIds[msg.sender];\n    }\n}\n\n\n//contract HorseBid is HorseBet{\n//\n//    struct Bid{\n//        uint horseId;\n//        uint closeTime;\n//        uint minPrice;\n//        uint currentMax;\n//        address currentMaxUser;\n//        address host;\n//        mapping(address => uint) participantsToBidPrice;\n//        bool isClosed;\n//    }\n//    uint[] horsesOnBid; //horsesOnSale\n//    mapping(uint => uint) public tokenIdToBidIndex; //token Id to BidIndex\n//\n//    mapping(uint => Bid) tokenIdToAuction;\n//    mapping(uint => address[]) tokenIdToAuctionParticipants;\n//\n//    function horseTokenNotToAuction(uint _tokenId) public{\n//        Horse storage horse = horses[_tokenId.sub(1)];\n//        require(horse.isOnAuction);\n//        require(tokenOwner[_tokenId] == msg.sender);\n//        delete tokenIdToAuction[_tokenId];\n//        uint onBidIndex = tokenIdToBidIndex[_tokenId];\n//        uint lastIndex = horsesOnBid.length.sub(1);\n//        uint lastToken = horsesOnBid[lastIndex];\n//\n//        horsesOnBid[onBidIndex] = horsesOnBid[lastIndex];\n//        horseOnMinBidPrices[_tokenId.sub(1)] = 0;\n//        tokenIdToBidIndex[lastToken] = onBidIndex;\n//        delete tokenIdToBidIndex[_tokenId];\n//        horsesOnBid.length--;\n//        horse.isOnAuction = false;\n//    }\n//\n//    function horseTokenToAuction(uint _tokenId, uint _minPrice, uint _duration) external{\n//        Horse storage horse = horses[_tokenId.sub(1)];\n//        Bid memory bid = Bid({\n//            horseId: _tokenId,\n//            closeTime: now + _duration,\n//            minPrice: _minPrice,\n//            currentMax: 0,\n//            currentMaxUser: msg.sender,\n//            host: msg.sender,\n//            isClosed: false\n//            });\n//        if(horse.isOnSale){\n//            horseTokenNotToAuction(_tokenId);\n//            horseOnSalePrices[_tokenId.sub(1)] = 0;\n//        }\n//        horse.isOnAuction = true;\n//        horseOnMinBidPrices[_tokenId.sub(1)] = _minPrice;\n//        tokenIdToAuction[_tokenId] = bid;\n//        tokenIdToBidIndex[_tokenId] = horsesOnBid.push(_tokenId).sub(1);\n//        emit HorseOnSale(msg.sender,_minPrice,_tokenId,\"auction\", now);\n//    }\n//\n//    function changeAuctionStatus(uint _addTime,uint _price, uint _tokenId) external{\n//        Horse storage horse = horses[_tokenId.sub(1)];\n//        require(horse.isOnAuction);\n//        Bid storage bid = tokenIdToAuction[_tokenId];\n//        require(!bid.isClosed);\n//        require(bid.horseId == _tokenId);\n//        require(tokenIdToAuctionParticipants[_tokenId].length == 0);\n//        bid.minPrice = _price;\n//        bid.closeTime += _addTime;\n//    }\n//\n//\n//    function applyBid(uint _tokenId) external payable{\n//        Horse storage horse = horses[_tokenId.sub(1)];\n//        require(horse.isOnAuction);\n//        Bid storage bid = tokenIdToAuction[_tokenId];\n//        require(!bid.isClosed);\n//        require(bid.minPrice <= msg.value);\n//        require(bid.host != msg.sender);\n//        tokenIdToAuctionParticipants[_tokenId].push(msg.sender);\n//        bid.participantsToBidPrice[msg.sender] += msg.value;\n//        if(bid.currentMax < bid.participantsToBidPrice[msg.sender]){\n//            bid.currentMax = bid.participantsToBidPrice[msg.sender];\n//            bid.currentMaxUser = msg.sender;\n//        }\n//    }\n//\n//    function withdrawBid(uint _tokenId) external {\n//        Horse storage horse = horses[_tokenId.sub(1)];\n//        horse.isOnAuction = false;\n//        Bid storage bid = tokenIdToAuction[_tokenId];\n//        require(bid.isClosed);\n//        address sender;\n//        uint payback;\n//        if(msg.sender == bid.currentMaxUser){\n//            transfer(bid.host,msg.sender,_tokenId);\n//            emit Transfer(bid.host,msg.sender,_tokenId, now);\n//        }else if(msg.sender == bid.host){\n//            payback = bid.currentMax;\n//            bid.currentMax = 0;\n//            bid.host.transfer(payback);\n//        }else{\n//            for(uint i=0;i<tokenIdToAuctionParticipants[_tokenId].length;i++){\n//                if(msg.sender == tokenIdToAuctionParticipants[_tokenId][i]){\n//                    sender = msg.sender;\n//                    payback = bid.participantsToBidPrice[sender];\n//                    bid.participantsToBidPrice[sender] = 0;\n//                }\n//            }\n//            sender.transfer(payback);\n//        }\n//    }\n//}\n\ncontract HorseGame is HorseBet{\n\n    constructor(address _geneInterface, address _raceFunctionInterface, address _lotteryFunctionInterface) public {\n        geneFunction = GeneFunctionInterface(_geneInterface);\n        raceFunction = RaceFunctionInterface(_raceFunctionInterface);\n        lotteryFunction = LotteryInterface(_lotteryFunctionInterface);\n    }\n\n    function setTrainTicketPrice(uint _price) external onlyOwner{\n        lotteryFunction.setTrainTicketPrice(_price);\n    }\n\n    function setDressUpTicketPrice(uint _price) external onlyOwner{\n        lotteryFunction.setDressUpTicketPrice(_price);\n    }\n\n    function setShuffleDressUpTicketPrice(uint _price) external onlyOwner{\n        lotteryFunction.setShuffleDressUpTicketPrice(_price);\n    }\n\n    function buyTrainTicket() external payable{\n        require(msg.value >= lotteryFunction.trainTicketPrice());\n        return lotteryFunction.buyTrainTicket(msg.value,msg.sender);\n    }\n\n    function buyShuffleDressUpTicket() external payable{\n        require(msg.value >= lotteryFunction.shuffleDressUpTicketPrice());\n        lotteryFunction.buyShuffleDressUpTicket(msg.value);\n    }\n\n    function buyDressUpTicket() external payable{\n        require(msg.value >= lotteryFunction.dressUpTicketPrice());\n        lotteryFunction.buyDressUpTicket(msg.value);\n    }\n\n    function trainTicketNum() external view returns(uint){\n        return lotteryFunction.trainTicketNum(msg.sender);\n    }\n\n    function dressUpTicketNum() external view returns(uint){\n      return lotteryFunction.dressUpTicketNum(msg.sender);\n    }\n\n    function shuffleDressUpTicketNum() external view returns(uint){\n      return lotteryFunction.shuffleDressUpTicketNum(msg.sender);\n    }\n\n    function shuffleDressUpTexture(uint _horseId, uint _nonce) external{\n        require(tokenOwner[_horseId] == msg.sender);\n        require(lotteryFunction.shuffleDressUpTicketNum(msg.sender) > 0);\n        lotteryFunction.shuffleDressUp(msg.sender);\n        Horse storage horse = horses[_horseId.sub(1)];\n        uint gene = horse.genes;\n        uint geneEnd = gene % (10 ** 20);\n        uint geneMiddle = gene % (10 ** 38);\n        uint fakeGene = geneFunction.generateReplaceGene(_nonce);\n        uint replaceGeneEnd = replaceGene % (10 ** 20);\n        uint replaceGene = fakeGene % (10 ** 38) - replaceGeneEnd;\n        horse.genes = gene - geneMiddle + replaceGene + geneEnd;\n    }\n\n    function dressUpTexture(uint _horseId, uint _index, uint _num) external{\n        require(tokenOwner[_horseId] == msg.sender);\n        require(lotteryFunction.dressUpTicketNum(msg.sender) > 0);\n        lotteryFunction.dressUpHorse(msg.sender);\n        Horse storage horse = horses[_horseId.sub(1)];\n        uint gene = horse.genes;\n        uint geneEnd = gene % (10 ** _index);\n        uint geneMiddle = gene % (10 ** (_index + 3));\n        uint replaceGene = _num ** _index;\n        horse.genes = gene - geneMiddle + replaceGene + geneEnd;\n    }\n\n    function trainHorse(uint _horseId) external {\n        require(tokenOwner[_horseId] == msg.sender);\n        require(lotteryFunction.trainTicketNum(msg.sender) > 0);\n        lotteryFunction.trainHorse(msg.sender);\n        Horse storage horse = horses[_horseId.sub(1)];\n        uint gene = horse.genes;\n        uint up = 0;\n        for(uint i=1; i<=5; i++){\n            uint info = gene % ((1000 ** i));\n            if(info < 9 * (1000 ** i / 10)){ up = up.add((1000 ** i / 100) * 5);}\n        }\n        horse.genes = horse.genes.add(up);\n        horseGenes[_horseId.sub(1)] = horse.genes;\n    }\n\n    function doTrainLottery() external{\n        lotteryFunction.doTrainLottery(msg.sender);\n    }\n\n    function doDressUpLottery() external{\n        lotteryFunction.doDressUpLottery(msg.sender);\n    }\n\n    function doShuffleDressUpLottery() external{\n        lotteryFunction.doShuffleDressUpLottery(msg.sender);\n    }\n\n    function doGiftHorseLottery() external{\n        lotteryFunction.doGiftHorseLottery(msg.sender);\n    }\n\n    function presentTrainTicket(address _user) external onlyOwner{\n        lotteryFunction.presentTrainTicket(_user);\n    }\n\n    function presentDressUpTicket(address _user) external onlyOwner{\n        lotteryFunction.presentDressUpTicket(_user);\n    }\n\n    function presentShuffleDressUpTicket(address _user) external onlyOwner{\n        lotteryFunction.presentShuffleDressUpTicket(_user);\n    }\n\n    function presentHorse(uint _tokenId, address _to) external onlyOwner{\n        transfer(msg.sender,_to,_tokenId);\n        emit GiftHorseLottery(msg.sender,_tokenId);\n    }\n\n    function trainTicketPrice() external view returns(uint){\n      return lotteryFunction.trainTicketPrice();\n    }\n\n    function dressUpTicketPrice() external view returns(uint){\n      return lotteryFunction.dressUpTicketPrice();\n    }\n\n    function shuffleDressUpTicketPrice() external view returns(uint){\n      return lotteryFunction.shuffleDressUpTicketPrice();\n    }\n}\n\n",
  "sourcePath": "/Users/yamamotojirou/Desktop/horseGame-ver2/contracts/HorseGame.sol",
  "compiler": {
    "name": "solc",
    "version": "0.4.24+commit.e67f0147.Emscripten.clang"
  },
  "schemaVersion": "2.0.1",
  "updatedAt": "2018-07-07T13:47:33.053Z"
}