{
  "contractName": "Lottery",
  "abi": [
    {
      "constant": true,
      "inputs": [],
      "name": "lotteryNum",
      "outputs": [
        {
          "name": "",
          "type": "uint256"
        }
      ],
      "payable": false,
      "stateMutability": "view",
      "type": "function"
    },
    {
      "inputs": [],
      "payable": false,
      "stateMutability": "nonpayable",
      "type": "constructor"
    },
    {
      "anonymous": false,
      "inputs": [
        {
          "indexed": true,
          "name": "_from",
          "type": "address"
        },
        {
          "indexed": false,
          "name": "_success",
          "type": "bool"
        },
        {
          "indexed": false,
          "name": "_type",
          "type": "string"
        },
        {
          "indexed": false,
          "name": "_now",
          "type": "uint256"
        }
      ],
      "name": "LotteryLog",
      "type": "event"
    },
    {
      "anonymous": false,
      "inputs": [
        {
          "indexed": true,
          "name": "_from",
          "type": "address"
        },
        {
          "indexed": false,
          "name": "_tokenId",
          "type": "uint256"
        }
      ],
      "name": "GiftHorseLottery",
      "type": "event"
    },
    {
      "constant": false,
      "inputs": [
        {
          "name": "_newOwner",
          "type": "address"
        }
      ],
      "name": "setOwner",
      "outputs": [],
      "payable": false,
      "stateMutability": "nonpayable",
      "type": "function"
    },
    {
      "constant": true,
      "inputs": [],
      "name": "trainTicketPrice",
      "outputs": [
        {
          "name": "",
          "type": "uint256"
        }
      ],
      "payable": false,
      "stateMutability": "view",
      "type": "function"
    },
    {
      "constant": true,
      "inputs": [],
      "name": "dressUpTicketPrice",
      "outputs": [
        {
          "name": "",
          "type": "uint256"
        }
      ],
      "payable": false,
      "stateMutability": "view",
      "type": "function"
    },
    {
      "constant": true,
      "inputs": [],
      "name": "shuffleDressUpTicketPrice",
      "outputs": [
        {
          "name": "",
          "type": "uint256"
        }
      ],
      "payable": false,
      "stateMutability": "view",
      "type": "function"
    },
    {
      "constant": true,
      "inputs": [
        {
          "name": "_user",
          "type": "address"
        }
      ],
      "name": "trainTicketNum",
      "outputs": [
        {
          "name": "",
          "type": "uint256"
        }
      ],
      "payable": false,
      "stateMutability": "view",
      "type": "function"
    },
    {
      "constant": true,
      "inputs": [
        {
          "name": "_user",
          "type": "address"
        }
      ],
      "name": "dressUpTicketNum",
      "outputs": [
        {
          "name": "",
          "type": "uint256"
        }
      ],
      "payable": false,
      "stateMutability": "view",
      "type": "function"
    },
    {
      "constant": true,
      "inputs": [
        {
          "name": "_user",
          "type": "address"
        }
      ],
      "name": "shuffleDressUpTicketNum",
      "outputs": [
        {
          "name": "",
          "type": "uint256"
        }
      ],
      "payable": false,
      "stateMutability": "view",
      "type": "function"
    },
    {
      "constant": true,
      "inputs": [
        {
          "name": "_user",
          "type": "address"
        }
      ],
      "name": "trainLottery",
      "outputs": [
        {
          "name": "",
          "type": "uint256"
        }
      ],
      "payable": false,
      "stateMutability": "view",
      "type": "function"
    },
    {
      "constant": true,
      "inputs": [
        {
          "name": "_user",
          "type": "address"
        }
      ],
      "name": "dressUpLottery",
      "outputs": [
        {
          "name": "",
          "type": "uint256"
        }
      ],
      "payable": false,
      "stateMutability": "view",
      "type": "function"
    },
    {
      "constant": true,
      "inputs": [
        {
          "name": "_user",
          "type": "address"
        }
      ],
      "name": "shuffleDressUpLottery",
      "outputs": [
        {
          "name": "",
          "type": "uint256"
        }
      ],
      "payable": false,
      "stateMutability": "view",
      "type": "function"
    },
    {
      "constant": true,
      "inputs": [
        {
          "name": "_user",
          "type": "address"
        }
      ],
      "name": "giftHorseLottery",
      "outputs": [
        {
          "name": "",
          "type": "uint256"
        }
      ],
      "payable": false,
      "stateMutability": "view",
      "type": "function"
    },
    {
      "constant": false,
      "inputs": [
        {
          "name": "_ownerContract",
          "type": "address"
        }
      ],
      "name": "setOwnerContract",
      "outputs": [],
      "payable": false,
      "stateMutability": "nonpayable",
      "type": "function"
    },
    {
      "constant": false,
      "inputs": [
        {
          "name": "_price",
          "type": "uint256"
        }
      ],
      "name": "setTrainTicketPrice",
      "outputs": [],
      "payable": false,
      "stateMutability": "nonpayable",
      "type": "function"
    },
    {
      "constant": false,
      "inputs": [
        {
          "name": "_price",
          "type": "uint256"
        }
      ],
      "name": "setDressUpTicketPrice",
      "outputs": [],
      "payable": false,
      "stateMutability": "nonpayable",
      "type": "function"
    },
    {
      "constant": false,
      "inputs": [
        {
          "name": "_price",
          "type": "uint256"
        }
      ],
      "name": "setShuffleDressUpTicketPrice",
      "outputs": [],
      "payable": false,
      "stateMutability": "nonpayable",
      "type": "function"
    },
    {
      "constant": false,
      "inputs": [
        {
          "name": "_price",
          "type": "uint256"
        },
        {
          "name": "_user",
          "type": "address"
        }
      ],
      "name": "buyTrainTicket",
      "outputs": [],
      "payable": false,
      "stateMutability": "nonpayable",
      "type": "function"
    },
    {
      "constant": false,
      "inputs": [
        {
          "name": "_price",
          "type": "uint256"
        },
        {
          "name": "_user",
          "type": "address"
        }
      ],
      "name": "buyShuffleDressUpTicket",
      "outputs": [],
      "payable": false,
      "stateMutability": "nonpayable",
      "type": "function"
    },
    {
      "constant": false,
      "inputs": [
        {
          "name": "_price",
          "type": "uint256"
        },
        {
          "name": "_user",
          "type": "address"
        }
      ],
      "name": "buyDressUpTicket",
      "outputs": [],
      "payable": false,
      "stateMutability": "nonpayable",
      "type": "function"
    },
    {
      "constant": false,
      "inputs": [
        {
          "name": "_user",
          "type": "address"
        }
      ],
      "name": "doTrainLottery",
      "outputs": [],
      "payable": false,
      "stateMutability": "nonpayable",
      "type": "function"
    },
    {
      "constant": false,
      "inputs": [
        {
          "name": "_user",
          "type": "address"
        }
      ],
      "name": "doDressUpLottery",
      "outputs": [],
      "payable": false,
      "stateMutability": "nonpayable",
      "type": "function"
    },
    {
      "constant": false,
      "inputs": [
        {
          "name": "_user",
          "type": "address"
        }
      ],
      "name": "doShuffleDressUpLottery",
      "outputs": [],
      "payable": false,
      "stateMutability": "nonpayable",
      "type": "function"
    },
    {
      "constant": false,
      "inputs": [
        {
          "name": "_user",
          "type": "address"
        }
      ],
      "name": "doGiftHorseLottery",
      "outputs": [],
      "payable": false,
      "stateMutability": "nonpayable",
      "type": "function"
    },
    {
      "constant": false,
      "inputs": [
        {
          "name": "_user",
          "type": "address"
        }
      ],
      "name": "presentTrainTicket",
      "outputs": [],
      "payable": false,
      "stateMutability": "nonpayable",
      "type": "function"
    },
    {
      "constant": false,
      "inputs": [
        {
          "name": "_user",
          "type": "address"
        }
      ],
      "name": "presentDressUpTicket",
      "outputs": [],
      "payable": false,
      "stateMutability": "nonpayable",
      "type": "function"
    },
    {
      "constant": false,
      "inputs": [
        {
          "name": "_user",
          "type": "address"
        }
      ],
      "name": "presentShuffleDressUpTicket",
      "outputs": [],
      "payable": false,
      "stateMutability": "nonpayable",
      "type": "function"
    },
    {
      "constant": false,
      "inputs": [
        {
          "name": "_user",
          "type": "address"
        }
      ],
      "name": "trainHorse",
      "outputs": [],
      "payable": false,
      "stateMutability": "nonpayable",
      "type": "function"
    },
    {
      "constant": false,
      "inputs": [
        {
          "name": "_user",
          "type": "address"
        }
      ],
      "name": "dressUpHorse",
      "outputs": [],
      "payable": false,
      "stateMutability": "nonpayable",
      "type": "function"
    },
    {
      "constant": false,
      "inputs": [
        {
          "name": "_user",
          "type": "address"
        }
      ],
      "name": "shuffleDressUp",
      "outputs": [],
      "payable": false,
      "stateMutability": "nonpayable",
      "type": "function"
    }
  ],
  "bytecode": "0x60806040526000600c5534801561001557600080fd5b5060018054600160a060020a031916331790556110ea806100376000396000f3006080604052600436106101745763ffffffff7c010000000000000000000000000000000000000000000000000000000060003504166305b4b2e181146101795780630da7dd171461019f57806313528022146101b757806313af4035146101d857806342ecd8f5146101f9578063478a78a51461021a57806357be8e2a1461024d578063622f6b7d1461027157806368dd6245146102895780636fe3d049146102aa578063706210f7146102c2578063733df841146102e35780637f248c44146102f8578063815e763514610319578063943fb7041461032e578063959ca12d14610343578063b467242314610364578063b5ebb7ec14610385578063bf352102146103a6578063c311ae00146103c7578063c824ee6e146103eb578063c874cf5d1461040c578063c9dab2961461042d578063d23ac1991461044e578063d3652f5a14610463578063d593bf7b14610484578063eb812a05146104a5578063ee163244146104c6578063ef354f65146104e7575b600080fd5b34801561018557600080fd5b5061019d600435600160a060020a0360243516610508565b005b3480156101ab57600080fd5b5061019d60043561057c565b3480156101c357600080fd5b5061019d600160a060020a0360043516610598565b3480156101e457600080fd5b5061019d600160a060020a03600435166105f5565b34801561020557600080fd5b5061019d600160a060020a036004351661063b565b34801561022657600080fd5b5061023b600160a060020a0360043516610698565b60408051918252519081900360200190f35b34801561025957600080fd5b5061019d600435600160a060020a03602435166106b3565b34801561027d57600080fd5b5061019d600435610727565b34801561029557600080fd5b5061023b600160a060020a0360043516610743565b3480156102b657600080fd5b5061019d60043561075e565b3480156102ce57600080fd5b5061019d600160a060020a036004351661077a565b3480156102ef57600080fd5b5061023b6107c0565b34801561030457600080fd5b5061023b600160a060020a03600435166107c6565b34801561032557600080fd5b5061023b6107e1565b34801561033a57600080fd5b5061023b6107e7565b34801561034f57600080fd5b5061019d600160a060020a03600435166107ed565b34801561037057600080fd5b5061019d600160a060020a036004351661082e565b34801561039157600080fd5b5061019d600160a060020a0360043516610a21565b3480156103b257600080fd5b5061019d600160a060020a0360043516610acc565b3480156103d357600080fd5b5061019d600435600160a060020a0360243516610b29565b3480156103f757600080fd5b5061023b600160a060020a0360043516610b9d565b34801561041857600080fd5b5061019d600160a060020a0360043516610bb8565b34801561043957600080fd5b5061023b600160a060020a0360043516610bf9565b34801561045a57600080fd5b5061023b610c14565b34801561046f57600080fd5b5061019d600160a060020a0360043516610c1a565b34801561049057600080fd5b5061023b600160a060020a0360043516610e0e565b3480156104b157600080fd5b5061019d600160a060020a0360043516610e29565b3480156104d257600080fd5b5061019d600160a060020a036004351661101d565b3480156104f357600080fd5b5061023b600160a060020a036004351661105e565b60008054600160a060020a0316331461052057600080fd5b6004548381151561052d57fe5b600160a060020a038416600090815260076020526040902054919004915061055b908263ffffffff61107916565b600160a060020a039092166000908152600760205260409020919091555050565b600054600160a060020a0316331461059357600080fd5b600255565b600054600160a060020a031633146105af57600080fd5b600160a060020a0381166000908152600660205260409020546105d990600163ffffffff61108c16565b600160a060020a03909116600090815260066020526040902055565b600154600160a060020a0316331461060c57600080fd5b6001805473ffffffffffffffffffffffffffffffffffffffff1916600160a060020a0392909216919091179055565b600054600160a060020a0316331461065257600080fd5b600160a060020a03811660009081526005602052604090205461067c90600163ffffffff61108c16565b600160a060020a03909116600090815260056020526040902055565b600160a060020a031660009081526006602052604090205490565b60008054600160a060020a031633146106cb57600080fd5b600354838115156106d857fe5b600160a060020a0384166000908152600660205260409020549190049150610706908263ffffffff61107916565b600160a060020a039092166000908152600660205260409020919091555050565b600054600160a060020a0316331461073e57600080fd5b600355565b600160a060020a031660009081526007602052604090205490565b600054600160a060020a0316331461077557600080fd5b600455565b600154600160a060020a0316331461079157600080fd5b6000805473ffffffffffffffffffffffffffffffffffffffff1916600160a060020a0392909216919091179055565b600c5481565b600160a060020a03166000908152600a602052604090205490565b60035490565b60025490565b600054600160a060020a0316331461080457600080fd5b600160a060020a0381166000908152600660205260409020546105d990600163ffffffff61107916565b60008054600160a060020a0316331461084657600080fd5b600160a060020a0382166000908152600860205260409020546201518042919091031161087257600080fd5b600c5461088690600163ffffffff61107916565b600c908155600160a060020a038316600090815260086020908152604091829020429055915481514360001901409091188184015281518082038401815290820191829052805190928291908401908083835b602083106108f85780518252601f1990920191602091820191016108d9565b5181516020939093036101000a60001901801990911692169190911790526040519201829003909120935060059250606491508390500610156109b557600160a060020a03821660008181526005602081815260409283902080546001908101909155835190815242818501526060918101829052908101919091527f747261696e0000000000000000000000000000000000000000000000000000006080820152905160008051602061109f8339815191529181900360a00190a25b604080516000815242818301526060602082018190526005908201527f747261696e00000000000000000000000000000000000000000000000000000060808201529051600160a060020a0384169160008051602061109f833981519152919081900360a00190a25050565b600054600160a060020a03163314610a3857600080fd5b600160a060020a0381166000908152600b602052604090205462015180429190910311610a6457600080fd5b600c54610a7890600163ffffffff61107916565b600c55600160a060020a0381166000818152600b602090815260408083204290558051928352517f336489adf502898b71807b76c6e11e2b7fed29cfea79af88178d5228b7d79eed9281900390910190a250565b600054600160a060020a03163314610ae357600080fd5b600160a060020a038116600090815260076020526040902054610b0d90600163ffffffff61108c16565b600160a060020a03909116600090815260076020526040902055565b60008054600160a060020a03163314610b4157600080fd5b60025483811515610b4e57fe5b600160a060020a0384166000908152600560205260409020549190049150610b7c908263ffffffff61107916565b600160a060020a039092166000908152600560205260409020919091555050565b600160a060020a031660009081526008602052604090205490565b600054600160a060020a03163314610bcf57600080fd5b600160a060020a038116600090815260076020526040902054610b0d90600163ffffffff61107916565b600160a060020a031660009081526009602052604090205490565b60045490565b60008054600160a060020a03163314610c3257600080fd5b600160a060020a0382166000908152600a602052604090205462015180429190910311610c5e57600080fd5b600c54610c7290600163ffffffff61107916565b600c908155600160a060020a0383166000908152600a6020908152604091829020429055915481514360001901409091188184015281518082038401815290820191829052805190928291908401908083835b60208310610ce45780518252601f199092019160209182019101610cc5565b5181516020939093036101000a60001901801990911692169190911790526040519201829003909120935060059250606491508390500611610da257600160a060020a03821660008181526007602090815260409182902080546001908101909155825190815242818401526060918101829052600a918101919091527f732d64726573732d7570000000000000000000000000000000000000000000006080820152905160008051602061109f8339815191529181900360a00190a25b60408051600081524281830152606060208201819052600a908201527f732d64726573732d75700000000000000000000000000000000000000000000060808201529051600160a060020a0384169160008051602061109f833981519152919081900360a00190a25050565b600160a060020a031660009081526005602052604090205490565b60008054600160a060020a03163314610e4157600080fd5b600160a060020a03821660009081526009602052604090205462015180429190910311610e6d57600080fd5b600c54610e8190600163ffffffff61107916565b600c908155600160a060020a038316600090815260096020908152604091829020429055915481514360001901409091188184015281518082038401815290820191829052805190928291908401908083835b60208310610ef35780518252601f199092019160209182019101610ed4565b5181516020939093036101000a60001901801990911692169190911790526040519201829003909120935060029250603291508390500611610fb157600160a060020a038216600081815260066020908152604091829020805460019081019091558251908152428184015260609181018290526008918101919091527f64726573732d75700000000000000000000000000000000000000000000000006080820152905160008051602061109f8339815191529181900360a00190a25b604080516000815242818301526060602082018190526008908201527f64726573732d757000000000000000000000000000000000000000000000000060808201529051600160a060020a0384169160008051602061109f833981519152919081900360a00190a25050565b600054600160a060020a0316331461103457600080fd5b600160a060020a03811660009081526005602052604090205461067c90600163ffffffff61107916565b600160a060020a03166000908152600b602052604090205490565b8181018281101561108657fe5b92915050565b60008282111561109857fe5b5090039056005215d8c878c9c4194fd280c08c00e181f5b28fa56df30cf7f90bb7843807bf4ea165627a7a723058201b073e547243aefbca990cd8ba11976ae1526209a38c00eb91ec19cc02c579a10029",
  "source": "pragma solidity ^0.4.23;\nlibrary SafeMath{\n\n    function mul(uint a, uint b) internal pure returns(uint c){\n        if (a == 0){\n            return 0;\n        }\n        c = a * b;\n        assert(c / a == b);\n        return c;\n    }\n\n    function div(uint a, uint b) internal pure returns(uint){\n        return a / b;\n    }\n\n    function sub(uint a, uint b) internal pure returns (uint) {\n        assert(b <= a);\n        return a - b;\n    }\n\n    function add(uint a, uint b) internal pure returns (uint c) {\n        c = a + b;\n        assert(c >= a);\n        return c;\n    }\n}\n\n\n\ncontract Lottery{\n\n    using SafeMath for uint256;\n\n    modifier onlyOwnerContract(){\n        require(msg.sender == ownerContract);\n        _;\n    }\n    modifier onlyOwner{\n        require(msg.sender == owner);\n        _;\n    }\n    address ownerContract;\n    address owner;\n    uint trainPrice;\n    uint dressUpPrice;\n    uint shuffleDressUpPrice;\n    mapping(address => uint) trainTicketNumber; //ticket number\n    mapping(address => uint) dressUpTicketNumber; // ticket number\n    mapping(address => uint) shuffleDressUpTicketNumber; // all ticket number\n    mapping(address => uint) trainLotteryTime; //address to the last time to do a lottery\n    mapping(address => uint) dressUpLotteryTime;\n    mapping(address => uint) shuffleDressUpLotteryTime;\n    mapping(address => uint) giftHorseLotteryTime;\n    uint public lotteryNum=0;\n\n    event LotteryLog(address indexed _from, bool _success, string _type, uint _now);\n    event GiftHorseLottery(address indexed _from, uint _tokenId);\n\n    constructor() public{\n        owner = msg.sender;\n    }\n\n    function setOwner(address _newOwner) external onlyOwner{\n        owner = _newOwner;\n    }\n\n    function trainTicketPrice() external view returns(uint){\n        return trainPrice;\n    }\n\n    function dressUpTicketPrice() external view returns(uint){\n        return dressUpPrice;\n    }\n\n    function shuffleDressUpTicketPrice() external view returns(uint){\n        return shuffleDressUpPrice;\n    }\n\n    function trainTicketNum(address _user) external view returns(uint){\n        return trainTicketNumber[_user];\n    }\n\n    function dressUpTicketNum(address _user) external view returns(uint){\n        return dressUpTicketNumber[_user];\n    }\n\n    function shuffleDressUpTicketNum(address _user) external view returns(uint) {\n        return shuffleDressUpTicketNumber[_user];\n    }\n\n    function trainLottery(address _user) external view returns (uint) {\n        return trainLotteryTime[_user];\n    }\n\n    function dressUpLottery(address _user) external view returns (uint) {\n        return dressUpLotteryTime[_user];\n    }\n\n    function shuffleDressUpLottery(address _user) external view returns(uint){\n        return shuffleDressUpLotteryTime[_user];\n    }\n\n    function giftHorseLottery(address _user) external view returns(uint){\n        return giftHorseLotteryTime[_user];\n    }\n\n    function setOwnerContract(address _ownerContract) external onlyOwner{\n        ownerContract = _ownerContract;\n    }\n\n    function setTrainTicketPrice(uint _price) external onlyOwnerContract{\n        trainPrice = _price;\n    }\n\n    function setDressUpTicketPrice(uint _price) external onlyOwnerContract{\n        dressUpPrice = _price;\n    }\n\n    function setShuffleDressUpTicketPrice(uint _price) external onlyOwnerContract{\n        shuffleDressUpPrice = _price;\n    }\n\n    function buyTrainTicket(uint _price,address _user) external onlyOwnerContract{\n        uint num = _price / trainPrice;\n        trainTicketNumber[_user] = trainTicketNumber[_user].add(num);\n    }\n\n    function buyShuffleDressUpTicket(uint _price, address _user) external onlyOwnerContract{\n        uint num = _price / shuffleDressUpPrice;\n        shuffleDressUpTicketNumber[_user] = shuffleDressUpTicketNumber[_user].add(num);\n    }\n\n    function buyDressUpTicket(uint _price, address _user) external onlyOwnerContract{\n        uint num = _price / dressUpPrice;\n        dressUpTicketNumber[_user] = dressUpTicketNumber[_user].add(num);\n    }\n\n\n    function doTrainLottery(address _user) external onlyOwnerContract{\n        require((now - trainLotteryTime[_user]) > 24 hours);\n        lotteryNum = lotteryNum.add(1);\n        trainLotteryTime[_user] = now;\n        uint _seed = uint(keccak256(abi.encodePacked(bytes32(lotteryNum)^blockhash(block.number-1))));\n        if((_seed % 100) < 5){\n            trainTicketNumber[_user] += 1;\n            emit LotteryLog(_user,true,'train', now);\n        }\n        emit LotteryLog(_user,false,'train', now);\n    }\n\n    function doDressUpLottery(address _user) external onlyOwnerContract{\n        require((now - dressUpLotteryTime[_user]) > 24 hours);\n        lotteryNum = lotteryNum.add(1);\n        dressUpLotteryTime[_user] = now;\n        uint _seed = uint(keccak256(abi.encodePacked(bytes32(lotteryNum)^blockhash(block.number-1))));\n        if((_seed % 50) <= 2){\n            dressUpTicketNumber[_user] += 1;\n            emit LotteryLog(_user,true,'dress-up', now);\n        }\n        emit LotteryLog(_user,false,'dress-up', now);\n    }\n\n    function doShuffleDressUpLottery(address _user) external onlyOwnerContract{\n        require((now - shuffleDressUpLotteryTime[_user]) > 24 hours);\n        lotteryNum=lotteryNum.add(1);\n        shuffleDressUpLotteryTime[_user] = now;\n        uint _seed = uint(keccak256(abi.encodePacked(bytes32(lotteryNum)^blockhash(block.number-1))));\n        if((_seed % 100) <= 5){\n            shuffleDressUpTicketNumber[_user] += 1;\n            emit LotteryLog(_user,true,'s-dress-up', now);\n        }\n        emit LotteryLog(_user,false,'s-dress-up', now);\n    }\n\n    function doGiftHorseLottery(address _user) external onlyOwnerContract{\n        require((now - giftHorseLotteryTime[_user]) > 24 hours);\n        lotteryNum = lotteryNum.add(1);\n        giftHorseLotteryTime[_user] = now;\n        emit GiftHorseLottery(_user,0);\n    }\n\n    function presentTrainTicket(address _user) external onlyOwnerContract{\n        trainTicketNumber[_user]  = trainTicketNumber[_user].add(1);\n    }\n\n    function presentDressUpTicket(address _user) external onlyOwnerContract{\n        dressUpTicketNumber[_user] = dressUpTicketNumber[_user].add(1);\n    }\n\n    function presentShuffleDressUpTicket(address _user) external onlyOwnerContract{\n        shuffleDressUpTicketNumber[_user] = shuffleDressUpTicketNumber[_user].add(1);\n    }\n\n    function trainHorse(address _user) external onlyOwnerContract{\n        trainTicketNumber[_user] = trainTicketNumber[_user].sub(1);\n    }\n\n    function dressUpHorse(address _user) external onlyOwnerContract{\n        dressUpTicketNumber[_user] = dressUpTicketNumber[_user].sub(1);\n    }\n    \n    function shuffleDressUp(address _user) external onlyOwnerContract{\n        shuffleDressUpTicketNumber[_user] = shuffleDressUpTicketNumber[_user].sub(1);\n    }\n\n}\n\n\n",
  "sourcePath": "/Users/yamamotojirou/Desktop/EthHorse関連/horseGame-ver2/contracts/Lottery.sol",
  "compiler": {
    "name": "solc",
    "version": "0.4.24+commit.e67f0147.Emscripten.clang"
  },
  "schemaVersion": "2.0.1",
  "updatedAt": "2018-07-25T03:47:29.892Z"
}