{
  "contractName": "Lottery",
  "abi": [
    {
      "constant": true,
      "inputs": [
        {
          "name": "",
          "type": "address"
        }
      ],
      "name": "dressUpTicketNum",
      "outputs": [
        {
          "name": "",
          "type": "uint256"
        }
      ],
      "payable": false,
      "stateMutability": "view",
      "type": "function"
    },
    {
      "constant": true,
      "inputs": [
        {
          "name": "",
          "type": "address"
        }
      ],
      "name": "shuffleDressUpTicketNum",
      "outputs": [
        {
          "name": "",
          "type": "uint256"
        }
      ],
      "payable": false,
      "stateMutability": "view",
      "type": "function"
    },
    {
      "constant": true,
      "inputs": [],
      "name": "lotteryNum",
      "outputs": [
        {
          "name": "",
          "type": "uint256"
        }
      ],
      "payable": false,
      "stateMutability": "view",
      "type": "function"
    },
    {
      "constant": true,
      "inputs": [
        {
          "name": "",
          "type": "address"
        }
      ],
      "name": "shuffleDressUpLottery",
      "outputs": [
        {
          "name": "",
          "type": "uint256"
        }
      ],
      "payable": false,
      "stateMutability": "view",
      "type": "function"
    },
    {
      "constant": true,
      "inputs": [],
      "name": "dressUpTicketPrice",
      "outputs": [
        {
          "name": "",
          "type": "uint256"
        }
      ],
      "payable": false,
      "stateMutability": "view",
      "type": "function"
    },
    {
      "constant": true,
      "inputs": [],
      "name": "trainTicketPrice",
      "outputs": [
        {
          "name": "",
          "type": "uint256"
        }
      ],
      "payable": false,
      "stateMutability": "view",
      "type": "function"
    },
    {
      "constant": true,
      "inputs": [
        {
          "name": "",
          "type": "address"
        }
      ],
      "name": "trainLottery",
      "outputs": [
        {
          "name": "",
          "type": "uint256"
        }
      ],
      "payable": false,
      "stateMutability": "view",
      "type": "function"
    },
    {
      "constant": true,
      "inputs": [
        {
          "name": "",
          "type": "address"
        }
      ],
      "name": "dressUpLottery",
      "outputs": [
        {
          "name": "",
          "type": "uint256"
        }
      ],
      "payable": false,
      "stateMutability": "view",
      "type": "function"
    },
    {
      "constant": true,
      "inputs": [],
      "name": "shuffleDressUpTicketPrice",
      "outputs": [
        {
          "name": "",
          "type": "uint256"
        }
      ],
      "payable": false,
      "stateMutability": "view",
      "type": "function"
    },
    {
      "constant": true,
      "inputs": [
        {
          "name": "",
          "type": "address"
        }
      ],
      "name": "trainTicketNum",
      "outputs": [
        {
          "name": "",
          "type": "uint256"
        }
      ],
      "payable": false,
      "stateMutability": "view",
      "type": "function"
    },
    {
      "constant": true,
      "inputs": [
        {
          "name": "",
          "type": "address"
        }
      ],
      "name": "giftHorseLottery",
      "outputs": [
        {
          "name": "",
          "type": "uint256"
        }
      ],
      "payable": false,
      "stateMutability": "view",
      "type": "function"
    },
    {
      "inputs": [],
      "payable": false,
      "stateMutability": "nonpayable",
      "type": "constructor"
    },
    {
      "anonymous": false,
      "inputs": [
        {
          "indexed": true,
          "name": "_from",
          "type": "address"
        },
        {
          "indexed": false,
          "name": "_success",
          "type": "bool"
        },
        {
          "indexed": false,
          "name": "_type",
          "type": "string"
        },
        {
          "indexed": false,
          "name": "_now",
          "type": "uint256"
        }
      ],
      "name": "LotteryLog",
      "type": "event"
    },
    {
      "anonymous": false,
      "inputs": [
        {
          "indexed": true,
          "name": "_from",
          "type": "address"
        },
        {
          "indexed": false,
          "name": "_tokenId",
          "type": "uint256"
        }
      ],
      "name": "GiftHorseLottery",
      "type": "event"
    },
    {
      "constant": false,
      "inputs": [
        {
          "name": "_newOwner",
          "type": "address"
        }
      ],
      "name": "setOwner",
      "outputs": [],
      "payable": false,
      "stateMutability": "nonpayable",
      "type": "function"
    },
    {
      "constant": false,
      "inputs": [
        {
          "name": "_ownerContract",
          "type": "address"
        }
      ],
      "name": "setOwnerContract",
      "outputs": [],
      "payable": false,
      "stateMutability": "nonpayable",
      "type": "function"
    },
    {
      "constant": false,
      "inputs": [
        {
          "name": "_price",
          "type": "uint256"
        }
      ],
      "name": "setTrainTicketPrice",
      "outputs": [],
      "payable": false,
      "stateMutability": "nonpayable",
      "type": "function"
    },
    {
      "constant": false,
      "inputs": [
        {
          "name": "_price",
          "type": "uint256"
        }
      ],
      "name": "setDressUpTicketPrice",
      "outputs": [],
      "payable": false,
      "stateMutability": "nonpayable",
      "type": "function"
    },
    {
      "constant": false,
      "inputs": [
        {
          "name": "_price",
          "type": "uint256"
        }
      ],
      "name": "setShuffleDressUpTicketPrice",
      "outputs": [],
      "payable": false,
      "stateMutability": "nonpayable",
      "type": "function"
    },
    {
      "constant": false,
      "inputs": [
        {
          "name": "_price",
          "type": "uint256"
        },
        {
          "name": "_user",
          "type": "address"
        }
      ],
      "name": "buyTrainTicket",
      "outputs": [],
      "payable": false,
      "stateMutability": "nonpayable",
      "type": "function"
    },
    {
      "constant": false,
      "inputs": [
        {
          "name": "_price",
          "type": "uint256"
        }
      ],
      "name": "buyShuffleDressUpTicket",
      "outputs": [],
      "payable": false,
      "stateMutability": "nonpayable",
      "type": "function"
    },
    {
      "constant": false,
      "inputs": [
        {
          "name": "_price",
          "type": "uint256"
        }
      ],
      "name": "buyDressUpTicket",
      "outputs": [],
      "payable": false,
      "stateMutability": "nonpayable",
      "type": "function"
    },
    {
      "constant": false,
      "inputs": [
        {
          "name": "_user",
          "type": "address"
        }
      ],
      "name": "doTrainLottery",
      "outputs": [],
      "payable": false,
      "stateMutability": "nonpayable",
      "type": "function"
    },
    {
      "constant": false,
      "inputs": [
        {
          "name": "_user",
          "type": "address"
        }
      ],
      "name": "doDressUpLottery",
      "outputs": [],
      "payable": false,
      "stateMutability": "nonpayable",
      "type": "function"
    },
    {
      "constant": false,
      "inputs": [
        {
          "name": "_user",
          "type": "address"
        }
      ],
      "name": "doShuffleDressUpLottery",
      "outputs": [],
      "payable": false,
      "stateMutability": "nonpayable",
      "type": "function"
    },
    {
      "constant": false,
      "inputs": [
        {
          "name": "_user",
          "type": "address"
        }
      ],
      "name": "doGiftHorseLottery",
      "outputs": [],
      "payable": false,
      "stateMutability": "nonpayable",
      "type": "function"
    },
    {
      "constant": false,
      "inputs": [
        {
          "name": "_user",
          "type": "address"
        }
      ],
      "name": "presentTrainTicket",
      "outputs": [],
      "payable": false,
      "stateMutability": "nonpayable",
      "type": "function"
    },
    {
      "constant": false,
      "inputs": [
        {
          "name": "_user",
          "type": "address"
        }
      ],
      "name": "presentDressUpTicket",
      "outputs": [],
      "payable": false,
      "stateMutability": "nonpayable",
      "type": "function"
    },
    {
      "constant": false,
      "inputs": [
        {
          "name": "_user",
          "type": "address"
        }
      ],
      "name": "presentShuffleDressUpTicket",
      "outputs": [],
      "payable": false,
      "stateMutability": "nonpayable",
      "type": "function"
    },
    {
      "constant": false,
      "inputs": [
        {
          "name": "_user",
          "type": "address"
        }
      ],
      "name": "trainHorse",
      "outputs": [],
      "payable": false,
      "stateMutability": "nonpayable",
      "type": "function"
    },
    {
      "constant": false,
      "inputs": [
        {
          "name": "_user",
          "type": "address"
        }
      ],
      "name": "dressUpHorse",
      "outputs": [],
      "payable": false,
      "stateMutability": "nonpayable",
      "type": "function"
    },
    {
      "constant": false,
      "inputs": [
        {
          "name": "_user",
          "type": "address"
        }
      ],
      "name": "shuffleDressUp",
      "outputs": [],
      "payable": false,
      "stateMutability": "nonpayable",
      "type": "function"
    }
  ],
  "bytecode": "0x60806040526000600c5534801561001557600080fd5b5060018054600160a060020a0319163317905561103b806100376000396000f3006080604052600436106101745763ffffffff7c01000000000000000000000000000000000000000000000000000000006000350416630da7dd178114610179578063135280221461019357806313af4035146101b457806342ecd8f5146101d5578063478a78a5146101f6578063622f6b7d1461022957806368dd6245146102415780636fe3d04914610262578063706210f71461027a578063733df8411461029b5780637f248c44146102b0578063815e7635146102d1578063943fb704146102e6578063959ca12d146102fb5780639f4ec8f51461031c578063b467242314610334578063b5ebb7ec14610355578063ba523dce14610376578063bf3521021461038e578063c311ae00146103af578063c824ee6e146103d3578063c874cf5d146103f4578063c9dab29614610415578063d23ac19914610436578063d3652f5a1461044b578063d593bf7b1461046c578063eb812a051461048d578063ee163244146104ae578063ef354f65146104cf575b600080fd5b34801561018557600080fd5b506101916004356104f0565b005b34801561019f57600080fd5b50610191600160a060020a036004351661050c565b3480156101c057600080fd5b50610191600160a060020a0360043516610569565b3480156101e157600080fd5b50610191600160a060020a03600435166105af565b34801561020257600080fd5b50610217600160a060020a036004351661060c565b60408051918252519081900360200190f35b34801561023557600080fd5b5061019160043561061e565b34801561024d57600080fd5b50610217600160a060020a036004351661063a565b34801561026e57600080fd5b5061019160043561064c565b34801561028657600080fd5b50610191600160a060020a0360043516610668565b3480156102a757600080fd5b506102176106ae565b3480156102bc57600080fd5b50610217600160a060020a03600435166106b4565b3480156102dd57600080fd5b506102176106c6565b3480156102f257600080fd5b506102176106cc565b34801561030757600080fd5b50610191600160a060020a03600435166106d2565b34801561032857600080fd5b50610191600435610713565b34801561034057600080fd5b50610191600160a060020a0360043516610771565b34801561036157600080fd5b50610191600160a060020a036004351661095a565b34801561038257600080fd5b506101916004356109f7565b34801561039a57600080fd5b50610191600160a060020a0360043516610a55565b3480156103bb57600080fd5b50610191600435600160a060020a0360243516610ab2565b3480156103df57600080fd5b50610217600160a060020a0360043516610b26565b34801561040057600080fd5b50610191600160a060020a0360043516610b38565b34801561042157600080fd5b50610217600160a060020a0360043516610b79565b34801561044257600080fd5b50610217610b8b565b34801561045757600080fd5b50610191600160a060020a0360043516610b91565b34801561047857600080fd5b50610217600160a060020a0360043516610d7b565b34801561049957600080fd5b50610191600160a060020a0360043516610d8d565b3480156104ba57600080fd5b50610191600160a060020a0360043516610f77565b3480156104db57600080fd5b50610217600160a060020a0360043516610fb8565b600054600160a060020a0316331461050757600080fd5b600255565b600054600160a060020a0316331461052357600080fd5b600160a060020a03811660009081526006602052604090205461054d90600163ffffffff610fca16565b600160a060020a03909116600090815260066020526040902055565b600154600160a060020a0316331461058057600080fd5b6001805473ffffffffffffffffffffffffffffffffffffffff1916600160a060020a0392909216919091179055565b600054600160a060020a031633146105c657600080fd5b600160a060020a0381166000908152600560205260409020546105f090600163ffffffff610fca16565b600160a060020a03909116600090815260056020526040902055565b60066020526000908152604090205481565b600054600160a060020a0316331461063557600080fd5b600355565b60076020526000908152604090205481565b600054600160a060020a0316331461066357600080fd5b600455565b600154600160a060020a0316331461067f57600080fd5b6000805473ffffffffffffffffffffffffffffffffffffffff1916600160a060020a0392909216919091179055565b600c5481565b600a6020526000908152604090205481565b60035481565b60025481565b600054600160a060020a031633146106e957600080fd5b600160a060020a03811660009081526006602052604090205461054d90600163ffffffff610fdc16565b60008054600160a060020a0316331461072b57600080fd5b6003548281151561073857fe5b33600090815260066020526040902054919004915061075d908263ffffffff610fdc16565b336000908152600660205260409020555050565b60008054600160a060020a0316331461078957600080fd5b600160a060020a038216600090815260086020526040902054620151804291909103116107b557600080fd5b600c80546001018155600160a060020a038316600090815260086020908152604091829020429055915481518084019190915260001943014081830152815180820383018152606090910191829052805190928291908401908083835b602083106108315780518252601f199092019160209182019101610812565b5181516020939093036101000a60001901801990911692169190911790526040519201829003909120935060059250606491508390500610156108ee57600160a060020a03821660008181526005602081815260409283902080546001908101909155835190815242818501526060918101829052908101919091527f747261696e00000000000000000000000000000000000000000000000000000060808201529051600080516020610ff08339815191529181900360a00190a25b604080516000815242818301526060602082018190526005908201527f747261696e00000000000000000000000000000000000000000000000000000060808201529051600160a060020a03841691600080516020610ff0833981519152919081900360a00190a25050565b600054600160a060020a0316331461097157600080fd5b600160a060020a0381166000908152600b60205260409020546201518042919091031161099d57600080fd5b600c80546001019055600160a060020a0381166000818152600b602090815260408083204290558051928352517f336489adf502898b71807b76c6e11e2b7fed29cfea79af88178d5228b7d79eed9281900390910190a250565b60008054600160a060020a03163314610a0f57600080fd5b60045482811515610a1c57fe5b336000908152600760205260409020549190049150610a41908263ffffffff610fdc16565b336000908152600760205260409020555050565b600054600160a060020a03163314610a6c57600080fd5b600160a060020a038116600090815260076020526040902054610a9690600163ffffffff610fca16565b600160a060020a03909116600090815260076020526040902055565b60008054600160a060020a03163314610aca57600080fd5b60025483811515610ad757fe5b600160a060020a0384166000908152600560205260409020549190049150610b05908263ffffffff610fdc16565b600160a060020a039092166000908152600560205260409020919091555050565b60086020526000908152604090205481565b600054600160a060020a03163314610b4f57600080fd5b600160a060020a038116600090815260076020526040902054610a9690600163ffffffff610fdc16565b60096020526000908152604090205481565b60045481565b60008054600160a060020a03163314610ba957600080fd5b600160a060020a0382166000908152600a602052604090205462015180429190910311610bd557600080fd5b600c80546001018155600160a060020a0383166000908152600a6020908152604091829020429055915481518084019190915260001943014081830152815180820383018152606090910191829052805190928291908401908083835b60208310610c515780518252601f199092019160209182019101610c32565b5181516020939093036101000a60001901801990911692169190911790526040519201829003909120935060059250606491508390500611610d0f57600160a060020a03821660008181526007602090815260409182902080546001908101909155825190815242818401526060918101829052600a918101919091527f732d64726573732d75700000000000000000000000000000000000000000000060808201529051600080516020610ff08339815191529181900360a00190a25b60408051600081524281830152606060208201819052600a908201527f732d64726573732d75700000000000000000000000000000000000000000000060808201529051600160a060020a03841691600080516020610ff0833981519152919081900360a00190a25050565b60056020526000908152604090205481565b60008054600160a060020a03163314610da557600080fd5b600160a060020a03821660009081526009602052604090205462015180429190910311610dd157600080fd5b600c80546001018155600160a060020a038316600090815260096020908152604091829020429055915481518084019190915260001943014081830152815180820383018152606090910191829052805190928291908401908083835b60208310610e4d5780518252601f199092019160209182019101610e2e565b5181516020939093036101000a60001901801990911692169190911790526040519201829003909120935060029250603291508390500611610f0b57600160a060020a038216600081815260066020908152604091829020805460019081019091558251908152428184015260609181018290526008918101919091527f64726573732d757000000000000000000000000000000000000000000000000060808201529051600080516020610ff08339815191529181900360a00190a25b604080516000815242818301526060602082018190526008908201527f64726573732d757000000000000000000000000000000000000000000000000060808201529051600160a060020a03841691600080516020610ff0833981519152919081900360a00190a25050565b600054600160a060020a03163314610f8e57600080fd5b600160a060020a0381166000908152600560205260409020546105f090600163ffffffff610fdc16565b600b6020526000908152604090205481565b600082821115610fd657fe5b50900390565b81810182811015610fe957fe5b9291505056005215d8c878c9c4194fd280c08c00e181f5b28fa56df30cf7f90bb7843807bf4ea165627a7a7230582093954e02928afb830b0d9694c8ddeeabbf894b5d56d4e0cd777f38e0a56f94030029",
  "source": "pragma solidity ^0.4.23;\nlibrary SafeMath{\n\n    function mul(uint a, uint b) internal pure returns(uint c){\n        if (a == 0){\n            return 0;\n        }\n        c = a * b;\n        assert(c / a == b);\n        return c;\n    }\n\n    function div(uint a, uint b) internal pure returns(uint){\n        return a / b;\n    }\n\n    function sub(uint a, uint b) internal pure returns (uint) {\n        assert(b <= a);\n        return a - b;\n    }\n\n    function add(uint a, uint b) internal pure returns (uint c) {\n        c = a + b;\n        assert(c >= a);\n        return c;\n    }\n}\n\n\n\ncontract Lottery{\n\n    using SafeMath for uint256;\n\n    modifier onlyOwnerContract(){\n        require(msg.sender == ownerContract);\n        _;\n    }\n    modifier onlyOwner{\n        require(msg.sender == owner);\n        _;\n    }\n    address ownerContract;\n    address owner;\n    uint public trainTicketPrice;\n    uint public dressUpTicketPrice;\n    uint public shuffleDressUpTicketPrice;\n    mapping(address => uint) public trainTicketNum; //ticket number\n    mapping(address => uint) public dressUpTicketNum; // ticket number\n    mapping(address => uint) public shuffleDressUpTicketNum; // all ticket number\n    mapping(address => uint) public trainLottery; //address to the last time to do a lottery\n    mapping(address => uint) public dressUpLottery;\n    mapping(address => uint) public shuffleDressUpLottery;\n    mapping(address => uint) public giftHorseLottery;\n    uint public lotteryNum=0;\n\n    event LotteryLog(address indexed _from, bool _success, string _type, uint _now);\n    event GiftHorseLottery(address indexed _from, uint _tokenId);\n\n    constructor() public{\n        owner = msg.sender;\n    }\n\n    function setOwner(address _newOwner) external onlyOwner{\n        owner = _newOwner;\n    }\n\n\n    function setOwnerContract(address _ownerContract) external onlyOwner{\n        ownerContract = _ownerContract;\n    }\n\n    function setTrainTicketPrice(uint _price) external onlyOwnerContract{\n        trainTicketPrice = _price;\n    }\n\n    function setDressUpTicketPrice(uint _price) external onlyOwnerContract{\n        dressUpTicketPrice = _price;\n    }\n\n    function setShuffleDressUpTicketPrice(uint _price) external onlyOwnerContract{\n        shuffleDressUpTicketPrice = _price;\n    }\n\n    function buyTrainTicket(uint _price,address _user) external onlyOwnerContract{\n        uint num = _price / trainTicketPrice;\n        trainTicketNum[_user] = trainTicketNum[_user].add(num);\n    }\n\n    function buyShuffleDressUpTicket(uint _price) external onlyOwnerContract{\n        uint num = _price / shuffleDressUpTicketPrice;\n        shuffleDressUpTicketNum[msg.sender] = shuffleDressUpTicketNum[msg.sender].add(num);\n    }\n\n    function buyDressUpTicket(uint _price) external onlyOwnerContract{\n        uint num = _price / dressUpTicketPrice;\n        dressUpTicketNum[msg.sender] = dressUpTicketNum[msg.sender].add(num);\n    }\n\n\n    function doTrainLottery(address _user) external onlyOwnerContract{\n        require((now - trainLottery[_user]) > 24 hours);\n        lotteryNum += 1;\n        trainLottery[_user] = now;\n        uint _seed = uint(keccak256(abi.encodePacked(lotteryNum,blockhash(block.number-1))));\n        if((_seed % 100) < 5){\n            trainTicketNum[_user] += 1;\n            emit LotteryLog(_user,true,'train', now);\n        }\n        emit LotteryLog(_user,false,'train', now);\n    }\n\n    function doDressUpLottery(address _user) external onlyOwnerContract{\n        require((now - dressUpLottery[_user]) > 24 hours);\n        lotteryNum += 1;\n        dressUpLottery[_user] = now;\n        uint _seed = uint(keccak256(abi.encodePacked(lotteryNum,blockhash(block.number-1))));\n        if((_seed % 50) <= 2){\n            dressUpTicketNum[_user] += 1;\n            emit LotteryLog(_user,true,'dress-up', now);\n        }\n        emit LotteryLog(_user,false,'dress-up', now);\n    }\n\n    function doShuffleDressUpLottery(address _user) external onlyOwnerContract{\n        require((now - shuffleDressUpLottery[_user]) > 24 hours);\n        lotteryNum += 1;\n        shuffleDressUpLottery[_user] = now;\n        uint _seed = uint(keccak256(abi.encodePacked(lotteryNum,blockhash(block.number-1))));\n        if((_seed % 100) <= 5){\n            shuffleDressUpTicketNum[_user] += 1;\n            emit LotteryLog(_user,true,'s-dress-up', now);\n        }\n        emit LotteryLog(_user,false,'s-dress-up', now);\n    }\n\n    function doGiftHorseLottery(address _user) external onlyOwnerContract{\n        require((now - giftHorseLottery[_user]) > 24 hours);\n        lotteryNum += 1;\n        giftHorseLottery[_user] = now;\n        emit GiftHorseLottery(_user,0);\n    }\n\n    function presentTrainTicket(address _user) external onlyOwnerContract{\n        trainTicketNum[_user]  = trainTicketNum[_user].add(1);\n    }\n\n    function presentDressUpTicket(address _user) external onlyOwnerContract{\n        dressUpTicketNum[_user] = dressUpTicketNum[_user].add(1);\n    }\n\n    function presentShuffleDressUpTicket(address _user) external onlyOwnerContract{\n        shuffleDressUpTicketNum[_user] = shuffleDressUpTicketNum[_user].add(1);\n    }\n\n    function trainHorse(address _user) external onlyOwnerContract{\n        trainTicketNum[_user] = trainTicketNum[_user].sub(1);\n    }\n\n    function dressUpHorse(address _user) external onlyOwnerContract{\n        dressUpTicketNum[_user] = dressUpTicketNum[_user].sub(1);\n    }\n    \n    function shuffleDressUp(address _user) external onlyOwnerContract{\n        shuffleDressUpTicketNum[_user] = shuffleDressUpTicketNum[_user].sub(1);\n    }\n\n}\n\n\n",
  "sourcePath": "/Users/yamamotojirou/Desktop/horseGame-ver2/contracts/Lottery.sol",
  "compiler": {
    "name": "solc",
    "version": "0.4.24+commit.e67f0147.Emscripten.clang"
  },
  "schemaVersion": "2.0.1",
  "updatedAt": "2018-07-07T13:47:32.966Z"
}