{
  "contractName": "Lottery",
  "abi": [
    {
      "constant": true,
      "inputs": [],
      "name": "lotteryNum",
      "outputs": [
        {
          "name": "",
          "type": "uint256"
        }
      ],
      "payable": false,
      "stateMutability": "view",
      "type": "function"
    },
    {
      "inputs": [],
      "payable": false,
      "stateMutability": "nonpayable",
      "type": "constructor"
    },
    {
      "anonymous": false,
      "inputs": [
        {
          "indexed": true,
          "name": "_from",
          "type": "address"
        },
        {
          "indexed": false,
          "name": "_success",
          "type": "bool"
        },
        {
          "indexed": false,
          "name": "_type",
          "type": "string"
        },
        {
          "indexed": false,
          "name": "_now",
          "type": "uint256"
        }
      ],
      "name": "LotteryLog",
      "type": "event"
    },
    {
      "anonymous": false,
      "inputs": [
        {
          "indexed": true,
          "name": "_from",
          "type": "address"
        },
        {
          "indexed": false,
          "name": "_success",
          "type": "bool"
        },
        {
          "indexed": false,
          "name": "_now",
          "type": "uint256"
        }
      ],
      "name": "GiftHorseLottery",
      "type": "event"
    },
    {
      "constant": false,
      "inputs": [
        {
          "name": "_newOwner",
          "type": "address"
        }
      ],
      "name": "setOwner",
      "outputs": [],
      "payable": false,
      "stateMutability": "nonpayable",
      "type": "function"
    },
    {
      "constant": true,
      "inputs": [],
      "name": "trainTicketPrice",
      "outputs": [
        {
          "name": "",
          "type": "uint256"
        }
      ],
      "payable": false,
      "stateMutability": "view",
      "type": "function"
    },
    {
      "constant": true,
      "inputs": [],
      "name": "dressUpTicketPrice",
      "outputs": [
        {
          "name": "",
          "type": "uint256"
        }
      ],
      "payable": false,
      "stateMutability": "view",
      "type": "function"
    },
    {
      "constant": true,
      "inputs": [],
      "name": "shuffleDressUpTicketPrice",
      "outputs": [
        {
          "name": "",
          "type": "uint256"
        }
      ],
      "payable": false,
      "stateMutability": "view",
      "type": "function"
    },
    {
      "constant": true,
      "inputs": [
        {
          "name": "_user",
          "type": "address"
        }
      ],
      "name": "trainTicketNum",
      "outputs": [
        {
          "name": "",
          "type": "uint256"
        }
      ],
      "payable": false,
      "stateMutability": "view",
      "type": "function"
    },
    {
      "constant": true,
      "inputs": [
        {
          "name": "_user",
          "type": "address"
        }
      ],
      "name": "dressUpTicketNum",
      "outputs": [
        {
          "name": "",
          "type": "uint256"
        }
      ],
      "payable": false,
      "stateMutability": "view",
      "type": "function"
    },
    {
      "constant": true,
      "inputs": [
        {
          "name": "_user",
          "type": "address"
        }
      ],
      "name": "shuffleDressUpTicketNum",
      "outputs": [
        {
          "name": "",
          "type": "uint256"
        }
      ],
      "payable": false,
      "stateMutability": "view",
      "type": "function"
    },
    {
      "constant": true,
      "inputs": [
        {
          "name": "_user",
          "type": "address"
        }
      ],
      "name": "trainLottery",
      "outputs": [
        {
          "name": "",
          "type": "uint256"
        }
      ],
      "payable": false,
      "stateMutability": "view",
      "type": "function"
    },
    {
      "constant": true,
      "inputs": [
        {
          "name": "_user",
          "type": "address"
        }
      ],
      "name": "dressUpLottery",
      "outputs": [
        {
          "name": "",
          "type": "uint256"
        }
      ],
      "payable": false,
      "stateMutability": "view",
      "type": "function"
    },
    {
      "constant": true,
      "inputs": [
        {
          "name": "_user",
          "type": "address"
        }
      ],
      "name": "shuffleDressUpLottery",
      "outputs": [
        {
          "name": "",
          "type": "uint256"
        }
      ],
      "payable": false,
      "stateMutability": "view",
      "type": "function"
    },
    {
      "constant": true,
      "inputs": [
        {
          "name": "_user",
          "type": "address"
        }
      ],
      "name": "giftHorseLottery",
      "outputs": [
        {
          "name": "",
          "type": "uint256"
        }
      ],
      "payable": false,
      "stateMutability": "view",
      "type": "function"
    },
    {
      "constant": false,
      "inputs": [
        {
          "name": "_ownerContract",
          "type": "address"
        }
      ],
      "name": "setOwnerContract",
      "outputs": [],
      "payable": false,
      "stateMutability": "nonpayable",
      "type": "function"
    },
    {
      "constant": false,
      "inputs": [
        {
          "name": "_price",
          "type": "uint256"
        }
      ],
      "name": "setTrainTicketPrice",
      "outputs": [],
      "payable": false,
      "stateMutability": "nonpayable",
      "type": "function"
    },
    {
      "constant": false,
      "inputs": [
        {
          "name": "_price",
          "type": "uint256"
        }
      ],
      "name": "setDressUpTicketPrice",
      "outputs": [],
      "payable": false,
      "stateMutability": "nonpayable",
      "type": "function"
    },
    {
      "constant": false,
      "inputs": [
        {
          "name": "_price",
          "type": "uint256"
        }
      ],
      "name": "setShuffleDressUpTicketPrice",
      "outputs": [],
      "payable": false,
      "stateMutability": "nonpayable",
      "type": "function"
    },
    {
      "constant": false,
      "inputs": [
        {
          "name": "_price",
          "type": "uint256"
        },
        {
          "name": "_user",
          "type": "address"
        }
      ],
      "name": "buyTrainTicket",
      "outputs": [],
      "payable": false,
      "stateMutability": "nonpayable",
      "type": "function"
    },
    {
      "constant": false,
      "inputs": [
        {
          "name": "_price",
          "type": "uint256"
        },
        {
          "name": "_user",
          "type": "address"
        }
      ],
      "name": "buyShuffleDressUpTicket",
      "outputs": [],
      "payable": false,
      "stateMutability": "nonpayable",
      "type": "function"
    },
    {
      "constant": false,
      "inputs": [
        {
          "name": "_price",
          "type": "uint256"
        },
        {
          "name": "_user",
          "type": "address"
        }
      ],
      "name": "buyDressUpTicket",
      "outputs": [],
      "payable": false,
      "stateMutability": "nonpayable",
      "type": "function"
    },
    {
      "constant": false,
      "inputs": [
        {
          "name": "_user",
          "type": "address"
        }
      ],
      "name": "doTrainLottery",
      "outputs": [],
      "payable": false,
      "stateMutability": "nonpayable",
      "type": "function"
    },
    {
      "constant": false,
      "inputs": [
        {
          "name": "_user",
          "type": "address"
        }
      ],
      "name": "doDressUpLottery",
      "outputs": [],
      "payable": false,
      "stateMutability": "nonpayable",
      "type": "function"
    },
    {
      "constant": false,
      "inputs": [
        {
          "name": "_user",
          "type": "address"
        }
      ],
      "name": "doShuffleDressUpLottery",
      "outputs": [],
      "payable": false,
      "stateMutability": "nonpayable",
      "type": "function"
    },
    {
      "constant": false,
      "inputs": [
        {
          "name": "_user",
          "type": "address"
        }
      ],
      "name": "doGiftHorseLottery",
      "outputs": [],
      "payable": false,
      "stateMutability": "nonpayable",
      "type": "function"
    },
    {
      "constant": false,
      "inputs": [
        {
          "name": "_user",
          "type": "address"
        }
      ],
      "name": "horseGifted",
      "outputs": [],
      "payable": false,
      "stateMutability": "nonpayable",
      "type": "function"
    },
    {
      "constant": false,
      "inputs": [
        {
          "name": "_user",
          "type": "address"
        }
      ],
      "name": "presentTrainTicket",
      "outputs": [],
      "payable": false,
      "stateMutability": "nonpayable",
      "type": "function"
    },
    {
      "constant": false,
      "inputs": [
        {
          "name": "_user",
          "type": "address"
        }
      ],
      "name": "presentDressUpTicket",
      "outputs": [],
      "payable": false,
      "stateMutability": "nonpayable",
      "type": "function"
    },
    {
      "constant": false,
      "inputs": [
        {
          "name": "_user",
          "type": "address"
        }
      ],
      "name": "presentShuffleDressUpTicket",
      "outputs": [],
      "payable": false,
      "stateMutability": "nonpayable",
      "type": "function"
    },
    {
      "constant": false,
      "inputs": [
        {
          "name": "_user",
          "type": "address"
        }
      ],
      "name": "trainHorse",
      "outputs": [],
      "payable": false,
      "stateMutability": "nonpayable",
      "type": "function"
    },
    {
      "constant": false,
      "inputs": [
        {
          "name": "_user",
          "type": "address"
        }
      ],
      "name": "dressUpHorse",
      "outputs": [],
      "payable": false,
      "stateMutability": "nonpayable",
      "type": "function"
    },
    {
      "constant": false,
      "inputs": [
        {
          "name": "_user",
          "type": "address"
        }
      ],
      "name": "shuffleDressUp",
      "outputs": [],
      "payable": false,
      "stateMutability": "nonpayable",
      "type": "function"
    }
  ],
  "bytecode": "0x60806040526000600c5534801561001557600080fd5b5060018054600160a060020a03191633179055611280806100376000396000f30060806040526004361061017f5763ffffffff7c010000000000000000000000000000000000000000000000000000000060003504166305b4b2e181146101845780630da7dd17146101aa57806313528022146101c257806313af4035146101e357806342ecd8f514610204578063478a78a51461022557806357be8e2a14610258578063622f6b7d1461027c5780636555a6001461029457806368dd6245146102b55780636fe3d049146102d6578063706210f7146102ee578063733df8411461030f5780637f248c4414610324578063815e763514610345578063943fb7041461035a578063959ca12d1461036f578063b467242314610390578063b5ebb7ec146103b1578063bf352102146103d2578063c311ae00146103f3578063c824ee6e14610417578063c874cf5d14610438578063c9dab29614610459578063d23ac1991461047a578063d3652f5a1461048f578063d593bf7b146104b0578063eb812a05146104d1578063ee163244146104f2578063ef354f6514610513575b600080fd5b34801561019057600080fd5b506101a8600435600160a060020a0360243516610534565b005b3480156101b657600080fd5b506101a86004356105a8565b3480156101ce57600080fd5b506101a8600160a060020a03600435166105c4565b3480156101ef57600080fd5b506101a8600160a060020a0360043516610621565b34801561021057600080fd5b506101a8600160a060020a0360043516610667565b34801561023157600080fd5b50610246600160a060020a03600435166106c4565b60408051918252519081900360200190f35b34801561026457600080fd5b506101a8600435600160a060020a03602435166106df565b34801561028857600080fd5b506101a8600435610753565b3480156102a057600080fd5b506101a8600160a060020a036004351661076f565b3480156102c157600080fd5b50610246600160a060020a03600435166107e1565b3480156102e257600080fd5b506101a86004356107fc565b3480156102fa57600080fd5b506101a8600160a060020a0360043516610818565b34801561031b57600080fd5b5061024661085e565b34801561033057600080fd5b50610246600160a060020a0360043516610864565b34801561035157600080fd5b5061024661087f565b34801561036657600080fd5b50610246610885565b34801561037b57600080fd5b506101a8600160a060020a036004351661088b565b34801561039c57600080fd5b506101a8600160a060020a03600435166108cc565b3480156103bd57600080fd5b506101a8600160a060020a0360043516610abf565b3480156103de57600080fd5b506101a8600160a060020a0360043516610c62565b3480156103ff57600080fd5b506101a8600435600160a060020a0360243516610cbf565b34801561042357600080fd5b50610246600160a060020a0360043516610d33565b34801561044457600080fd5b506101a8600160a060020a0360043516610d4e565b34801561046557600080fd5b50610246600160a060020a0360043516610d8f565b34801561048657600080fd5b50610246610daa565b34801561049b57600080fd5b506101a8600160a060020a0360043516610db0565b3480156104bc57600080fd5b50610246600160a060020a0360043516610fa4565b3480156104dd57600080fd5b506101a8600160a060020a0360043516610fbf565b3480156104fe57600080fd5b506101a8600160a060020a03600435166111b3565b34801561051f57600080fd5b50610246600160a060020a03600435166111f4565b60008054600160a060020a0316331461054c57600080fd5b6004548381151561055957fe5b600160a060020a0384166000908152600760205260409020549190049150610587908263ffffffff61120f16565b600160a060020a039092166000908152600760205260409020919091555050565b600054600160a060020a031633146105bf57600080fd5b600255565b600054600160a060020a031633146105db57600080fd5b600160a060020a03811660009081526006602052604090205461060590600163ffffffff61122216565b600160a060020a03909116600090815260066020526040902055565b600154600160a060020a0316331461063857600080fd5b6001805473ffffffffffffffffffffffffffffffffffffffff1916600160a060020a0392909216919091179055565b600054600160a060020a0316331461067e57600080fd5b600160a060020a0381166000908152600560205260409020546106a890600163ffffffff61122216565b600160a060020a03909116600090815260056020526040902055565b600160a060020a031660009081526006602052604090205490565b60008054600160a060020a031633146106f757600080fd5b6003548381151561070457fe5b600160a060020a0384166000908152600660205260409020549190049150610732908263ffffffff61120f16565b600160a060020a039092166000908152600660205260409020919091555050565b600054600160a060020a0316331461076a57600080fd5b600355565b600054600160a060020a0316331461078657600080fd5b600160a060020a0381166000818152600b602090815260408083208390558051600181529182019290925281517f97bb414cff69de054b9322c5915a9b7a66cdbbe1ab8ecee81c97fb13f1462d0d929181900390910190a250565b600160a060020a031660009081526007602052604090205490565b600054600160a060020a0316331461081357600080fd5b600455565b600154600160a060020a0316331461082f57600080fd5b6000805473ffffffffffffffffffffffffffffffffffffffff1916600160a060020a0392909216919091179055565b600c5481565b600160a060020a03166000908152600a602052604090205490565b60035490565b60025490565b600054600160a060020a031633146108a257600080fd5b600160a060020a03811660009081526006602052604090205461060590600163ffffffff61120f16565b60008054600160a060020a031633146108e457600080fd5b600160a060020a0382166000908152600860205260409020546201518042919091031161091057600080fd5b600c5461092490600163ffffffff61120f16565b600c908155600160a060020a038316600090815260086020908152604091829020429055915481514360001901409091188184015281518082038401815290820191829052805190928291908401908083835b602083106109965780518252601f199092019160209182019101610977565b5181516020939093036101000a6000190180199091169216919091179052604051920182900390912093506005925060649150839050061015610a5357600160a060020a03821660008181526005602081815260409283902080546001908101909155835190815242818501526060918101829052908101919091527f747261696e000000000000000000000000000000000000000000000000000000608082015290516000805160206112358339815191529181900360a00190a25b604080516000815242818301526060602082018190526005908201527f747261696e00000000000000000000000000000000000000000000000000000060808201529051600160a060020a03841691600080516020611235833981519152919081900360a00190a25050565b60008054600160a060020a03163314610ad757600080fd5b600160a060020a0382166000908152600b602052604090205462015180429190910311610b0357600080fd5b600c54610b1790600163ffffffff61120f16565b600c8190556040805160001943014090921860208084019190915281518084038201815292820191829052825182918401908083835b60208310610b6c5780518252601f199092019160209182019101610b4d565b5181516020939093036101000a6000190180199091169216919091179052604051920182900390912093506002925060649150839050061015610c0657600160a060020a0382166000818152600b60209081526040918290206001908190558251908152429181019190915281517f97bb414cff69de054b9322c5915a9b7a66cdbbe1ab8ecee81c97fb13f1462d0d929181900390910190a25b600160a060020a0382166000818152600b60209081526040808320429081905581519384529183019190915280517f97bb414cff69de054b9322c5915a9b7a66cdbbe1ab8ecee81c97fb13f1462d0d9281900390910190a25050565b600054600160a060020a03163314610c7957600080fd5b600160a060020a038116600090815260076020526040902054610ca390600163ffffffff61122216565b600160a060020a03909116600090815260076020526040902055565b60008054600160a060020a03163314610cd757600080fd5b60025483811515610ce457fe5b600160a060020a0384166000908152600560205260409020549190049150610d12908263ffffffff61120f16565b600160a060020a039092166000908152600560205260409020919091555050565b600160a060020a031660009081526008602052604090205490565b600054600160a060020a03163314610d6557600080fd5b600160a060020a038116600090815260076020526040902054610ca390600163ffffffff61120f16565b600160a060020a031660009081526009602052604090205490565b60045490565b60008054600160a060020a03163314610dc857600080fd5b600160a060020a0382166000908152600a602052604090205462015180429190910311610df457600080fd5b600c54610e0890600163ffffffff61120f16565b600c908155600160a060020a0383166000908152600a6020908152604091829020429055915481514360001901409091188184015281518082038401815290820191829052805190928291908401908083835b60208310610e7a5780518252601f199092019160209182019101610e5b565b5181516020939093036101000a60001901801990911692169190911790526040519201829003909120935060059250606491508390500611610f3857600160a060020a03821660008181526007602090815260409182902080546001908101909155825190815242818401526060918101829052600a918101919091527f732d64726573732d757000000000000000000000000000000000000000000000608082015290516000805160206112358339815191529181900360a00190a25b60408051600081524281830152606060208201819052600a908201527f732d64726573732d75700000000000000000000000000000000000000000000060808201529051600160a060020a03841691600080516020611235833981519152919081900360a00190a25050565b600160a060020a031660009081526005602052604090205490565b60008054600160a060020a03163314610fd757600080fd5b600160a060020a0382166000908152600960205260409020546201518042919091031161100357600080fd5b600c5461101790600163ffffffff61120f16565b600c908155600160a060020a038316600090815260096020908152604091829020429055915481514360001901409091188184015281518082038401815290820191829052805190928291908401908083835b602083106110895780518252601f19909201916020918201910161106a565b5181516020939093036101000a6000190180199091169216919091179052604051920182900390912093506002925060329150839050061161114757600160a060020a038216600081815260066020908152604091829020805460019081019091558251908152428184015260609181018290526008918101919091527f64726573732d7570000000000000000000000000000000000000000000000000608082015290516000805160206112358339815191529181900360a00190a25b604080516000815242818301526060602082018190526008908201527f64726573732d757000000000000000000000000000000000000000000000000060808201529051600160a060020a03841691600080516020611235833981519152919081900360a00190a25050565b600054600160a060020a031633146111ca57600080fd5b600160a060020a0381166000908152600560205260409020546106a890600163ffffffff61120f16565b600160a060020a03166000908152600b602052604090205490565b8181018281101561121c57fe5b92915050565b60008282111561122e57fe5b5090039056005215d8c878c9c4194fd280c08c00e181f5b28fa56df30cf7f90bb7843807bf4ea165627a7a72305820f6006054f1d7b0dd964225e31e52f60c17ab76952e929bb350764bdd91032d180029",
  "source": "pragma solidity ^0.4.23;\nlibrary SafeMath{\n\n    function mul(uint a, uint b) internal pure returns(uint c){\n        if (a == 0){\n            return 0;\n        }\n        c = a * b;\n        assert(c / a == b);\n        return c;\n    }\n\n    function div(uint a, uint b) internal pure returns(uint){\n        return a / b;\n    }\n\n    function sub(uint a, uint b) internal pure returns (uint) {\n        assert(b <= a);\n        return a - b;\n    }\n\n    function add(uint a, uint b) internal pure returns (uint c) {\n        c = a + b;\n        assert(c >= a);\n        return c;\n    }\n}\n\n\n\ncontract Lottery{\n\n    using SafeMath for uint256;\n\n    modifier onlyOwnerContract(){\n        require(msg.sender == ownerContract);\n        _;\n    }\n    modifier onlyOwner{\n        require(msg.sender == owner);\n        _;\n    }\n    address ownerContract;\n    address owner;\n    uint trainPrice;\n    uint dressUpPrice;\n    uint shuffleDressUpPrice;\n    mapping(address => uint) trainTicketNumber; //ticket number\n    mapping(address => uint) dressUpTicketNumber; // ticket number\n    mapping(address => uint) shuffleDressUpTicketNumber; // all ticket number\n    mapping(address => uint) trainLotteryTime; //address to the last time to do a lottery\n    mapping(address => uint) dressUpLotteryTime;\n    mapping(address => uint) shuffleDressUpLotteryTime;\n    mapping(address => uint) giftHorseLotteryTime;\n    uint public lotteryNum=0;\n\n    event LotteryLog(address indexed _from, bool _success, string _type, uint _now);\n    event GiftHorseLottery(address indexed _from, bool _success , uint _now);\n\n    constructor() public{\n        owner = msg.sender;\n    }\n\n    function setOwner(address _newOwner) external onlyOwner{\n        owner = _newOwner;\n    }\n\n    function trainTicketPrice() external view returns(uint){\n        return trainPrice;\n    }\n\n    function dressUpTicketPrice() external view returns(uint){\n        return dressUpPrice;\n    }\n\n    function shuffleDressUpTicketPrice() external view returns(uint){\n        return shuffleDressUpPrice;\n    }\n\n    function trainTicketNum(address _user) external view returns(uint){\n        return trainTicketNumber[_user];\n    }\n\n    function dressUpTicketNum(address _user) external view returns(uint){\n        return dressUpTicketNumber[_user];\n    }\n\n    function shuffleDressUpTicketNum(address _user) external view returns(uint) {\n        return shuffleDressUpTicketNumber[_user];\n    }\n\n    function trainLottery(address _user) external view returns (uint) {\n        return trainLotteryTime[_user];\n    }\n\n    function dressUpLottery(address _user) external view returns (uint) {\n        return dressUpLotteryTime[_user];\n    }\n\n    function shuffleDressUpLottery(address _user) external view returns(uint){\n        return shuffleDressUpLotteryTime[_user];\n    }\n\n    function giftHorseLottery(address _user) external view returns(uint){\n        return giftHorseLotteryTime[_user];\n    }\n\n    function setOwnerContract(address _ownerContract) external onlyOwner{\n        ownerContract = _ownerContract;\n    }\n\n    function setTrainTicketPrice(uint _price) external onlyOwnerContract{\n        trainPrice = _price;\n    }\n\n    function setDressUpTicketPrice(uint _price) external onlyOwnerContract{\n        dressUpPrice = _price;\n    }\n\n    function setShuffleDressUpTicketPrice(uint _price) external onlyOwnerContract{\n        shuffleDressUpPrice = _price;\n    }\n\n    function buyTrainTicket(uint _price,address _user) external onlyOwnerContract{\n        uint num = _price / trainPrice;\n        trainTicketNumber[_user] = trainTicketNumber[_user].add(num);\n    }\n\n    function buyShuffleDressUpTicket(uint _price, address _user) external onlyOwnerContract{\n        uint num = _price / shuffleDressUpPrice;\n        shuffleDressUpTicketNumber[_user] = shuffleDressUpTicketNumber[_user].add(num);\n    }\n\n    function buyDressUpTicket(uint _price, address _user) external onlyOwnerContract{\n        uint num = _price / dressUpPrice;\n        dressUpTicketNumber[_user] = dressUpTicketNumber[_user].add(num);\n    }\n\n\n    function doTrainLottery(address _user) external onlyOwnerContract{\n        require((now - trainLotteryTime[_user]) > 24 hours);\n        lotteryNum = lotteryNum.add(1);\n        trainLotteryTime[_user] = now;\n        uint _seed = uint(keccak256(abi.encodePacked(bytes32(lotteryNum)^blockhash(block.number-1))));\n        if((_seed % 100) < 5){\n            trainTicketNumber[_user] += 1;\n            emit LotteryLog(_user,true,'train', now);\n        }\n        emit LotteryLog(_user,false,'train', now);\n    }\n\n    function doDressUpLottery(address _user) external onlyOwnerContract{\n        require((now - dressUpLotteryTime[_user]) > 24 hours);\n        lotteryNum = lotteryNum.add(1);\n        dressUpLotteryTime[_user] = now;\n        uint _seed = uint(keccak256(abi.encodePacked(bytes32(lotteryNum)^blockhash(block.number-1))));\n        if((_seed % 50) <= 2){\n            dressUpTicketNumber[_user] += 1;\n            emit LotteryLog(_user,true,'dress-up', now);\n        }\n        emit LotteryLog(_user,false,'dress-up', now);\n    }\n\n    function doShuffleDressUpLottery(address _user) external onlyOwnerContract{\n        require((now - shuffleDressUpLotteryTime[_user]) > 24 hours);\n        lotteryNum=lotteryNum.add(1);\n        shuffleDressUpLotteryTime[_user] = now;\n        uint _seed = uint(keccak256(abi.encodePacked(bytes32(lotteryNum)^blockhash(block.number-1))));\n        if((_seed % 100) <= 5){\n            shuffleDressUpTicketNumber[_user] += 1;\n            emit LotteryLog(_user,true,'s-dress-up', now);\n        }\n        emit LotteryLog(_user,false,'s-dress-up', now);\n    }\n\n    function doGiftHorseLottery(address _user) external onlyOwnerContract{\n        require((now - giftHorseLotteryTime[_user]) > 24 hours);\n        lotteryNum = lotteryNum.add(1);\n        uint _seed = uint(keccak256(abi.encodePacked(bytes32(lotteryNum)^blockhash(block.number-1))));\n        if((_seed % 100) < 2){\n            giftHorseLotteryTime[_user] = 1;\n            emit GiftHorseLottery(_user,true,now);\n        }\n        giftHorseLotteryTime[_user] = now;\n        emit GiftHorseLottery(_user,false,now);\n    }\n\n    function horseGifted(address _user) external onlyOwnerContract{\n        giftHorseLotteryTime[_user] = 0;\n        emit GiftHorseLottery(_user, true, 0);\n    }\n\n    function presentTrainTicket(address _user) external onlyOwnerContract{\n        trainTicketNumber[_user]  = trainTicketNumber[_user].add(1);\n    }\n\n    function presentDressUpTicket(address _user) external onlyOwnerContract{\n        dressUpTicketNumber[_user] = dressUpTicketNumber[_user].add(1);\n    }\n\n    function presentShuffleDressUpTicket(address _user) external onlyOwnerContract{\n        shuffleDressUpTicketNumber[_user] = shuffleDressUpTicketNumber[_user].add(1);\n    }\n\n    function trainHorse(address _user) external onlyOwnerContract{\n        trainTicketNumber[_user] = trainTicketNumber[_user].sub(1);\n    }\n\n    function dressUpHorse(address _user) external onlyOwnerContract{\n        dressUpTicketNumber[_user] = dressUpTicketNumber[_user].sub(1);\n    }\n    \n    function shuffleDressUp(address _user) external onlyOwnerContract{\n        shuffleDressUpTicketNumber[_user] = shuffleDressUpTicketNumber[_user].sub(1);\n    }\n\n}\n\n\n",
  "sourcePath": "/Users/yamamotojirou/vscodeprojects/horse-game-ver2/contracts/Lottery.sol",
  "compiler": {
    "name": "solc",
    "version": "0.4.24+commit.e67f0147.Emscripten.clang"
  },
  "schemaVersion": "2.0.1",
  "updatedAt": "2019-01-13T08:55:13.573Z"
}