{
  "contractName": "RaceFunction",
  "abi": [
    {
      "constant": true,
      "inputs": [
        {
          "name": "_nonce",
          "type": "bytes32"
        },
        {
          "name": "_gene1",
          "type": "uint256"
        },
        {
          "name": "_gene2",
          "type": "uint256"
        }
      ],
      "name": "generateWinnerIndex",
      "outputs": [
        {
          "name": "",
          "type": "uint256"
        }
      ],
      "payable": false,
      "stateMutability": "view",
      "type": "function"
    },
    {
      "constant": true,
      "inputs": [
        {
          "name": "_gene1",
          "type": "uint256"
        },
        {
          "name": "_gene2",
          "type": "uint256"
        }
      ],
      "name": "horseStrengthBalance",
      "outputs": [
        {
          "name": "",
          "type": "uint256"
        },
        {
          "name": "",
          "type": "uint256"
        }
      ],
      "payable": false,
      "stateMutability": "pure",
      "type": "function"
    }
  ],
  "bytecode": "0x608060405234801561001057600080fd5b5061021d806100206000396000f30060806040526004361061004b5763ffffffff7c01000000000000000000000000000000000000000000000000000000006000350416634f248def811461005057806358f4e25f14610084575b600080fd5b34801561005c57600080fd5b5061006b6004356024356100b4565b6040805192835260208301919091528051918290030190f35b34801561009057600080fd5b506100a26004356024356044356100d4565b60408051918252519081900360200190f35b6000806100c0846101b4565b6100c9846101b4565b915091509250929050565b6040805160208082018690526000194301408284015282518083038401815260609092019283905281516000938493849384938493849392909182918401908083835b602083106101365780518252601f199092019160209182019101610117565b6001836020036101000a0380198251168184511680821785525050505050509050019150506040518091039020600190049450610172886101b4565b935061017d876101b4565b92508284019150818581151561018f57fe5b069050838110156101a357600095506101a8565b600195505b50505050509392505050565b6064620186a08206046103e88206016127106298968083060401620f4240633b9aca00830604016305f5e10064174876e8009092069190910401905600a165627a7a723058201cee9a92081324f2c13cea6386b768c9dea73a0c36a89fa8d971d83df945985d0029",
  "source": "pragma solidity ^0.4.23;\n\nlibrary SafeMath{\n\n    function mul(uint a, uint b) internal pure returns(uint c){\n        if (a == 0){\n            return 0;\n        }\n        c = a * b;\n        assert(c / a == b);\n        return c;\n    }\n\n    function div(uint a, uint b) internal pure returns(uint){\n        return a / b;\n    }\n\n    function sub(uint a, uint b) internal pure returns (uint) {\n        assert(b <= a);\n        return a - b;\n    }\n\n    function add(uint a, uint b) internal pure returns (uint c) {\n        c = a + b;\n        assert(c >= a);\n        return c;\n    }\n}\n\ncontract RaceFunction{\n\n    function generateWinnerIndex(bytes32 _nonce,uint _gene1, uint _gene2) external view returns (uint){\n        uint seed = uint256(keccak256(abi.encodePacked(_nonce,blockhash(block.number-1))));\n        uint info1 = _returnStrength(_gene1);\n        uint info2 = _returnStrength(_gene2);\n        uint rangeMax = info1 + info2;\n        uint winnerIndexSeed = uint(seed) % rangeMax;\n        if(winnerIndexSeed < info1){\n            return 0;\n        }else{\n            return 1;\n        }\n    }\n\n    function _returnStrength(uint256 _gene) internal pure returns (uint256) {\n        uint info1 = _gene % 1000;\n        uint info2 = _gene % 100000 / 100;\n        uint info3 = _gene % 10000000 / 10000;\n        uint info4 = _gene % 1000000000 / 1000000;\n        uint info5 = _gene % 100000000000 / 100000000;\n        return info1 + info2 + info3 + info4 + info5;\n    }\n\n    function horseStrengthBalance(uint _gene1,uint _gene2) external pure returns\n    (uint,uint)\n    {\n        return(_returnStrength(_gene1),_returnStrength(_gene2));\n    }\n\n}\n",
  "sourcePath": "/Users/yamamotojirou/Desktop/horseGame-ver2/contracts/RaceFunction.sol",
  "compiler": {
    "name": "solc",
    "version": "0.4.24+commit.e67f0147.Emscripten.clang"
  },
  "schemaVersion": "2.0.1",
  "updatedAt": "2018-07-07T13:47:32.950Z"
}